{
	"contracts/Message.sol": {
		"Message": {
			"abi": [
				{
					"inputs": [],
					"stateMutability": "nonpayable",
					"type": "constructor"
				},
				{
					"inputs": [
						{
							"internalType": "string",
							"name": "alice",
							"type": "string"
						}
					],
					"name": "equalsString",
					"outputs": [
						{
							"internalType": "bool",
							"name": "",
							"type": "bool"
						}
					],
					"stateMutability": "view",
					"type": "function"
				},
				{
					"inputs": [],
					"name": "getGro",
					"outputs": [
						{
							"internalType": "bool",
							"name": "",
							"type": "bool"
						}
					],
					"stateMutability": "pure",
					"type": "function"
				},
				{
					"inputs": [],
					"name": "getMessage",
					"outputs": [
						{
							"internalType": "string",
							"name": "",
							"type": "string"
						}
					],
					"stateMutability": "view",
					"type": "function"
				},
				{
					"inputs": [],
					"name": "getMessageByteLength",
					"outputs": [
						{
							"internalType": "uint256",
							"name": "",
							"type": "uint256"
						}
					],
					"stateMutability": "view",
					"type": "function"
				},
				{
					"inputs": [],
					"name": "getMyAddress",
					"outputs": [
						{
							"internalType": "address",
							"name": "",
							"type": "address"
						}
					],
					"stateMutability": "view",
					"type": "function"
				},
				{
					"inputs": [],
					"name": "getMyAddressBalance",
					"outputs": [
						{
							"internalType": "uint256",
							"name": "",
							"type": "uint256"
						}
					],
					"stateMutability": "view",
					"type": "function"
				},
				{
					"inputs": [],
					"name": "getMyInt",
					"outputs": [
						{
							"internalType": "uint256",
							"name": "",
							"type": "uint256"
						}
					],
					"stateMutability": "view",
					"type": "function"
				},
				{
					"inputs": [],
					"name": "senderAddress",
					"outputs": [
						{
							"internalType": "address",
							"name": "",
							"type": "address"
						}
					],
					"stateMutability": "view",
					"type": "function"
				},
				{
					"inputs": [
						{
							"internalType": "string",
							"name": "_message",
							"type": "string"
						}
					],
					"name": "setMessage",
					"outputs": [],
					"stateMutability": "nonpayable",
					"type": "function"
				},
				{
					"inputs": [
						{
							"internalType": "address",
							"name": "_myAddress",
							"type": "address"
						}
					],
					"name": "setMyAddress",
					"outputs": [],
					"stateMutability": "nonpayable",
					"type": "function"
				},
				{
					"inputs": [
						{
							"internalType": "uint256",
							"name": "_myInt",
							"type": "uint256"
						}
					],
					"name": "setMyInt",
					"outputs": [],
					"stateMutability": "nonpayable",
					"type": "function"
				}
			],
			"devdoc": {
				"kind": "dev",
				"methods": {},
				"version": 1
			},
			"evm": {
				"assembly": "    /* \"contracts/Message.sol\":83:1479  contract Message {... */\n  mstore(0x40, 0x80)\n    /* \"contracts/Message.sol\":107:146  string private message = \"Hello world!\" */\n  mload(0x40)\n  dup1\n  0x40\n  add\n  0x40\n  mstore\n  dup1\n  0x0c\n  dup2\n  mstore\n  0x20\n  add\n  0x48656c6c6f20776f726c64210000000000000000000000000000000000000000\n  dup2\n  mstore\n  pop\n  0x00\n  swap1\n  dup2\n  tag_1\n  swap2\n  swap1\n  tag_2\n  jump\t// in\ntag_1:\n  pop\n    /* \"contracts/Message.sol\":153:205  bytes private messageByte = unicode\"Hello world!ế\" */\n  mload(0x40)\n  dup1\n  0x40\n  add\n  0x40\n  mstore\n  dup1\n  0x0f\n  dup2\n  mstore\n  0x20\n  add\n  0x48656c6c6f20776f726c6421e1babf0000000000000000000000000000000000\n  dup2\n  mstore\n  pop\n  0x01\n  swap1\n  dup2\n  tag_3\n  swap2\n  swap1\n  tag_4\n  jump\t// in\ntag_3:\n  pop\n    /* \"contracts/Message.sol\":231:235  true */\n  0x01\n    /* \"contracts/Message.sol\":212:235  bool private gro = true */\n  0x02\n  exp(0x0100, 0x00)\n  dup2\n  sload\n  dup2\n  0xff\n  mul\n  not\n  and\n  swap1\n  dup4\n  iszero\n  iszero\n  mul\n  or\n  swap1\n  sstore\n  pop\n    /* \"contracts/Message.sol\":263:264  1 */\n  0x01\n    /* \"contracts/Message.sol\":242:264  uint private myInt = 1 */\n  0x03\n  sstore\n    /* \"contracts/Message.sol\":326:336  msg.sender */\n  caller\n    /* \"contracts/Message.sol\":295:336  address public senderAddress = msg.sender */\n  0x05\n  exp(0x0100, 0x00)\n  dup2\n  sload\n  dup2\n  0xffffffffffffffffffffffffffffffffffffffff\n  mul\n  not\n  and\n  swap1\n  dup4\n  0xffffffffffffffffffffffffffffffffffffffff\n  and\n  mul\n  or\n  swap1\n  sstore\n  pop\n    /* \"contracts/Message.sol\":344:388  constructor () {myAddress = address(this); } */\n  callvalue\n  dup1\n  iszero\n  tag_5\n  jumpi\n  0x00\n  dup1\n  revert\ntag_5:\n  pop\n    /* \"contracts/Message.sol\":380:384  this */\n  address\n    /* \"contracts/Message.sol\":360:369  myAddress */\n  0x04\n  0x00\n    /* \"contracts/Message.sol\":360:385  myAddress = address(this) */\n  0x0100\n  exp\n  dup2\n  sload\n  dup2\n  0xffffffffffffffffffffffffffffffffffffffff\n  mul\n  not\n  and\n  swap1\n  dup4\n  0xffffffffffffffffffffffffffffffffffffffff\n  and\n  mul\n  or\n  swap1\n  sstore\n  pop\n    /* \"contracts/Message.sol\":83:1479  contract Message {... */\n  jump(tag_8)\n    /* \"#utility.yul\":7:106   */\ntag_9:\n    /* \"#utility.yul\":59:65   */\n  0x00\n    /* \"#utility.yul\":93:98   */\n  dup2\n    /* \"#utility.yul\":87:99   */\n  mload\n    /* \"#utility.yul\":77:99   */\n  swap1\n  pop\n    /* \"#utility.yul\":7:106   */\n  swap2\n  swap1\n  pop\n  jump\t// out\n    /* \"#utility.yul\":112:292   */\ntag_10:\n    /* \"#utility.yul\":160:237   */\n  0x4e487b7100000000000000000000000000000000000000000000000000000000\n    /* \"#utility.yul\":157:158   */\n  0x00\n    /* \"#utility.yul\":150:238   */\n  mstore\n    /* \"#utility.yul\":257:261   */\n  0x41\n    /* \"#utility.yul\":254:255   */\n  0x04\n    /* \"#utility.yul\":247:262   */\n  mstore\n    /* \"#utility.yul\":281:285   */\n  0x24\n    /* \"#utility.yul\":278:279   */\n  0x00\n    /* \"#utility.yul\":271:286   */\n  revert\n    /* \"#utility.yul\":298:478   */\ntag_11:\n    /* \"#utility.yul\":346:423   */\n  0x4e487b7100000000000000000000000000000000000000000000000000000000\n    /* \"#utility.yul\":343:344   */\n  0x00\n    /* \"#utility.yul\":336:424   */\n  mstore\n    /* \"#utility.yul\":443:447   */\n  0x22\n    /* \"#utility.yul\":440:441   */\n  0x04\n    /* \"#utility.yul\":433:448   */\n  mstore\n    /* \"#utility.yul\":467:471   */\n  0x24\n    /* \"#utility.yul\":464:465   */\n  0x00\n    /* \"#utility.yul\":457:472   */\n  revert\n    /* \"#utility.yul\":484:804   */\ntag_12:\n    /* \"#utility.yul\":528:534   */\n  0x00\n    /* \"#utility.yul\":565:566   */\n  0x02\n    /* \"#utility.yul\":559:563   */\n  dup3\n    /* \"#utility.yul\":555:567   */\n  div\n    /* \"#utility.yul\":545:567   */\n  swap1\n  pop\n    /* \"#utility.yul\":612:613   */\n  0x01\n    /* \"#utility.yul\":606:610   */\n  dup3\n    /* \"#utility.yul\":602:614   */\n  and\n    /* \"#utility.yul\":633:651   */\n  dup1\n    /* \"#utility.yul\":623:704   */\n  tag_36\n  jumpi\n    /* \"#utility.yul\":689:693   */\n  0x7f\n    /* \"#utility.yul\":681:687   */\n  dup3\n    /* \"#utility.yul\":677:694   */\n  and\n    /* \"#utility.yul\":667:694   */\n  swap2\n  pop\n    /* \"#utility.yul\":623:704   */\ntag_36:\n    /* \"#utility.yul\":751:753   */\n  0x20\n    /* \"#utility.yul\":743:749   */\n  dup3\n    /* \"#utility.yul\":740:754   */\n  lt\n    /* \"#utility.yul\":720:738   */\n  dup2\n    /* \"#utility.yul\":717:755   */\n  sub\n    /* \"#utility.yul\":714:798   */\n  tag_37\n  jumpi\n    /* \"#utility.yul\":770:788   */\n  tag_38\n  tag_11\n  jump\t// in\ntag_38:\n    /* \"#utility.yul\":714:798   */\ntag_37:\n    /* \"#utility.yul\":535:804   */\n  pop\n    /* \"#utility.yul\":484:804   */\n  swap2\n  swap1\n  pop\n  jump\t// out\n    /* \"#utility.yul\":810:951   */\ntag_13:\n    /* \"#utility.yul\":859:863   */\n  0x00\n    /* \"#utility.yul\":882:885   */\n  dup2\n    /* \"#utility.yul\":874:885   */\n  swap1\n  pop\n    /* \"#utility.yul\":905:908   */\n  dup2\n    /* \"#utility.yul\":902:903   */\n  0x00\n    /* \"#utility.yul\":895:909   */\n  mstore\n    /* \"#utility.yul\":939:943   */\n  0x20\n    /* \"#utility.yul\":936:937   */\n  0x00\n    /* \"#utility.yul\":926:944   */\n  keccak256\n    /* \"#utility.yul\":918:944   */\n  swap1\n  pop\n    /* \"#utility.yul\":810:951   */\n  swap2\n  swap1\n  pop\n  jump\t// out\n    /* \"#utility.yul\":957:1050   */\ntag_14:\n    /* \"#utility.yul\":994:1000   */\n  0x00\n    /* \"#utility.yul\":1041:1043   */\n  0x20\n    /* \"#utility.yul\":1036:1038   */\n  0x1f\n    /* \"#utility.yul\":1029:1034   */\n  dup4\n    /* \"#utility.yul\":1025:1039   */\n  add\n    /* \"#utility.yul\":1021:1044   */\n  div\n    /* \"#utility.yul\":1011:1044   */\n  swap1\n  pop\n    /* \"#utility.yul\":957:1050   */\n  swap2\n  swap1\n  pop\n  jump\t// out\n    /* \"#utility.yul\":1056:1163   */\ntag_15:\n    /* \"#utility.yul\":1100:1108   */\n  0x00\n    /* \"#utility.yul\":1150:1155   */\n  dup3\n    /* \"#utility.yul\":1144:1148   */\n  dup3\n    /* \"#utility.yul\":1140:1156   */\n  shl\n    /* \"#utility.yul\":1119:1156   */\n  swap1\n  pop\n    /* \"#utility.yul\":1056:1163   */\n  swap3\n  swap2\n  pop\n  pop\n  jump\t// out\n    /* \"#utility.yul\":1169:1562   */\ntag_16:\n    /* \"#utility.yul\":1238:1244   */\n  0x00\n    /* \"#utility.yul\":1288:1289   */\n  0x08\n    /* \"#utility.yul\":1276:1286   */\n  dup4\n    /* \"#utility.yul\":1272:1290   */\n  mul\n    /* \"#utility.yul\":1311:1408   */\n  tag_43\n    /* \"#utility.yul\":1341:1407   */\n  0xffffffffffffffffffffffffffffffffffffffffffffffffffffffffffffffff\n    /* \"#utility.yul\":1330:1339   */\n  dup3\n    /* \"#utility.yul\":1311:1408   */\n  tag_15\n  jump\t// in\ntag_43:\n    /* \"#utility.yul\":1429:1468   */\n  tag_44\n    /* \"#utility.yul\":1459:1467   */\n  dup7\n    /* \"#utility.yul\":1448:1457   */\n  dup4\n    /* \"#utility.yul\":1429:1468   */\n  tag_15\n  jump\t// in\ntag_44:\n    /* \"#utility.yul\":1417:1468   */\n  swap6\n  pop\n    /* \"#utility.yul\":1501:1505   */\n  dup1\n    /* \"#utility.yul\":1497:1506   */\n  not\n    /* \"#utility.yul\":1490:1495   */\n  dup5\n    /* \"#utility.yul\":1486:1507   */\n  and\n    /* \"#utility.yul\":1477:1507   */\n  swap4\n  pop\n    /* \"#utility.yul\":1550:1554   */\n  dup1\n    /* \"#utility.yul\":1540:1548   */\n  dup7\n    /* \"#utility.yul\":1536:1555   */\n  and\n    /* \"#utility.yul\":1529:1534   */\n  dup5\n    /* \"#utility.yul\":1526:1556   */\n  or\n    /* \"#utility.yul\":1516:1556   */\n  swap3\n  pop\n    /* \"#utility.yul\":1245:1562   */\n  pop\n  pop\n    /* \"#utility.yul\":1169:1562   */\n  swap4\n  swap3\n  pop\n  pop\n  pop\n  jump\t// out\n    /* \"#utility.yul\":1568:1645   */\ntag_17:\n    /* \"#utility.yul\":1605:1612   */\n  0x00\n    /* \"#utility.yul\":1634:1639   */\n  dup2\n    /* \"#utility.yul\":1623:1639   */\n  swap1\n  pop\n    /* \"#utility.yul\":1568:1645   */\n  swap2\n  swap1\n  pop\n  jump\t// out\n    /* \"#utility.yul\":1651:1711   */\ntag_18:\n    /* \"#utility.yul\":1679:1682   */\n  0x00\n    /* \"#utility.yul\":1700:1705   */\n  dup2\n    /* \"#utility.yul\":1693:1705   */\n  swap1\n  pop\n    /* \"#utility.yul\":1651:1711   */\n  swap2\n  swap1\n  pop\n  jump\t// out\n    /* \"#utility.yul\":1717:1859   */\ntag_19:\n    /* \"#utility.yul\":1767:1776   */\n  0x00\n    /* \"#utility.yul\":1800:1853   */\n  tag_48\n    /* \"#utility.yul\":1818:1852   */\n  tag_49\n    /* \"#utility.yul\":1827:1851   */\n  tag_50\n    /* \"#utility.yul\":1845:1850   */\n  dup5\n    /* \"#utility.yul\":1827:1851   */\n  tag_17\n  jump\t// in\ntag_50:\n    /* \"#utility.yul\":1818:1852   */\n  tag_18\n  jump\t// in\ntag_49:\n    /* \"#utility.yul\":1800:1853   */\n  tag_17\n  jump\t// in\ntag_48:\n    /* \"#utility.yul\":1787:1853   */\n  swap1\n  pop\n    /* \"#utility.yul\":1717:1859   */\n  swap2\n  swap1\n  pop\n  jump\t// out\n    /* \"#utility.yul\":1865:1940   */\ntag_20:\n    /* \"#utility.yul\":1908:1911   */\n  0x00\n    /* \"#utility.yul\":1929:1934   */\n  dup2\n    /* \"#utility.yul\":1922:1934   */\n  swap1\n  pop\n    /* \"#utility.yul\":1865:1940   */\n  swap2\n  swap1\n  pop\n  jump\t// out\n    /* \"#utility.yul\":1946:2215   */\ntag_21:\n    /* \"#utility.yul\":2056:2095   */\n  tag_53\n    /* \"#utility.yul\":2087:2094   */\n  dup4\n    /* \"#utility.yul\":2056:2095   */\n  tag_19\n  jump\t// in\ntag_53:\n    /* \"#utility.yul\":2117:2208   */\n  tag_54\n    /* \"#utility.yul\":2166:2207   */\n  tag_55\n    /* \"#utility.yul\":2190:2206   */\n  dup3\n    /* \"#utility.yul\":2166:2207   */\n  tag_20\n  jump\t// in\ntag_55:\n    /* \"#utility.yul\":2158:2164   */\n  dup5\n    /* \"#utility.yul\":2151:2155   */\n  dup5\n    /* \"#utility.yul\":2145:2156   */\n  sload\n    /* \"#utility.yul\":2117:2208   */\n  tag_16\n  jump\t// in\ntag_54:\n    /* \"#utility.yul\":2111:2115   */\n  dup3\n    /* \"#utility.yul\":2104:2209   */\n  sstore\n    /* \"#utility.yul\":2022:2215   */\n  pop\n    /* \"#utility.yul\":1946:2215   */\n  pop\n  pop\n  pop\n  jump\t// out\n    /* \"#utility.yul\":2221:2294   */\ntag_22:\n    /* \"#utility.yul\":2266:2269   */\n  0x00\n    /* \"#utility.yul\":2221:2294   */\n  swap1\n  jump\t// out\n    /* \"#utility.yul\":2300:2489   */\ntag_23:\n    /* \"#utility.yul\":2377:2409   */\n  tag_58\n  tag_22\n  jump\t// in\ntag_58:\n    /* \"#utility.yul\":2418:2483   */\n  tag_59\n    /* \"#utility.yul\":2476:2482   */\n  dup2\n    /* \"#utility.yul\":2468:2474   */\n  dup5\n    /* \"#utility.yul\":2462:2466   */\n  dup5\n    /* \"#utility.yul\":2418:2483   */\n  tag_21\n  jump\t// in\ntag_59:\n    /* \"#utility.yul\":2353:2489   */\n  pop\n    /* \"#utility.yul\":2300:2489   */\n  pop\n  pop\n  jump\t// out\n    /* \"#utility.yul\":2495:2681   */\ntag_24:\n    /* \"#utility.yul\":2555:2675   */\ntag_61:\n    /* \"#utility.yul\":2572:2575   */\n  dup2\n    /* \"#utility.yul\":2565:2570   */\n  dup2\n    /* \"#utility.yul\":2562:2576   */\n  lt\n    /* \"#utility.yul\":2555:2675   */\n  iszero\n  tag_63\n  jumpi\n    /* \"#utility.yul\":2626:2665   */\n  tag_64\n    /* \"#utility.yul\":2663:2664   */\n  0x00\n    /* \"#utility.yul\":2656:2661   */\n  dup3\n    /* \"#utility.yul\":2626:2665   */\n  tag_23\n  jump\t// in\ntag_64:\n    /* \"#utility.yul\":2599:2600   */\n  0x01\n    /* \"#utility.yul\":2592:2597   */\n  dup2\n    /* \"#utility.yul\":2588:2601   */\n  add\n    /* \"#utility.yul\":2579:2601   */\n  swap1\n  pop\n    /* \"#utility.yul\":2555:2675   */\n  jump(tag_61)\ntag_63:\n    /* \"#utility.yul\":2495:2681   */\n  pop\n  pop\n  jump\t// out\n    /* \"#utility.yul\":2687:3230   */\ntag_25:\n    /* \"#utility.yul\":2788:2790   */\n  0x1f\n    /* \"#utility.yul\":2783:2786   */\n  dup3\n    /* \"#utility.yul\":2780:2791   */\n  gt\n    /* \"#utility.yul\":2777:3223   */\n  iszero\n  tag_66\n  jumpi\n    /* \"#utility.yul\":2822:2860   */\n  tag_67\n    /* \"#utility.yul\":2854:2859   */\n  dup2\n    /* \"#utility.yul\":2822:2860   */\n  tag_13\n  jump\t// in\ntag_67:\n    /* \"#utility.yul\":2906:2935   */\n  tag_68\n    /* \"#utility.yul\":2924:2934   */\n  dup5\n    /* \"#utility.yul\":2906:2935   */\n  tag_14\n  jump\t// in\ntag_68:\n    /* \"#utility.yul\":2896:2904   */\n  dup2\n    /* \"#utility.yul\":2892:2936   */\n  add\n    /* \"#utility.yul\":3089:3091   */\n  0x20\n    /* \"#utility.yul\":3077:3087   */\n  dup6\n    /* \"#utility.yul\":3074:3092   */\n  lt\n    /* \"#utility.yul\":3071:3120   */\n  iszero\n  tag_69\n  jumpi\n    /* \"#utility.yul\":3110:3118   */\n  dup2\n    /* \"#utility.yul\":3095:3118   */\n  swap1\n  pop\n    /* \"#utility.yul\":3071:3120   */\ntag_69:\n    /* \"#utility.yul\":3133:3213   */\n  tag_70\n    /* \"#utility.yul\":3189:3211   */\n  tag_71\n    /* \"#utility.yul\":3207:3210   */\n  dup6\n    /* \"#utility.yul\":3189:3211   */\n  tag_14\n  jump\t// in\ntag_71:\n    /* \"#utility.yul\":3179:3187   */\n  dup4\n    /* \"#utility.yul\":3175:3212   */\n  add\n    /* \"#utility.yul\":3162:3173   */\n  dup3\n    /* \"#utility.yul\":3133:3213   */\n  tag_24\n  jump\t// in\ntag_70:\n    /* \"#utility.yul\":2792:3223   */\n  pop\n  pop\n    /* \"#utility.yul\":2777:3223   */\ntag_66:\n    /* \"#utility.yul\":2687:3230   */\n  pop\n  pop\n  pop\n  jump\t// out\n    /* \"#utility.yul\":3236:3353   */\ntag_26:\n    /* \"#utility.yul\":3290:3298   */\n  0x00\n    /* \"#utility.yul\":3340:3345   */\n  dup3\n    /* \"#utility.yul\":3334:3338   */\n  dup3\n    /* \"#utility.yul\":3330:3346   */\n  shr\n    /* \"#utility.yul\":3309:3346   */\n  swap1\n  pop\n    /* \"#utility.yul\":3236:3353   */\n  swap3\n  swap2\n  pop\n  pop\n  jump\t// out\n    /* \"#utility.yul\":3359:3528   */\ntag_27:\n    /* \"#utility.yul\":3403:3409   */\n  0x00\n    /* \"#utility.yul\":3436:3487   */\n  tag_74\n    /* \"#utility.yul\":3484:3485   */\n  0x00\n    /* \"#utility.yul\":3480:3486   */\n  not\n    /* \"#utility.yul\":3472:3477   */\n  dup5\n    /* \"#utility.yul\":3469:3470   */\n  0x08\n    /* \"#utility.yul\":3465:3478   */\n  mul\n    /* \"#utility.yul\":3436:3487   */\n  tag_26\n  jump\t// in\ntag_74:\n    /* \"#utility.yul\":3432:3488   */\n  not\n    /* \"#utility.yul\":3517:3521   */\n  dup1\n    /* \"#utility.yul\":3511:3515   */\n  dup4\n    /* \"#utility.yul\":3507:3522   */\n  and\n    /* \"#utility.yul\":3497:3522   */\n  swap2\n  pop\n    /* \"#utility.yul\":3410:3528   */\n  pop\n    /* \"#utility.yul\":3359:3528   */\n  swap3\n  swap2\n  pop\n  pop\n  jump\t// out\n    /* \"#utility.yul\":3533:3828   */\ntag_28:\n    /* \"#utility.yul\":3609:3613   */\n  0x00\n    /* \"#utility.yul\":3755:3784   */\n  tag_76\n    /* \"#utility.yul\":3780:3783   */\n  dup4\n    /* \"#utility.yul\":3774:3778   */\n  dup4\n    /* \"#utility.yul\":3755:3784   */\n  tag_27\n  jump\t// in\ntag_76:\n    /* \"#utility.yul\":3747:3784   */\n  swap2\n  pop\n    /* \"#utility.yul\":3817:3820   */\n  dup3\n    /* \"#utility.yul\":3814:3815   */\n  0x02\n    /* \"#utility.yul\":3810:3821   */\n  mul\n    /* \"#utility.yul\":3804:3808   */\n  dup3\n    /* \"#utility.yul\":3801:3822   */\n  or\n    /* \"#utility.yul\":3793:3822   */\n  swap1\n  pop\n    /* \"#utility.yul\":3533:3828   */\n  swap3\n  swap2\n  pop\n  pop\n  jump\t// out\n    /* \"#utility.yul\":3833:5228   */\ntag_2:\n    /* \"#utility.yul\":3950:3987   */\n  tag_78\n    /* \"#utility.yul\":3983:3986   */\n  dup3\n    /* \"#utility.yul\":3950:3987   */\n  tag_9\n  jump\t// in\ntag_78:\n    /* \"#utility.yul\":4052:4070   */\n  0xffffffffffffffff\n    /* \"#utility.yul\":4044:4050   */\n  dup2\n    /* \"#utility.yul\":4041:4071   */\n  gt\n    /* \"#utility.yul\":4038:4094   */\n  iszero\n  tag_79\n  jumpi\n    /* \"#utility.yul\":4074:4092   */\n  tag_80\n  tag_10\n  jump\t// in\ntag_80:\n    /* \"#utility.yul\":4038:4094   */\ntag_79:\n    /* \"#utility.yul\":4118:4156   */\n  tag_81\n    /* \"#utility.yul\":4150:4154   */\n  dup3\n    /* \"#utility.yul\":4144:4155   */\n  sload\n    /* \"#utility.yul\":4118:4156   */\n  tag_12\n  jump\t// in\ntag_81:\n    /* \"#utility.yul\":4203:4270   */\n  tag_82\n    /* \"#utility.yul\":4263:4269   */\n  dup3\n    /* \"#utility.yul\":4255:4261   */\n  dup3\n    /* \"#utility.yul\":4249:4253   */\n  dup6\n    /* \"#utility.yul\":4203:4270   */\n  tag_25\n  jump\t// in\ntag_82:\n    /* \"#utility.yul\":4297:4298   */\n  0x00\n    /* \"#utility.yul\":4321:4325   */\n  0x20\n    /* \"#utility.yul\":4308:4325   */\n  swap1\n  pop\n    /* \"#utility.yul\":4353:4355   */\n  0x1f\n    /* \"#utility.yul\":4345:4351   */\n  dup4\n    /* \"#utility.yul\":4342:4356   */\n  gt\n    /* \"#utility.yul\":4370:4371   */\n  0x01\n    /* \"#utility.yul\":4365:4983   */\n  dup2\n  eq\n  tag_84\n  jumpi\n    /* \"#utility.yul\":5027:5028   */\n  0x00\n    /* \"#utility.yul\":5044:5050   */\n  dup5\n    /* \"#utility.yul\":5041:5118   */\n  iszero\n  tag_85\n  jumpi\n    /* \"#utility.yul\":5093:5102   */\n  dup3\n    /* \"#utility.yul\":5088:5091   */\n  dup8\n    /* \"#utility.yul\":5084:5103   */\n  add\n    /* \"#utility.yul\":5078:5104   */\n  mload\n    /* \"#utility.yul\":5069:5104   */\n  swap1\n  pop\n    /* \"#utility.yul\":5041:5118   */\ntag_85:\n    /* \"#utility.yul\":5144:5211   */\n  tag_86\n    /* \"#utility.yul\":5204:5210   */\n  dup6\n    /* \"#utility.yul\":5197:5202   */\n  dup3\n    /* \"#utility.yul\":5144:5211   */\n  tag_28\n  jump\t// in\ntag_86:\n    /* \"#utility.yul\":5138:5142   */\n  dup7\n    /* \"#utility.yul\":5131:5212   */\n  sstore\n    /* \"#utility.yul\":5000:5222   */\n  pop\n    /* \"#utility.yul\":4335:5222   */\n  jump(tag_83)\n    /* \"#utility.yul\":4365:4983   */\ntag_84:\n    /* \"#utility.yul\":4417:4421   */\n  0x1f\n    /* \"#utility.yul\":4413:4422   */\n  not\n    /* \"#utility.yul\":4405:4411   */\n  dup5\n    /* \"#utility.yul\":4401:4423   */\n  and\n    /* \"#utility.yul\":4451:4488   */\n  tag_87\n    /* \"#utility.yul\":4483:4487   */\n  dup7\n    /* \"#utility.yul\":4451:4488   */\n  tag_13\n  jump\t// in\ntag_87:\n    /* \"#utility.yul\":4510:4511   */\n  0x00\n    /* \"#utility.yul\":4524:4732   */\ntag_88:\n    /* \"#utility.yul\":4538:4545   */\n  dup3\n    /* \"#utility.yul\":4535:4536   */\n  dup2\n    /* \"#utility.yul\":4532:4546   */\n  lt\n    /* \"#utility.yul\":4524:4732   */\n  iszero\n  tag_90\n  jumpi\n    /* \"#utility.yul\":4617:4626   */\n  dup5\n    /* \"#utility.yul\":4612:4615   */\n  dup10\n    /* \"#utility.yul\":4608:4627   */\n  add\n    /* \"#utility.yul\":4602:4628   */\n  mload\n    /* \"#utility.yul\":4594:4600   */\n  dup3\n    /* \"#utility.yul\":4587:4629   */\n  sstore\n    /* \"#utility.yul\":4668:4669   */\n  0x01\n    /* \"#utility.yul\":4660:4666   */\n  dup3\n    /* \"#utility.yul\":4656:4670   */\n  add\n    /* \"#utility.yul\":4646:4670   */\n  swap2\n  pop\n    /* \"#utility.yul\":4715:4717   */\n  0x20\n    /* \"#utility.yul\":4704:4713   */\n  dup6\n    /* \"#utility.yul\":4700:4718   */\n  add\n    /* \"#utility.yul\":4687:4718   */\n  swap5\n  pop\n    /* \"#utility.yul\":4561:4565   */\n  0x20\n    /* \"#utility.yul\":4558:4559   */\n  dup2\n    /* \"#utility.yul\":4554:4566   */\n  add\n    /* \"#utility.yul\":4549:4566   */\n  swap1\n  pop\n    /* \"#utility.yul\":4524:4732   */\n  jump(tag_88)\ntag_90:\n    /* \"#utility.yul\":4760:4766   */\n  dup7\n    /* \"#utility.yul\":4751:4758   */\n  dup4\n    /* \"#utility.yul\":4748:4767   */\n  lt\n    /* \"#utility.yul\":4745:4924   */\n  iszero\n  tag_91\n  jumpi\n    /* \"#utility.yul\":4818:4827   */\n  dup5\n    /* \"#utility.yul\":4813:4816   */\n  dup10\n    /* \"#utility.yul\":4809:4828   */\n  add\n    /* \"#utility.yul\":4803:4829   */\n  mload\n    /* \"#utility.yul\":4861:4909   */\n  tag_92\n    /* \"#utility.yul\":4903:4907   */\n  0x1f\n    /* \"#utility.yul\":4895:4901   */\n  dup10\n    /* \"#utility.yul\":4891:4908   */\n  and\n    /* \"#utility.yul\":4880:4889   */\n  dup3\n    /* \"#utility.yul\":4861:4909   */\n  tag_27\n  jump\t// in\ntag_92:\n    /* \"#utility.yul\":4853:4859   */\n  dup4\n    /* \"#utility.yul\":4846:4910   */\n  sstore\n    /* \"#utility.yul\":4768:4924   */\n  pop\n    /* \"#utility.yul\":4745:4924   */\ntag_91:\n    /* \"#utility.yul\":4970:4971   */\n  0x01\n    /* \"#utility.yul\":4966:4967   */\n  0x02\n    /* \"#utility.yul\":4958:4964   */\n  dup9\n    /* \"#utility.yul\":4954:4968   */\n  mul\n    /* \"#utility.yul\":4950:4972   */\n  add\n    /* \"#utility.yul\":4944:4948   */\n  dup9\n    /* \"#utility.yul\":4937:4973   */\n  sstore\n    /* \"#utility.yul\":4372:4983   */\n  pop\n  pop\n  pop\n    /* \"#utility.yul\":4335:5222   */\ntag_83:\n  pop\n    /* \"#utility.yul\":3925:5228   */\n  pop\n  pop\n  pop\n    /* \"#utility.yul\":3833:5228   */\n  pop\n  pop\n  jump\t// out\n    /* \"#utility.yul\":5234:5374   */\ntag_29:\n    /* \"#utility.yul\":5282:5286   */\n  0x00\n    /* \"#utility.yul\":5305:5308   */\n  dup2\n    /* \"#utility.yul\":5297:5308   */\n  swap1\n  pop\n    /* \"#utility.yul\":5328:5331   */\n  dup2\n    /* \"#utility.yul\":5325:5326   */\n  0x00\n    /* \"#utility.yul\":5318:5332   */\n  mstore\n    /* \"#utility.yul\":5362:5366   */\n  0x20\n    /* \"#utility.yul\":5359:5360   */\n  0x00\n    /* \"#utility.yul\":5349:5367   */\n  keccak256\n    /* \"#utility.yul\":5341:5367   */\n  swap1\n  pop\n    /* \"#utility.yul\":5234:5374   */\n  swap2\n  swap1\n  pop\n  jump\t// out\n    /* \"#utility.yul\":5380:5921   */\ntag_30:\n    /* \"#utility.yul\":5480:5482   */\n  0x1f\n    /* \"#utility.yul\":5475:5478   */\n  dup3\n    /* \"#utility.yul\":5472:5483   */\n  gt\n    /* \"#utility.yul\":5469:5914   */\n  iszero\n  tag_95\n  jumpi\n    /* \"#utility.yul\":5514:5551   */\n  tag_96\n    /* \"#utility.yul\":5545:5550   */\n  dup2\n    /* \"#utility.yul\":5514:5551   */\n  tag_29\n  jump\t// in\ntag_96:\n    /* \"#utility.yul\":5597:5626   */\n  tag_97\n    /* \"#utility.yul\":5615:5625   */\n  dup5\n    /* \"#utility.yul\":5597:5626   */\n  tag_14\n  jump\t// in\ntag_97:\n    /* \"#utility.yul\":5587:5595   */\n  dup2\n    /* \"#utility.yul\":5583:5627   */\n  add\n    /* \"#utility.yul\":5780:5782   */\n  0x20\n    /* \"#utility.yul\":5768:5778   */\n  dup6\n    /* \"#utility.yul\":5765:5783   */\n  lt\n    /* \"#utility.yul\":5762:5811   */\n  iszero\n  tag_98\n  jumpi\n    /* \"#utility.yul\":5801:5809   */\n  dup2\n    /* \"#utility.yul\":5786:5809   */\n  swap1\n  pop\n    /* \"#utility.yul\":5762:5811   */\ntag_98:\n    /* \"#utility.yul\":5824:5904   */\n  tag_99\n    /* \"#utility.yul\":5880:5902   */\n  tag_100\n    /* \"#utility.yul\":5898:5901   */\n  dup6\n    /* \"#utility.yul\":5880:5902   */\n  tag_14\n  jump\t// in\ntag_100:\n    /* \"#utility.yul\":5870:5878   */\n  dup4\n    /* \"#utility.yul\":5866:5903   */\n  add\n    /* \"#utility.yul\":5853:5864   */\n  dup3\n    /* \"#utility.yul\":5824:5904   */\n  tag_24\n  jump\t// in\ntag_99:\n    /* \"#utility.yul\":5484:5914   */\n  pop\n  pop\n    /* \"#utility.yul\":5469:5914   */\ntag_95:\n    /* \"#utility.yul\":5380:5921   */\n  pop\n  pop\n  pop\n  jump\t// out\n    /* \"#utility.yul\":5927:7319   */\ntag_4:\n    /* \"#utility.yul\":6043:6080   */\n  tag_102\n    /* \"#utility.yul\":6076:6079   */\n  dup3\n    /* \"#utility.yul\":6043:6080   */\n  tag_9\n  jump\t// in\ntag_102:\n    /* \"#utility.yul\":6145:6163   */\n  0xffffffffffffffff\n    /* \"#utility.yul\":6137:6143   */\n  dup2\n    /* \"#utility.yul\":6134:6164   */\n  gt\n    /* \"#utility.yul\":6131:6187   */\n  iszero\n  tag_103\n  jumpi\n    /* \"#utility.yul\":6167:6185   */\n  tag_104\n  tag_10\n  jump\t// in\ntag_104:\n    /* \"#utility.yul\":6131:6187   */\ntag_103:\n    /* \"#utility.yul\":6211:6249   */\n  tag_105\n    /* \"#utility.yul\":6243:6247   */\n  dup3\n    /* \"#utility.yul\":6237:6248   */\n  sload\n    /* \"#utility.yul\":6211:6249   */\n  tag_12\n  jump\t// in\ntag_105:\n    /* \"#utility.yul\":6296:6362   */\n  tag_106\n    /* \"#utility.yul\":6355:6361   */\n  dup3\n    /* \"#utility.yul\":6347:6353   */\n  dup3\n    /* \"#utility.yul\":6341:6345   */\n  dup6\n    /* \"#utility.yul\":6296:6362   */\n  tag_30\n  jump\t// in\ntag_106:\n    /* \"#utility.yul\":6389:6390   */\n  0x00\n    /* \"#utility.yul\":6413:6417   */\n  0x20\n    /* \"#utility.yul\":6400:6417   */\n  swap1\n  pop\n    /* \"#utility.yul\":6445:6447   */\n  0x1f\n    /* \"#utility.yul\":6437:6443   */\n  dup4\n    /* \"#utility.yul\":6434:6448   */\n  gt\n    /* \"#utility.yul\":6462:6463   */\n  0x01\n    /* \"#utility.yul\":6457:7074   */\n  dup2\n  eq\n  tag_108\n  jumpi\n    /* \"#utility.yul\":7118:7119   */\n  0x00\n    /* \"#utility.yul\":7135:7141   */\n  dup5\n    /* \"#utility.yul\":7132:7209   */\n  iszero\n  tag_109\n  jumpi\n    /* \"#utility.yul\":7184:7193   */\n  dup3\n    /* \"#utility.yul\":7179:7182   */\n  dup8\n    /* \"#utility.yul\":7175:7194   */\n  add\n    /* \"#utility.yul\":7169:7195   */\n  mload\n    /* \"#utility.yul\":7160:7195   */\n  swap1\n  pop\n    /* \"#utility.yul\":7132:7209   */\ntag_109:\n    /* \"#utility.yul\":7235:7302   */\n  tag_110\n    /* \"#utility.yul\":7295:7301   */\n  dup6\n    /* \"#utility.yul\":7288:7293   */\n  dup3\n    /* \"#utility.yul\":7235:7302   */\n  tag_28\n  jump\t// in\ntag_110:\n    /* \"#utility.yul\":7229:7233   */\n  dup7\n    /* \"#utility.yul\":7222:7303   */\n  sstore\n    /* \"#utility.yul\":7091:7313   */\n  pop\n    /* \"#utility.yul\":6427:7313   */\n  jump(tag_107)\n    /* \"#utility.yul\":6457:7074   */\ntag_108:\n    /* \"#utility.yul\":6509:6513   */\n  0x1f\n    /* \"#utility.yul\":6505:6514   */\n  not\n    /* \"#utility.yul\":6497:6503   */\n  dup5\n    /* \"#utility.yul\":6493:6515   */\n  and\n    /* \"#utility.yul\":6543:6579   */\n  tag_111\n    /* \"#utility.yul\":6574:6578   */\n  dup7\n    /* \"#utility.yul\":6543:6579   */\n  tag_29\n  jump\t// in\ntag_111:\n    /* \"#utility.yul\":6601:6602   */\n  0x00\n    /* \"#utility.yul\":6615:6823   */\ntag_112:\n    /* \"#utility.yul\":6629:6636   */\n  dup3\n    /* \"#utility.yul\":6626:6627   */\n  dup2\n    /* \"#utility.yul\":6623:6637   */\n  lt\n    /* \"#utility.yul\":6615:6823   */\n  iszero\n  tag_114\n  jumpi\n    /* \"#utility.yul\":6708:6717   */\n  dup5\n    /* \"#utility.yul\":6703:6706   */\n  dup10\n    /* \"#utility.yul\":6699:6718   */\n  add\n    /* \"#utility.yul\":6693:6719   */\n  mload\n    /* \"#utility.yul\":6685:6691   */\n  dup3\n    /* \"#utility.yul\":6678:6720   */\n  sstore\n    /* \"#utility.yul\":6759:6760   */\n  0x01\n    /* \"#utility.yul\":6751:6757   */\n  dup3\n    /* \"#utility.yul\":6747:6761   */\n  add\n    /* \"#utility.yul\":6737:6761   */\n  swap2\n  pop\n    /* \"#utility.yul\":6806:6808   */\n  0x20\n    /* \"#utility.yul\":6795:6804   */\n  dup6\n    /* \"#utility.yul\":6791:6809   */\n  add\n    /* \"#utility.yul\":6778:6809   */\n  swap5\n  pop\n    /* \"#utility.yul\":6652:6656   */\n  0x20\n    /* \"#utility.yul\":6649:6650   */\n  dup2\n    /* \"#utility.yul\":6645:6657   */\n  add\n    /* \"#utility.yul\":6640:6657   */\n  swap1\n  pop\n    /* \"#utility.yul\":6615:6823   */\n  jump(tag_112)\ntag_114:\n    /* \"#utility.yul\":6851:6857   */\n  dup7\n    /* \"#utility.yul\":6842:6849   */\n  dup4\n    /* \"#utility.yul\":6839:6858   */\n  lt\n    /* \"#utility.yul\":6836:7015   */\n  iszero\n  tag_115\n  jumpi\n    /* \"#utility.yul\":6909:6918   */\n  dup5\n    /* \"#utility.yul\":6904:6907   */\n  dup10\n    /* \"#utility.yul\":6900:6919   */\n  add\n    /* \"#utility.yul\":6894:6920   */\n  mload\n    /* \"#utility.yul\":6952:7000   */\n  tag_116\n    /* \"#utility.yul\":6994:6998   */\n  0x1f\n    /* \"#utility.yul\":6986:6992   */\n  dup10\n    /* \"#utility.yul\":6982:6999   */\n  and\n    /* \"#utility.yul\":6971:6980   */\n  dup3\n    /* \"#utility.yul\":6952:7000   */\n  tag_27\n  jump\t// in\ntag_116:\n    /* \"#utility.yul\":6944:6950   */\n  dup4\n    /* \"#utility.yul\":6937:7001   */\n  sstore\n    /* \"#utility.yul\":6859:7015   */\n  pop\n    /* \"#utility.yul\":6836:7015   */\ntag_115:\n    /* \"#utility.yul\":7061:7062   */\n  0x01\n    /* \"#utility.yul\":7057:7058   */\n  0x02\n    /* \"#utility.yul\":7049:7055   */\n  dup9\n    /* \"#utility.yul\":7045:7059   */\n  mul\n    /* \"#utility.yul\":7041:7063   */\n  add\n    /* \"#utility.yul\":7035:7039   */\n  dup9\n    /* \"#utility.yul\":7028:7064   */\n  sstore\n    /* \"#utility.yul\":6464:7074   */\n  pop\n  pop\n  pop\n    /* \"#utility.yul\":6427:7313   */\ntag_107:\n  pop\n    /* \"#utility.yul\":6018:7319   */\n  pop\n  pop\n  pop\n    /* \"#utility.yul\":5927:7319   */\n  pop\n  pop\n  jump\t// out\n    /* \"contracts/Message.sol\":83:1479  contract Message {... */\ntag_8:\n  dataSize(sub_0)\n  dup1\n  dataOffset(sub_0)\n  0x00\n  codecopy\n  0x00\n  return\nstop\n\nsub_0: assembly {\n        /* \"contracts/Message.sol\":83:1479  contract Message {... */\n      mstore(0x40, 0x80)\n      callvalue\n      dup1\n      iszero\n      tag_1\n      jumpi\n      0x00\n      dup1\n      revert\n    tag_1:\n      pop\n      jumpi(tag_2, lt(calldatasize, 0x04))\n      shr(0xe0, calldataload(0x00))\n      dup1\n      0x7b86ee25\n      gt\n      tag_14\n      jumpi\n      dup1\n      0x7b86ee25\n      eq\n      tag_8\n      jumpi\n      dup1\n      0x9a166299\n      eq\n      tag_9\n      jumpi\n      dup1\n      0xa6504657\n      eq\n      tag_10\n      jumpi\n      dup1\n      0xa8a7b895\n      eq\n      tag_11\n      jumpi\n      dup1\n      0xb4079cb3\n      eq\n      tag_12\n      jumpi\n      dup1\n      0xce6d41de\n      eq\n      tag_13\n      jumpi\n      jump(tag_2)\n    tag_14:\n      dup1\n      0x03c1e908\n      eq\n      tag_3\n      jumpi\n      dup1\n      0x08e150a7\n      eq\n      tag_4\n      jumpi\n      dup1\n      0x368b8772\n      eq\n      tag_5\n      jumpi\n      dup1\n      0x4fc84791\n      eq\n      tag_6\n      jumpi\n      dup1\n      0x79f21405\n      eq\n      tag_7\n      jumpi\n    tag_2:\n      0x00\n      dup1\n      revert\n        /* \"contracts/Message.sol\":486:584  function getMyAddressBalance() public view returns (uint)  {... */\n    tag_3:\n      tag_15\n      tag_16\n      jump\t// in\n    tag_15:\n      mload(0x40)\n      tag_17\n      swap2\n      swap1\n      tag_18\n      jump\t// in\n    tag_17:\n      mload(0x40)\n      dup1\n      swap2\n      sub\n      swap1\n      return\n        /* \"contracts/Message.sol\":760:861  function getMessageByteLength() public view returns (uint)  {... */\n    tag_4:\n      tag_19\n      tag_20\n      jump\t// in\n    tag_19:\n      mload(0x40)\n      tag_21\n      swap2\n      swap1\n      tag_18\n      jump\t// in\n    tag_21:\n      mload(0x40)\n      dup1\n      swap2\n      sub\n      swap1\n      return\n        /* \"contracts/Message.sol\":1179:1286  function setMessage(string calldata _message) public   {... */\n    tag_5:\n      tag_22\n      0x04\n      dup1\n      calldatasize\n      sub\n      dup2\n      add\n      swap1\n      tag_23\n      swap2\n      swap1\n      tag_24\n      jump\t// in\n    tag_23:\n      tag_25\n      jump\t// in\n    tag_22:\n      stop\n        /* \"contracts/Message.sol\":295:336  address public senderAddress = msg.sender */\n    tag_6:\n      tag_26\n      tag_27\n      jump\t// in\n    tag_26:\n      mload(0x40)\n      tag_28\n      swap2\n      swap1\n      tag_29\n      jump\t// in\n    tag_28:\n      mload(0x40)\n      dup1\n      swap2\n      sub\n      swap1\n      return\n        /* \"contracts/Message.sol\":1292:1368  function getMyInt() public view returns (uint)  {... */\n    tag_7:\n      tag_30\n      tag_31\n      jump\t// in\n    tag_30:\n      mload(0x40)\n      tag_32\n      swap2\n      swap1\n      tag_18\n      jump\t// in\n    tag_32:\n      mload(0x40)\n      dup1\n      swap2\n      sub\n      swap1\n      return\n        /* \"contracts/Message.sol\":683:754  function getGro() pure public returns (bool) {... */\n    tag_8:\n      tag_33\n      tag_34\n      jump\t// in\n    tag_33:\n      mload(0x40)\n      tag_35\n      swap2\n      swap1\n      tag_36\n      jump\t// in\n    tag_35:\n      mload(0x40)\n      dup1\n      swap2\n      sub\n      swap1\n      return\n        /* \"contracts/Message.sol\":394:480  function getMyAddress() public view returns (address)  {... */\n    tag_9:\n      tag_37\n      tag_38\n      jump\t// in\n    tag_37:\n      mload(0x40)\n      tag_39\n      swap2\n      swap1\n      tag_29\n      jump\t// in\n    tag_39:\n      mload(0x40)\n      dup1\n      swap2\n      sub\n      swap1\n      return\n        /* \"contracts/Message.sol\":1374:1477  function setMyInt(uint _myInt) public   {... */\n    tag_10:\n      tag_40\n      0x04\n      dup1\n      calldatasize\n      sub\n      dup2\n      add\n      swap1\n      tag_41\n      swap2\n      swap1\n      tag_42\n      jump\t// in\n    tag_41:\n      tag_43\n      jump\t// in\n    tag_40:\n      stop\n        /* \"contracts/Message.sol\":590:677  function setMyAddress(address _myAddress) public  {... */\n    tag_11:\n      tag_44\n      0x04\n      dup1\n      calldatasize\n      sub\n      dup2\n      add\n      swap1\n      tag_45\n      swap2\n      swap1\n      tag_46\n      jump\t// in\n    tag_45:\n      tag_47\n      jump\t// in\n    tag_44:\n      stop\n        /* \"contracts/Message.sol\":996:1164  function equalsString(string memory alice) public view returns (bool)  {... */\n    tag_12:\n      tag_48\n      0x04\n      dup1\n      calldatasize\n      sub\n      dup2\n      add\n      swap1\n      tag_49\n      swap2\n      swap1\n      tag_50\n      jump\t// in\n    tag_49:\n      tag_51\n      jump\t// in\n    tag_48:\n      mload(0x40)\n      tag_52\n      swap2\n      swap1\n      tag_36\n      jump\t// in\n    tag_52:\n      mload(0x40)\n      dup1\n      swap2\n      sub\n      swap1\n      return\n        /* \"contracts/Message.sol\":867:954  function getMessage() public view returns (string memory) {... */\n    tag_13:\n      tag_53\n      tag_54\n      jump\t// in\n    tag_53:\n      mload(0x40)\n      tag_55\n      swap2\n      swap1\n      tag_56\n      jump\t// in\n    tag_55:\n      mload(0x40)\n      dup1\n      swap2\n      sub\n      swap1\n      return\n        /* \"contracts/Message.sol\":486:584  function getMyAddressBalance() public view returns (uint)  {... */\n    tag_16:\n        /* \"contracts/Message.sol\":538:542  uint */\n      0x00\n        /* \"contracts/Message.sol\":560:569  myAddress */\n      0x04\n      0x00\n      swap1\n      sload\n      swap1\n      0x0100\n      exp\n      swap1\n      div\n      0xffffffffffffffffffffffffffffffffffffffff\n      and\n        /* \"contracts/Message.sol\":560:577  myAddress.balance */\n      0xffffffffffffffffffffffffffffffffffffffff\n      and\n      balance\n        /* \"contracts/Message.sol\":553:577  return myAddress.balance */\n      swap1\n      pop\n        /* \"contracts/Message.sol\":486:584  function getMyAddressBalance() public view returns (uint)  {... */\n      swap1\n      jump\t// out\n        /* \"contracts/Message.sol\":760:861  function getMessageByteLength() public view returns (uint)  {... */\n    tag_20:\n        /* \"contracts/Message.sol\":813:817  uint */\n      0x00\n        /* \"contracts/Message.sol\":836:847  messageByte */\n      0x01\n        /* \"contracts/Message.sol\":836:854  messageByte.length */\n      dup1\n      sload\n      tag_59\n      swap1\n      tag_60\n      jump\t// in\n    tag_59:\n      swap1\n      pop\n        /* \"contracts/Message.sol\":829:854  return messageByte.length */\n      swap1\n      pop\n        /* \"contracts/Message.sol\":760:861  function getMessageByteLength() public view returns (uint)  {... */\n      swap1\n      jump\t// out\n        /* \"contracts/Message.sol\":1179:1286  function setMessage(string calldata _message) public   {... */\n    tag_25:\n        /* \"contracts/Message.sol\":1252:1260  _message */\n      dup2\n      dup2\n        /* \"contracts/Message.sol\":1242:1249  message */\n      0x00\n        /* \"contracts/Message.sol\":1242:1260  message = _message */\n      swap2\n      dup3\n      tag_62\n      swap3\n      swap2\n      swap1\n      tag_63\n      jump\t// in\n    tag_62:\n      pop\n        /* \"contracts/Message.sol\":1276:1279  gro */\n      0x02\n      0x00\n      swap1\n      sload\n      swap1\n      0x0100\n      exp\n      swap1\n      div\n      0xff\n      and\n        /* \"contracts/Message.sol\":1275:1279  !gro */\n      iszero\n        /* \"contracts/Message.sol\":1269:1272  gro */\n      0x02\n      0x00\n        /* \"contracts/Message.sol\":1269:1279  gro = !gro */\n      0x0100\n      exp\n      dup2\n      sload\n      dup2\n      0xff\n      mul\n      not\n      and\n      swap1\n      dup4\n      iszero\n      iszero\n      mul\n      or\n      swap1\n      sstore\n      pop\n        /* \"contracts/Message.sol\":1179:1286  function setMessage(string calldata _message) public   {... */\n      pop\n      pop\n      jump\t// out\n        /* \"contracts/Message.sol\":295:336  address public senderAddress = msg.sender */\n    tag_27:\n      0x05\n      0x00\n      swap1\n      sload\n      swap1\n      0x0100\n      exp\n      swap1\n      div\n      0xffffffffffffffffffffffffffffffffffffffff\n      and\n      dup2\n      jump\t// out\n        /* \"contracts/Message.sol\":1292:1368  function getMyInt() public view returns (uint)  {... */\n    tag_31:\n        /* \"contracts/Message.sol\":1333:1337  uint */\n      0x00\n        /* \"contracts/Message.sol\":1356:1361  myInt */\n      sload(0x03)\n        /* \"contracts/Message.sol\":1349:1361  return myInt */\n      swap1\n      pop\n        /* \"contracts/Message.sol\":1292:1368  function getMyInt() public view returns (uint)  {... */\n      swap1\n      jump\t// out\n        /* \"contracts/Message.sol\":683:754  function getGro() pure public returns (bool) {... */\n    tag_34:\n        /* \"contracts/Message.sol\":722:726  bool */\n      0x00\n        /* \"contracts/Message.sol\":743:747  true */\n      0x01\n        /* \"contracts/Message.sol\":736:747  return true */\n      swap1\n      pop\n        /* \"contracts/Message.sol\":683:754  function getGro() pure public returns (bool) {... */\n      swap1\n      jump\t// out\n        /* \"contracts/Message.sol\":394:480  function getMyAddress() public view returns (address)  {... */\n    tag_38:\n        /* \"contracts/Message.sol\":439:446  address */\n      0x00\n        /* \"contracts/Message.sol\":464:473  myAddress */\n      0x04\n      0x00\n      swap1\n      sload\n      swap1\n      0x0100\n      exp\n      swap1\n      div\n      0xffffffffffffffffffffffffffffffffffffffff\n      and\n        /* \"contracts/Message.sol\":457:473  return myAddress */\n      swap1\n      pop\n        /* \"contracts/Message.sol\":394:480  function getMyAddress() public view returns (address)  {... */\n      swap1\n      jump\t// out\n        /* \"contracts/Message.sol\":1374:1477  function setMyInt(uint _myInt) public   {... */\n    tag_43:\n        /* \"contracts/Message.sol\":1441:1444  100 */\n      0x64\n        /* \"contracts/Message.sol\":1432:1438  _myInt */\n      dup2\n        /* \"contracts/Message.sol\":1432:1444  _myInt < 100 */\n      lt\n        /* \"contracts/Message.sol\":1424:1445  require(_myInt < 100) */\n      tag_68\n      jumpi\n      0x00\n      dup1\n      revert\n    tag_68:\n        /* \"contracts/Message.sol\":1463:1469  _myInt */\n      dup1\n        /* \"contracts/Message.sol\":1455:1460  myInt */\n      0x03\n        /* \"contracts/Message.sol\":1455:1469  myInt = _myInt */\n      dup2\n      swap1\n      sstore\n      pop\n        /* \"contracts/Message.sol\":1374:1477  function setMyInt(uint _myInt) public   {... */\n      pop\n      jump\t// out\n        /* \"contracts/Message.sol\":590:677  function setMyAddress(address _myAddress) public  {... */\n    tag_47:\n        /* \"contracts/Message.sol\":660:670  _myAddress */\n      dup1\n        /* \"contracts/Message.sol\":648:657  myAddress */\n      0x04\n      0x00\n        /* \"contracts/Message.sol\":648:670  myAddress = _myAddress */\n      0x0100\n      exp\n      dup2\n      sload\n      dup2\n      0xffffffffffffffffffffffffffffffffffffffff\n      mul\n      not\n      and\n      swap1\n      dup4\n      0xffffffffffffffffffffffffffffffffffffffff\n      and\n      mul\n      or\n      swap1\n      sstore\n      pop\n        /* \"contracts/Message.sol\":590:677  function setMyAddress(address _myAddress) public  {... */\n      pop\n      jump\t// out\n        /* \"contracts/Message.sol\":996:1164  function equalsString(string memory alice) public view returns (bool)  {... */\n    tag_51:\n        /* \"contracts/Message.sol\":1060:1064  bool */\n      0x00\n        /* \"contracts/Message.sol\":1150:1155  alice */\n      dup2\n        /* \"contracts/Message.sol\":1133:1156  abi.encodePacked(alice) */\n      add(0x20, mload(0x40))\n      tag_71\n      swap2\n      swap1\n      tag_72\n      jump\t// in\n    tag_71:\n      mload(0x40)\n      0x20\n      dup2\n      dup4\n      sub\n      sub\n      dup2\n      mstore\n      swap1\n      0x40\n      mstore\n        /* \"contracts/Message.sol\":1123:1157  keccak256(abi.encodePacked(alice)) */\n      dup1\n      mload\n      swap1\n      0x20\n      add\n      keccak256\n        /* \"contracts/Message.sol\":1110:1117  message */\n      0x00\n        /* \"contracts/Message.sol\":1093:1118  abi.encodePacked(message) */\n      add(0x20, mload(0x40))\n      tag_73\n      swap2\n      swap1\n      tag_74\n      jump\t// in\n    tag_73:\n      mload(0x40)\n      0x20\n      dup2\n      dup4\n      sub\n      sub\n      dup2\n      mstore\n      swap1\n      0x40\n      mstore\n        /* \"contracts/Message.sol\":1083:1119  keccak256(abi.encodePacked(message)) */\n      dup1\n      mload\n      swap1\n      0x20\n      add\n      keccak256\n        /* \"contracts/Message.sol\":1083:1157  keccak256(abi.encodePacked(message)) == keccak256(abi.encodePacked(alice)) */\n      eq\n        /* \"contracts/Message.sol\":1076:1157  return keccak256(abi.encodePacked(message)) == keccak256(abi.encodePacked(alice)) */\n      swap1\n      pop\n        /* \"contracts/Message.sol\":996:1164  function equalsString(string memory alice) public view returns (bool)  {... */\n      swap2\n      swap1\n      pop\n      jump\t// out\n        /* \"contracts/Message.sol\":867:954  function getMessage() public view returns (string memory) {... */\n    tag_54:\n        /* \"contracts/Message.sol\":910:923  string memory */\n      0x60\n        /* \"contracts/Message.sol\":940:947  message */\n      0x00\n        /* \"contracts/Message.sol\":933:947  return message */\n      dup1\n      sload\n      tag_76\n      swap1\n      tag_60\n      jump\t// in\n    tag_76:\n      dup1\n      0x1f\n      add\n      0x20\n      dup1\n      swap2\n      div\n      mul\n      0x20\n      add\n      mload(0x40)\n      swap1\n      dup2\n      add\n      0x40\n      mstore\n      dup1\n      swap3\n      swap2\n      swap1\n      dup2\n      dup2\n      mstore\n      0x20\n      add\n      dup3\n      dup1\n      sload\n      tag_77\n      swap1\n      tag_60\n      jump\t// in\n    tag_77:\n      dup1\n      iszero\n      tag_78\n      jumpi\n      dup1\n      0x1f\n      lt\n      tag_79\n      jumpi\n      0x0100\n      dup1\n      dup4\n      sload\n      div\n      mul\n      dup4\n      mstore\n      swap2\n      0x20\n      add\n      swap2\n      jump(tag_78)\n    tag_79:\n      dup3\n      add\n      swap2\n      swap1\n      0x00\n      mstore\n      keccak256(0x00, 0x20)\n      swap1\n    tag_80:\n      dup2\n      sload\n      dup2\n      mstore\n      swap1\n      0x01\n      add\n      swap1\n      0x20\n      add\n      dup1\n      dup4\n      gt\n      tag_80\n      jumpi\n      dup3\n      swap1\n      sub\n      0x1f\n      and\n      dup3\n      add\n      swap2\n    tag_78:\n      pop\n      pop\n      pop\n      pop\n      pop\n      swap1\n      pop\n        /* \"contracts/Message.sol\":867:954  function getMessage() public view returns (string memory) {... */\n      swap1\n      jump\t// out\n        /* \"#utility.yul\":7:84   */\n    tag_81:\n        /* \"#utility.yul\":44:51   */\n      0x00\n        /* \"#utility.yul\":73:78   */\n      dup2\n        /* \"#utility.yul\":62:78   */\n      swap1\n      pop\n        /* \"#utility.yul\":7:84   */\n      swap2\n      swap1\n      pop\n      jump\t// out\n        /* \"#utility.yul\":90:208   */\n    tag_82:\n        /* \"#utility.yul\":177:201   */\n      tag_135\n        /* \"#utility.yul\":195:200   */\n      dup2\n        /* \"#utility.yul\":177:201   */\n      tag_81\n      jump\t// in\n    tag_135:\n        /* \"#utility.yul\":172:175   */\n      dup3\n        /* \"#utility.yul\":165:202   */\n      mstore\n        /* \"#utility.yul\":90:208   */\n      pop\n      pop\n      jump\t// out\n        /* \"#utility.yul\":214:436   */\n    tag_18:\n        /* \"#utility.yul\":307:311   */\n      0x00\n        /* \"#utility.yul\":345:347   */\n      0x20\n        /* \"#utility.yul\":334:343   */\n      dup3\n        /* \"#utility.yul\":330:348   */\n      add\n        /* \"#utility.yul\":322:348   */\n      swap1\n      pop\n        /* \"#utility.yul\":358:429   */\n      tag_137\n        /* \"#utility.yul\":426:427   */\n      0x00\n        /* \"#utility.yul\":415:424   */\n      dup4\n        /* \"#utility.yul\":411:428   */\n      add\n        /* \"#utility.yul\":402:408   */\n      dup5\n        /* \"#utility.yul\":358:429   */\n      tag_82\n      jump\t// in\n    tag_137:\n        /* \"#utility.yul\":214:436   */\n      swap3\n      swap2\n      pop\n      pop\n      jump\t// out\n        /* \"#utility.yul\":442:517   */\n    tag_83:\n        /* \"#utility.yul\":475:481   */\n      0x00\n        /* \"#utility.yul\":508:510   */\n      0x40\n        /* \"#utility.yul\":502:511   */\n      mload\n        /* \"#utility.yul\":492:511   */\n      swap1\n      pop\n        /* \"#utility.yul\":442:517   */\n      swap1\n      jump\t// out\n        /* \"#utility.yul\":523:640   */\n    tag_84:\n        /* \"#utility.yul\":632:633   */\n      0x00\n        /* \"#utility.yul\":629:630   */\n      dup1\n        /* \"#utility.yul\":622:634   */\n      revert\n        /* \"#utility.yul\":646:763   */\n    tag_85:\n        /* \"#utility.yul\":755:756   */\n      0x00\n        /* \"#utility.yul\":752:753   */\n      dup1\n        /* \"#utility.yul\":745:757   */\n      revert\n        /* \"#utility.yul\":769:886   */\n    tag_86:\n        /* \"#utility.yul\":878:879   */\n      0x00\n        /* \"#utility.yul\":875:876   */\n      dup1\n        /* \"#utility.yul\":868:880   */\n      revert\n        /* \"#utility.yul\":892:1009   */\n    tag_87:\n        /* \"#utility.yul\":1001:1002   */\n      0x00\n        /* \"#utility.yul\":998:999   */\n      dup1\n        /* \"#utility.yul\":991:1003   */\n      revert\n        /* \"#utility.yul\":1015:1132   */\n    tag_88:\n        /* \"#utility.yul\":1124:1125   */\n      0x00\n        /* \"#utility.yul\":1121:1122   */\n      dup1\n        /* \"#utility.yul\":1114:1126   */\n      revert\n        /* \"#utility.yul\":1152:1705   */\n    tag_89:\n        /* \"#utility.yul\":1210:1218   */\n      0x00\n        /* \"#utility.yul\":1220:1226   */\n      dup1\n        /* \"#utility.yul\":1270:1273   */\n      dup4\n        /* \"#utility.yul\":1263:1267   */\n      0x1f\n        /* \"#utility.yul\":1255:1261   */\n      dup5\n        /* \"#utility.yul\":1251:1268   */\n      add\n        /* \"#utility.yul\":1247:1274   */\n      slt\n        /* \"#utility.yul\":1237:1359   */\n      tag_145\n      jumpi\n        /* \"#utility.yul\":1278:1357   */\n      tag_146\n      tag_86\n      jump\t// in\n    tag_146:\n        /* \"#utility.yul\":1237:1359   */\n    tag_145:\n        /* \"#utility.yul\":1391:1397   */\n      dup3\n        /* \"#utility.yul\":1378:1398   */\n      calldataload\n        /* \"#utility.yul\":1368:1398   */\n      swap1\n      pop\n        /* \"#utility.yul\":1421:1439   */\n      0xffffffffffffffff\n        /* \"#utility.yul\":1413:1419   */\n      dup2\n        /* \"#utility.yul\":1410:1440   */\n      gt\n        /* \"#utility.yul\":1407:1524   */\n      iszero\n      tag_147\n      jumpi\n        /* \"#utility.yul\":1443:1522   */\n      tag_148\n      tag_87\n      jump\t// in\n    tag_148:\n        /* \"#utility.yul\":1407:1524   */\n    tag_147:\n        /* \"#utility.yul\":1557:1561   */\n      0x20\n        /* \"#utility.yul\":1549:1555   */\n      dup4\n        /* \"#utility.yul\":1545:1562   */\n      add\n        /* \"#utility.yul\":1533:1562   */\n      swap2\n      pop\n        /* \"#utility.yul\":1611:1614   */\n      dup4\n        /* \"#utility.yul\":1603:1607   */\n      0x01\n        /* \"#utility.yul\":1595:1601   */\n      dup3\n        /* \"#utility.yul\":1591:1608   */\n      mul\n        /* \"#utility.yul\":1581:1589   */\n      dup4\n        /* \"#utility.yul\":1577:1609   */\n      add\n        /* \"#utility.yul\":1574:1615   */\n      gt\n        /* \"#utility.yul\":1571:1699   */\n      iszero\n      tag_149\n      jumpi\n        /* \"#utility.yul\":1618:1697   */\n      tag_150\n      tag_88\n      jump\t// in\n    tag_150:\n        /* \"#utility.yul\":1571:1699   */\n    tag_149:\n        /* \"#utility.yul\":1152:1705   */\n      swap3\n      pop\n      swap3\n      swap1\n      pop\n      jump\t// out\n        /* \"#utility.yul\":1711:2240   */\n    tag_24:\n        /* \"#utility.yul\":1782:1788   */\n      0x00\n        /* \"#utility.yul\":1790:1796   */\n      dup1\n        /* \"#utility.yul\":1839:1841   */\n      0x20\n        /* \"#utility.yul\":1827:1836   */\n      dup4\n        /* \"#utility.yul\":1818:1825   */\n      dup6\n        /* \"#utility.yul\":1814:1837   */\n      sub\n        /* \"#utility.yul\":1810:1842   */\n      slt\n        /* \"#utility.yul\":1807:1926   */\n      iszero\n      tag_152\n      jumpi\n        /* \"#utility.yul\":1845:1924   */\n      tag_153\n      tag_84\n      jump\t// in\n    tag_153:\n        /* \"#utility.yul\":1807:1926   */\n    tag_152:\n        /* \"#utility.yul\":1993:1994   */\n      0x00\n        /* \"#utility.yul\":1982:1991   */\n      dup4\n        /* \"#utility.yul\":1978:1995   */\n      add\n        /* \"#utility.yul\":1965:1996   */\n      calldataload\n        /* \"#utility.yul\":2023:2041   */\n      0xffffffffffffffff\n        /* \"#utility.yul\":2015:2021   */\n      dup2\n        /* \"#utility.yul\":2012:2042   */\n      gt\n        /* \"#utility.yul\":2009:2126   */\n      iszero\n      tag_154\n      jumpi\n        /* \"#utility.yul\":2045:2124   */\n      tag_155\n      tag_85\n      jump\t// in\n    tag_155:\n        /* \"#utility.yul\":2009:2126   */\n    tag_154:\n        /* \"#utility.yul\":2158:2223   */\n      tag_156\n        /* \"#utility.yul\":2215:2222   */\n      dup6\n        /* \"#utility.yul\":2206:2212   */\n      dup3\n        /* \"#utility.yul\":2195:2204   */\n      dup7\n        /* \"#utility.yul\":2191:2213   */\n      add\n        /* \"#utility.yul\":2158:2223   */\n      tag_89\n      jump\t// in\n    tag_156:\n        /* \"#utility.yul\":2140:2223   */\n      swap3\n      pop\n      swap3\n      pop\n        /* \"#utility.yul\":1936:2233   */\n      pop\n        /* \"#utility.yul\":1711:2240   */\n      swap3\n      pop\n      swap3\n      swap1\n      pop\n      jump\t// out\n        /* \"#utility.yul\":2246:2372   */\n    tag_90:\n        /* \"#utility.yul\":2283:2290   */\n      0x00\n        /* \"#utility.yul\":2323:2365   */\n      0xffffffffffffffffffffffffffffffffffffffff\n        /* \"#utility.yul\":2316:2321   */\n      dup3\n        /* \"#utility.yul\":2312:2366   */\n      and\n        /* \"#utility.yul\":2301:2366   */\n      swap1\n      pop\n        /* \"#utility.yul\":2246:2372   */\n      swap2\n      swap1\n      pop\n      jump\t// out\n        /* \"#utility.yul\":2378:2474   */\n    tag_91:\n        /* \"#utility.yul\":2415:2422   */\n      0x00\n        /* \"#utility.yul\":2444:2468   */\n      tag_159\n        /* \"#utility.yul\":2462:2467   */\n      dup3\n        /* \"#utility.yul\":2444:2468   */\n      tag_90\n      jump\t// in\n    tag_159:\n        /* \"#utility.yul\":2433:2468   */\n      swap1\n      pop\n        /* \"#utility.yul\":2378:2474   */\n      swap2\n      swap1\n      pop\n      jump\t// out\n        /* \"#utility.yul\":2480:2598   */\n    tag_92:\n        /* \"#utility.yul\":2567:2591   */\n      tag_161\n        /* \"#utility.yul\":2585:2590   */\n      dup2\n        /* \"#utility.yul\":2567:2591   */\n      tag_91\n      jump\t// in\n    tag_161:\n        /* \"#utility.yul\":2562:2565   */\n      dup3\n        /* \"#utility.yul\":2555:2592   */\n      mstore\n        /* \"#utility.yul\":2480:2598   */\n      pop\n      pop\n      jump\t// out\n        /* \"#utility.yul\":2604:2826   */\n    tag_29:\n        /* \"#utility.yul\":2697:2701   */\n      0x00\n        /* \"#utility.yul\":2735:2737   */\n      0x20\n        /* \"#utility.yul\":2724:2733   */\n      dup3\n        /* \"#utility.yul\":2720:2738   */\n      add\n        /* \"#utility.yul\":2712:2738   */\n      swap1\n      pop\n        /* \"#utility.yul\":2748:2819   */\n      tag_163\n        /* \"#utility.yul\":2816:2817   */\n      0x00\n        /* \"#utility.yul\":2805:2814   */\n      dup4\n        /* \"#utility.yul\":2801:2818   */\n      add\n        /* \"#utility.yul\":2792:2798   */\n      dup5\n        /* \"#utility.yul\":2748:2819   */\n      tag_92\n      jump\t// in\n    tag_163:\n        /* \"#utility.yul\":2604:2826   */\n      swap3\n      swap2\n      pop\n      pop\n      jump\t// out\n        /* \"#utility.yul\":2832:2922   */\n    tag_93:\n        /* \"#utility.yul\":2866:2873   */\n      0x00\n        /* \"#utility.yul\":2909:2914   */\n      dup2\n        /* \"#utility.yul\":2902:2915   */\n      iszero\n        /* \"#utility.yul\":2895:2916   */\n      iszero\n        /* \"#utility.yul\":2884:2916   */\n      swap1\n      pop\n        /* \"#utility.yul\":2832:2922   */\n      swap2\n      swap1\n      pop\n      jump\t// out\n        /* \"#utility.yul\":2928:3037   */\n    tag_94:\n        /* \"#utility.yul\":3009:3030   */\n      tag_166\n        /* \"#utility.yul\":3024:3029   */\n      dup2\n        /* \"#utility.yul\":3009:3030   */\n      tag_93\n      jump\t// in\n    tag_166:\n        /* \"#utility.yul\":3004:3007   */\n      dup3\n        /* \"#utility.yul\":2997:3031   */\n      mstore\n        /* \"#utility.yul\":2928:3037   */\n      pop\n      pop\n      jump\t// out\n        /* \"#utility.yul\":3043:3253   */\n    tag_36:\n        /* \"#utility.yul\":3130:3134   */\n      0x00\n        /* \"#utility.yul\":3168:3170   */\n      0x20\n        /* \"#utility.yul\":3157:3166   */\n      dup3\n        /* \"#utility.yul\":3153:3171   */\n      add\n        /* \"#utility.yul\":3145:3171   */\n      swap1\n      pop\n        /* \"#utility.yul\":3181:3246   */\n      tag_168\n        /* \"#utility.yul\":3243:3244   */\n      0x00\n        /* \"#utility.yul\":3232:3241   */\n      dup4\n        /* \"#utility.yul\":3228:3245   */\n      add\n        /* \"#utility.yul\":3219:3225   */\n      dup5\n        /* \"#utility.yul\":3181:3246   */\n      tag_94\n      jump\t// in\n    tag_168:\n        /* \"#utility.yul\":3043:3253   */\n      swap3\n      swap2\n      pop\n      pop\n      jump\t// out\n        /* \"#utility.yul\":3259:3381   */\n    tag_95:\n        /* \"#utility.yul\":3332:3356   */\n      tag_170\n        /* \"#utility.yul\":3350:3355   */\n      dup2\n        /* \"#utility.yul\":3332:3356   */\n      tag_81\n      jump\t// in\n    tag_170:\n        /* \"#utility.yul\":3325:3330   */\n      dup2\n        /* \"#utility.yul\":3322:3357   */\n      eq\n        /* \"#utility.yul\":3312:3375   */\n      tag_171\n      jumpi\n        /* \"#utility.yul\":3371:3372   */\n      0x00\n        /* \"#utility.yul\":3368:3369   */\n      dup1\n        /* \"#utility.yul\":3361:3373   */\n      revert\n        /* \"#utility.yul\":3312:3375   */\n    tag_171:\n        /* \"#utility.yul\":3259:3381   */\n      pop\n      jump\t// out\n        /* \"#utility.yul\":3387:3526   */\n    tag_96:\n        /* \"#utility.yul\":3433:3438   */\n      0x00\n        /* \"#utility.yul\":3471:3477   */\n      dup2\n        /* \"#utility.yul\":3458:3478   */\n      calldataload\n        /* \"#utility.yul\":3449:3478   */\n      swap1\n      pop\n        /* \"#utility.yul\":3487:3520   */\n      tag_173\n        /* \"#utility.yul\":3514:3519   */\n      dup2\n        /* \"#utility.yul\":3487:3520   */\n      tag_95\n      jump\t// in\n    tag_173:\n        /* \"#utility.yul\":3387:3526   */\n      swap3\n      swap2\n      pop\n      pop\n      jump\t// out\n        /* \"#utility.yul\":3532:3861   */\n    tag_42:\n        /* \"#utility.yul\":3591:3597   */\n      0x00\n        /* \"#utility.yul\":3640:3642   */\n      0x20\n        /* \"#utility.yul\":3628:3637   */\n      dup3\n        /* \"#utility.yul\":3619:3626   */\n      dup5\n        /* \"#utility.yul\":3615:3638   */\n      sub\n        /* \"#utility.yul\":3611:3643   */\n      slt\n        /* \"#utility.yul\":3608:3727   */\n      iszero\n      tag_175\n      jumpi\n        /* \"#utility.yul\":3646:3725   */\n      tag_176\n      tag_84\n      jump\t// in\n    tag_176:\n        /* \"#utility.yul\":3608:3727   */\n    tag_175:\n        /* \"#utility.yul\":3766:3767   */\n      0x00\n        /* \"#utility.yul\":3791:3844   */\n      tag_177\n        /* \"#utility.yul\":3836:3843   */\n      dup5\n        /* \"#utility.yul\":3827:3833   */\n      dup3\n        /* \"#utility.yul\":3816:3825   */\n      dup6\n        /* \"#utility.yul\":3812:3834   */\n      add\n        /* \"#utility.yul\":3791:3844   */\n      tag_96\n      jump\t// in\n    tag_177:\n        /* \"#utility.yul\":3781:3844   */\n      swap2\n      pop\n        /* \"#utility.yul\":3737:3854   */\n      pop\n        /* \"#utility.yul\":3532:3861   */\n      swap3\n      swap2\n      pop\n      pop\n      jump\t// out\n        /* \"#utility.yul\":3867:3989   */\n    tag_97:\n        /* \"#utility.yul\":3940:3964   */\n      tag_179\n        /* \"#utility.yul\":3958:3963   */\n      dup2\n        /* \"#utility.yul\":3940:3964   */\n      tag_91\n      jump\t// in\n    tag_179:\n        /* \"#utility.yul\":3933:3938   */\n      dup2\n        /* \"#utility.yul\":3930:3965   */\n      eq\n        /* \"#utility.yul\":3920:3983   */\n      tag_180\n      jumpi\n        /* \"#utility.yul\":3979:3980   */\n      0x00\n        /* \"#utility.yul\":3976:3977   */\n      dup1\n        /* \"#utility.yul\":3969:3981   */\n      revert\n        /* \"#utility.yul\":3920:3983   */\n    tag_180:\n        /* \"#utility.yul\":3867:3989   */\n      pop\n      jump\t// out\n        /* \"#utility.yul\":3995:4134   */\n    tag_98:\n        /* \"#utility.yul\":4041:4046   */\n      0x00\n        /* \"#utility.yul\":4079:4085   */\n      dup2\n        /* \"#utility.yul\":4066:4086   */\n      calldataload\n        /* \"#utility.yul\":4057:4086   */\n      swap1\n      pop\n        /* \"#utility.yul\":4095:4128   */\n      tag_182\n        /* \"#utility.yul\":4122:4127   */\n      dup2\n        /* \"#utility.yul\":4095:4128   */\n      tag_97\n      jump\t// in\n    tag_182:\n        /* \"#utility.yul\":3995:4134   */\n      swap3\n      swap2\n      pop\n      pop\n      jump\t// out\n        /* \"#utility.yul\":4140:4469   */\n    tag_46:\n        /* \"#utility.yul\":4199:4205   */\n      0x00\n        /* \"#utility.yul\":4248:4250   */\n      0x20\n        /* \"#utility.yul\":4236:4245   */\n      dup3\n        /* \"#utility.yul\":4227:4234   */\n      dup5\n        /* \"#utility.yul\":4223:4246   */\n      sub\n        /* \"#utility.yul\":4219:4251   */\n      slt\n        /* \"#utility.yul\":4216:4335   */\n      iszero\n      tag_184\n      jumpi\n        /* \"#utility.yul\":4254:4333   */\n      tag_185\n      tag_84\n      jump\t// in\n    tag_185:\n        /* \"#utility.yul\":4216:4335   */\n    tag_184:\n        /* \"#utility.yul\":4374:4375   */\n      0x00\n        /* \"#utility.yul\":4399:4452   */\n      tag_186\n        /* \"#utility.yul\":4444:4451   */\n      dup5\n        /* \"#utility.yul\":4435:4441   */\n      dup3\n        /* \"#utility.yul\":4424:4433   */\n      dup6\n        /* \"#utility.yul\":4420:4442   */\n      add\n        /* \"#utility.yul\":4399:4452   */\n      tag_98\n      jump\t// in\n    tag_186:\n        /* \"#utility.yul\":4389:4452   */\n      swap2\n      pop\n        /* \"#utility.yul\":4345:4462   */\n      pop\n        /* \"#utility.yul\":4140:4469   */\n      swap3\n      swap2\n      pop\n      pop\n      jump\t// out\n        /* \"#utility.yul\":4475:4592   */\n    tag_99:\n        /* \"#utility.yul\":4584:4585   */\n      0x00\n        /* \"#utility.yul\":4581:4582   */\n      dup1\n        /* \"#utility.yul\":4574:4586   */\n      revert\n        /* \"#utility.yul\":4598:4700   */\n    tag_100:\n        /* \"#utility.yul\":4639:4645   */\n      0x00\n        /* \"#utility.yul\":4690:4692   */\n      0x1f\n        /* \"#utility.yul\":4686:4693   */\n      not\n        /* \"#utility.yul\":4681:4683   */\n      0x1f\n        /* \"#utility.yul\":4674:4679   */\n      dup4\n        /* \"#utility.yul\":4670:4684   */\n      add\n        /* \"#utility.yul\":4666:4694   */\n      and\n        /* \"#utility.yul\":4656:4694   */\n      swap1\n      pop\n        /* \"#utility.yul\":4598:4700   */\n      swap2\n      swap1\n      pop\n      jump\t// out\n        /* \"#utility.yul\":4706:4886   */\n    tag_101:\n        /* \"#utility.yul\":4754:4831   */\n      0x4e487b7100000000000000000000000000000000000000000000000000000000\n        /* \"#utility.yul\":4751:4752   */\n      0x00\n        /* \"#utility.yul\":4744:4832   */\n      mstore\n        /* \"#utility.yul\":4851:4855   */\n      0x41\n        /* \"#utility.yul\":4848:4849   */\n      0x04\n        /* \"#utility.yul\":4841:4856   */\n      mstore\n        /* \"#utility.yul\":4875:4879   */\n      0x24\n        /* \"#utility.yul\":4872:4873   */\n      0x00\n        /* \"#utility.yul\":4865:4880   */\n      revert\n        /* \"#utility.yul\":4892:5173   */\n    tag_102:\n        /* \"#utility.yul\":4975:5002   */\n      tag_191\n        /* \"#utility.yul\":4997:5001   */\n      dup3\n        /* \"#utility.yul\":4975:5002   */\n      tag_100\n      jump\t// in\n    tag_191:\n        /* \"#utility.yul\":4967:4973   */\n      dup2\n        /* \"#utility.yul\":4963:5003   */\n      add\n        /* \"#utility.yul\":5105:5111   */\n      dup2\n        /* \"#utility.yul\":5093:5103   */\n      dup2\n        /* \"#utility.yul\":5090:5112   */\n      lt\n        /* \"#utility.yul\":5069:5087   */\n      0xffffffffffffffff\n        /* \"#utility.yul\":5057:5067   */\n      dup3\n        /* \"#utility.yul\":5054:5088   */\n      gt\n        /* \"#utility.yul\":5051:5113   */\n      or\n        /* \"#utility.yul\":5048:5136   */\n      iszero\n      tag_192\n      jumpi\n        /* \"#utility.yul\":5116:5134   */\n      tag_193\n      tag_101\n      jump\t// in\n    tag_193:\n        /* \"#utility.yul\":5048:5136   */\n    tag_192:\n        /* \"#utility.yul\":5156:5166   */\n      dup1\n        /* \"#utility.yul\":5152:5154   */\n      0x40\n        /* \"#utility.yul\":5145:5167   */\n      mstore\n        /* \"#utility.yul\":4935:5173   */\n      pop\n        /* \"#utility.yul\":4892:5173   */\n      pop\n      pop\n      jump\t// out\n        /* \"#utility.yul\":5179:5308   */\n    tag_103:\n        /* \"#utility.yul\":5213:5219   */\n      0x00\n        /* \"#utility.yul\":5240:5260   */\n      tag_195\n      tag_83\n      jump\t// in\n    tag_195:\n        /* \"#utility.yul\":5230:5260   */\n      swap1\n      pop\n        /* \"#utility.yul\":5269:5302   */\n      tag_196\n        /* \"#utility.yul\":5297:5301   */\n      dup3\n        /* \"#utility.yul\":5289:5295   */\n      dup3\n        /* \"#utility.yul\":5269:5302   */\n      tag_102\n      jump\t// in\n    tag_196:\n        /* \"#utility.yul\":5179:5308   */\n      swap2\n      swap1\n      pop\n      jump\t// out\n        /* \"#utility.yul\":5314:5622   */\n    tag_104:\n        /* \"#utility.yul\":5376:5380   */\n      0x00\n        /* \"#utility.yul\":5466:5484   */\n      0xffffffffffffffff\n        /* \"#utility.yul\":5458:5464   */\n      dup3\n        /* \"#utility.yul\":5455:5485   */\n      gt\n        /* \"#utility.yul\":5452:5508   */\n      iszero\n      tag_198\n      jumpi\n        /* \"#utility.yul\":5488:5506   */\n      tag_199\n      tag_101\n      jump\t// in\n    tag_199:\n        /* \"#utility.yul\":5452:5508   */\n    tag_198:\n        /* \"#utility.yul\":5526:5555   */\n      tag_200\n        /* \"#utility.yul\":5548:5554   */\n      dup3\n        /* \"#utility.yul\":5526:5555   */\n      tag_100\n      jump\t// in\n    tag_200:\n        /* \"#utility.yul\":5518:5555   */\n      swap1\n      pop\n        /* \"#utility.yul\":5610:5614   */\n      0x20\n        /* \"#utility.yul\":5604:5608   */\n      dup2\n        /* \"#utility.yul\":5600:5615   */\n      add\n        /* \"#utility.yul\":5592:5615   */\n      swap1\n      pop\n        /* \"#utility.yul\":5314:5622   */\n      swap2\n      swap1\n      pop\n      jump\t// out\n        /* \"#utility.yul\":5628:5776   */\n    tag_105:\n        /* \"#utility.yul\":5726:5732   */\n      dup3\n        /* \"#utility.yul\":5721:5724   */\n      dup2\n        /* \"#utility.yul\":5716:5719   */\n      dup4\n        /* \"#utility.yul\":5703:5733   */\n      calldatacopy\n        /* \"#utility.yul\":5767:5768   */\n      0x00\n        /* \"#utility.yul\":5758:5764   */\n      dup4\n        /* \"#utility.yul\":5753:5756   */\n      dup4\n        /* \"#utility.yul\":5749:5765   */\n      add\n        /* \"#utility.yul\":5742:5769   */\n      mstore\n        /* \"#utility.yul\":5628:5776   */\n      pop\n      pop\n      pop\n      jump\t// out\n        /* \"#utility.yul\":5782:6207   */\n    tag_106:\n        /* \"#utility.yul\":5860:5865   */\n      0x00\n        /* \"#utility.yul\":5885:5951   */\n      tag_203\n        /* \"#utility.yul\":5901:5950   */\n      tag_204\n        /* \"#utility.yul\":5943:5949   */\n      dup5\n        /* \"#utility.yul\":5901:5950   */\n      tag_104\n      jump\t// in\n    tag_204:\n        /* \"#utility.yul\":5885:5951   */\n      tag_103\n      jump\t// in\n    tag_203:\n        /* \"#utility.yul\":5876:5951   */\n      swap1\n      pop\n        /* \"#utility.yul\":5974:5980   */\n      dup3\n        /* \"#utility.yul\":5967:5972   */\n      dup2\n        /* \"#utility.yul\":5960:5981   */\n      mstore\n        /* \"#utility.yul\":6012:6016   */\n      0x20\n        /* \"#utility.yul\":6005:6010   */\n      dup2\n        /* \"#utility.yul\":6001:6017   */\n      add\n        /* \"#utility.yul\":6050:6053   */\n      dup5\n        /* \"#utility.yul\":6041:6047   */\n      dup5\n        /* \"#utility.yul\":6036:6039   */\n      dup5\n        /* \"#utility.yul\":6032:6048   */\n      add\n        /* \"#utility.yul\":6029:6054   */\n      gt\n        /* \"#utility.yul\":6026:6138   */\n      iszero\n      tag_205\n      jumpi\n        /* \"#utility.yul\":6057:6136   */\n      tag_206\n      tag_99\n      jump\t// in\n    tag_206:\n        /* \"#utility.yul\":6026:6138   */\n    tag_205:\n        /* \"#utility.yul\":6147:6201   */\n      tag_207\n        /* \"#utility.yul\":6194:6200   */\n      dup5\n        /* \"#utility.yul\":6189:6192   */\n      dup3\n        /* \"#utility.yul\":6184:6187   */\n      dup6\n        /* \"#utility.yul\":6147:6201   */\n      tag_105\n      jump\t// in\n    tag_207:\n        /* \"#utility.yul\":5866:6207   */\n      pop\n        /* \"#utility.yul\":5782:6207   */\n      swap4\n      swap3\n      pop\n      pop\n      pop\n      jump\t// out\n        /* \"#utility.yul\":6227:6567   */\n    tag_107:\n        /* \"#utility.yul\":6283:6288   */\n      0x00\n        /* \"#utility.yul\":6332:6335   */\n      dup3\n        /* \"#utility.yul\":6325:6329   */\n      0x1f\n        /* \"#utility.yul\":6317:6323   */\n      dup4\n        /* \"#utility.yul\":6313:6330   */\n      add\n        /* \"#utility.yul\":6309:6336   */\n      slt\n        /* \"#utility.yul\":6299:6421   */\n      tag_209\n      jumpi\n        /* \"#utility.yul\":6340:6419   */\n      tag_210\n      tag_86\n      jump\t// in\n    tag_210:\n        /* \"#utility.yul\":6299:6421   */\n    tag_209:\n        /* \"#utility.yul\":6457:6463   */\n      dup2\n        /* \"#utility.yul\":6444:6464   */\n      calldataload\n        /* \"#utility.yul\":6482:6561   */\n      tag_211\n        /* \"#utility.yul\":6557:6560   */\n      dup5\n        /* \"#utility.yul\":6549:6555   */\n      dup3\n        /* \"#utility.yul\":6542:6546   */\n      0x20\n        /* \"#utility.yul\":6534:6540   */\n      dup7\n        /* \"#utility.yul\":6530:6547   */\n      add\n        /* \"#utility.yul\":6482:6561   */\n      tag_106\n      jump\t// in\n    tag_211:\n        /* \"#utility.yul\":6473:6561   */\n      swap2\n      pop\n        /* \"#utility.yul\":6289:6567   */\n      pop\n        /* \"#utility.yul\":6227:6567   */\n      swap3\n      swap2\n      pop\n      pop\n      jump\t// out\n        /* \"#utility.yul\":6573:7082   */\n    tag_50:\n        /* \"#utility.yul\":6642:6648   */\n      0x00\n        /* \"#utility.yul\":6691:6693   */\n      0x20\n        /* \"#utility.yul\":6679:6688   */\n      dup3\n        /* \"#utility.yul\":6670:6677   */\n      dup5\n        /* \"#utility.yul\":6666:6689   */\n      sub\n        /* \"#utility.yul\":6662:6694   */\n      slt\n        /* \"#utility.yul\":6659:6778   */\n      iszero\n      tag_213\n      jumpi\n        /* \"#utility.yul\":6697:6776   */\n      tag_214\n      tag_84\n      jump\t// in\n    tag_214:\n        /* \"#utility.yul\":6659:6778   */\n    tag_213:\n        /* \"#utility.yul\":6845:6846   */\n      0x00\n        /* \"#utility.yul\":6834:6843   */\n      dup3\n        /* \"#utility.yul\":6830:6847   */\n      add\n        /* \"#utility.yul\":6817:6848   */\n      calldataload\n        /* \"#utility.yul\":6875:6893   */\n      0xffffffffffffffff\n        /* \"#utility.yul\":6867:6873   */\n      dup2\n        /* \"#utility.yul\":6864:6894   */\n      gt\n        /* \"#utility.yul\":6861:6978   */\n      iszero\n      tag_215\n      jumpi\n        /* \"#utility.yul\":6897:6976   */\n      tag_216\n      tag_85\n      jump\t// in\n    tag_216:\n        /* \"#utility.yul\":6861:6978   */\n    tag_215:\n        /* \"#utility.yul\":7002:7065   */\n      tag_217\n        /* \"#utility.yul\":7057:7064   */\n      dup5\n        /* \"#utility.yul\":7048:7054   */\n      dup3\n        /* \"#utility.yul\":7037:7046   */\n      dup6\n        /* \"#utility.yul\":7033:7055   */\n      add\n        /* \"#utility.yul\":7002:7065   */\n      tag_107\n      jump\t// in\n    tag_217:\n        /* \"#utility.yul\":6992:7065   */\n      swap2\n      pop\n        /* \"#utility.yul\":6788:7075   */\n      pop\n        /* \"#utility.yul\":6573:7082   */\n      swap3\n      swap2\n      pop\n      pop\n      jump\t// out\n        /* \"#utility.yul\":7088:7187   */\n    tag_108:\n        /* \"#utility.yul\":7140:7146   */\n      0x00\n        /* \"#utility.yul\":7174:7179   */\n      dup2\n        /* \"#utility.yul\":7168:7180   */\n      mload\n        /* \"#utility.yul\":7158:7180   */\n      swap1\n      pop\n        /* \"#utility.yul\":7088:7187   */\n      swap2\n      swap1\n      pop\n      jump\t// out\n        /* \"#utility.yul\":7193:7362   */\n    tag_109:\n        /* \"#utility.yul\":7277:7288   */\n      0x00\n        /* \"#utility.yul\":7311:7317   */\n      dup3\n        /* \"#utility.yul\":7306:7309   */\n      dup3\n        /* \"#utility.yul\":7299:7318   */\n      mstore\n        /* \"#utility.yul\":7351:7355   */\n      0x20\n        /* \"#utility.yul\":7346:7349   */\n      dup3\n        /* \"#utility.yul\":7342:7356   */\n      add\n        /* \"#utility.yul\":7327:7356   */\n      swap1\n      pop\n        /* \"#utility.yul\":7193:7362   */\n      swap3\n      swap2\n      pop\n      pop\n      jump\t// out\n        /* \"#utility.yul\":7368:7507   */\n    tag_110:\n        /* \"#utility.yul\":7457:7463   */\n      dup3\n        /* \"#utility.yul\":7452:7455   */\n      dup2\n        /* \"#utility.yul\":7447:7450   */\n      dup4\n        /* \"#utility.yul\":7441:7464   */\n      mcopy\n        /* \"#utility.yul\":7498:7499   */\n      0x00\n        /* \"#utility.yul\":7489:7495   */\n      dup4\n        /* \"#utility.yul\":7484:7487   */\n      dup4\n        /* \"#utility.yul\":7480:7496   */\n      add\n        /* \"#utility.yul\":7473:7500   */\n      mstore\n        /* \"#utility.yul\":7368:7507   */\n      pop\n      pop\n      pop\n      jump\t// out\n        /* \"#utility.yul\":7513:7890   */\n    tag_111:\n        /* \"#utility.yul\":7601:7604   */\n      0x00\n        /* \"#utility.yul\":7629:7668   */\n      tag_222\n        /* \"#utility.yul\":7662:7667   */\n      dup3\n        /* \"#utility.yul\":7629:7668   */\n      tag_108\n      jump\t// in\n    tag_222:\n        /* \"#utility.yul\":7684:7755   */\n      tag_223\n        /* \"#utility.yul\":7748:7754   */\n      dup2\n        /* \"#utility.yul\":7743:7746   */\n      dup6\n        /* \"#utility.yul\":7684:7755   */\n      tag_109\n      jump\t// in\n    tag_223:\n        /* \"#utility.yul\":7677:7755   */\n      swap4\n      pop\n        /* \"#utility.yul\":7764:7829   */\n      tag_224\n        /* \"#utility.yul\":7822:7828   */\n      dup2\n        /* \"#utility.yul\":7817:7820   */\n      dup6\n        /* \"#utility.yul\":7810:7814   */\n      0x20\n        /* \"#utility.yul\":7803:7808   */\n      dup7\n        /* \"#utility.yul\":7799:7815   */\n      add\n        /* \"#utility.yul\":7764:7829   */\n      tag_110\n      jump\t// in\n    tag_224:\n        /* \"#utility.yul\":7854:7883   */\n      tag_225\n        /* \"#utility.yul\":7876:7882   */\n      dup2\n        /* \"#utility.yul\":7854:7883   */\n      tag_100\n      jump\t// in\n    tag_225:\n        /* \"#utility.yul\":7849:7852   */\n      dup5\n        /* \"#utility.yul\":7845:7884   */\n      add\n        /* \"#utility.yul\":7838:7884   */\n      swap2\n      pop\n        /* \"#utility.yul\":7605:7890   */\n      pop\n        /* \"#utility.yul\":7513:7890   */\n      swap3\n      swap2\n      pop\n      pop\n      jump\t// out\n        /* \"#utility.yul\":7896:8209   */\n    tag_56:\n        /* \"#utility.yul\":8009:8013   */\n      0x00\n        /* \"#utility.yul\":8047:8049   */\n      0x20\n        /* \"#utility.yul\":8036:8045   */\n      dup3\n        /* \"#utility.yul\":8032:8050   */\n      add\n        /* \"#utility.yul\":8024:8050   */\n      swap1\n      pop\n        /* \"#utility.yul\":8096:8105   */\n      dup2\n        /* \"#utility.yul\":8090:8094   */\n      dup2\n        /* \"#utility.yul\":8086:8106   */\n      sub\n        /* \"#utility.yul\":8082:8083   */\n      0x00\n        /* \"#utility.yul\":8071:8080   */\n      dup4\n        /* \"#utility.yul\":8067:8084   */\n      add\n        /* \"#utility.yul\":8060:8107   */\n      mstore\n        /* \"#utility.yul\":8124:8202   */\n      tag_227\n        /* \"#utility.yul\":8197:8201   */\n      dup2\n        /* \"#utility.yul\":8188:8194   */\n      dup5\n        /* \"#utility.yul\":8124:8202   */\n      tag_111\n      jump\t// in\n    tag_227:\n        /* \"#utility.yul\":8116:8202   */\n      swap1\n      pop\n        /* \"#utility.yul\":7896:8209   */\n      swap3\n      swap2\n      pop\n      pop\n      jump\t// out\n        /* \"#utility.yul\":8215:8395   */\n    tag_112:\n        /* \"#utility.yul\":8263:8340   */\n      0x4e487b7100000000000000000000000000000000000000000000000000000000\n        /* \"#utility.yul\":8260:8261   */\n      0x00\n        /* \"#utility.yul\":8253:8341   */\n      mstore\n        /* \"#utility.yul\":8360:8364   */\n      0x22\n        /* \"#utility.yul\":8357:8358   */\n      0x04\n        /* \"#utility.yul\":8350:8365   */\n      mstore\n        /* \"#utility.yul\":8384:8388   */\n      0x24\n        /* \"#utility.yul\":8381:8382   */\n      0x00\n        /* \"#utility.yul\":8374:8389   */\n      revert\n        /* \"#utility.yul\":8401:8721   */\n    tag_60:\n        /* \"#utility.yul\":8445:8451   */\n      0x00\n        /* \"#utility.yul\":8482:8483   */\n      0x02\n        /* \"#utility.yul\":8476:8480   */\n      dup3\n        /* \"#utility.yul\":8472:8484   */\n      div\n        /* \"#utility.yul\":8462:8484   */\n      swap1\n      pop\n        /* \"#utility.yul\":8529:8530   */\n      0x01\n        /* \"#utility.yul\":8523:8527   */\n      dup3\n        /* \"#utility.yul\":8519:8531   */\n      and\n        /* \"#utility.yul\":8550:8568   */\n      dup1\n        /* \"#utility.yul\":8540:8621   */\n      tag_230\n      jumpi\n        /* \"#utility.yul\":8606:8610   */\n      0x7f\n        /* \"#utility.yul\":8598:8604   */\n      dup3\n        /* \"#utility.yul\":8594:8611   */\n      and\n        /* \"#utility.yul\":8584:8611   */\n      swap2\n      pop\n        /* \"#utility.yul\":8540:8621   */\n    tag_230:\n        /* \"#utility.yul\":8668:8670   */\n      0x20\n        /* \"#utility.yul\":8660:8666   */\n      dup3\n        /* \"#utility.yul\":8657:8671   */\n      lt\n        /* \"#utility.yul\":8637:8655   */\n      dup2\n        /* \"#utility.yul\":8634:8672   */\n      sub\n        /* \"#utility.yul\":8631:8715   */\n      tag_231\n      jumpi\n        /* \"#utility.yul\":8687:8705   */\n      tag_232\n      tag_112\n      jump\t// in\n    tag_232:\n        /* \"#utility.yul\":8631:8715   */\n    tag_231:\n        /* \"#utility.yul\":8452:8721   */\n      pop\n        /* \"#utility.yul\":8401:8721   */\n      swap2\n      swap1\n      pop\n      jump\t// out\n        /* \"#utility.yul\":8727:8824   */\n    tag_113:\n        /* \"#utility.yul\":8786:8792   */\n      0x00\n        /* \"#utility.yul\":8814:8817   */\n      dup3\n        /* \"#utility.yul\":8804:8817   */\n      swap1\n      pop\n        /* \"#utility.yul\":8727:8824   */\n      swap3\n      swap2\n      pop\n      pop\n      jump\t// out\n        /* \"#utility.yul\":8830:8971   */\n    tag_114:\n        /* \"#utility.yul\":8879:8883   */\n      0x00\n        /* \"#utility.yul\":8902:8905   */\n      dup2\n        /* \"#utility.yul\":8894:8905   */\n      swap1\n      pop\n        /* \"#utility.yul\":8925:8928   */\n      dup2\n        /* \"#utility.yul\":8922:8923   */\n      0x00\n        /* \"#utility.yul\":8915:8929   */\n      mstore\n        /* \"#utility.yul\":8959:8963   */\n      0x20\n        /* \"#utility.yul\":8956:8957   */\n      0x00\n        /* \"#utility.yul\":8946:8964   */\n      keccak256\n        /* \"#utility.yul\":8938:8964   */\n      swap1\n      pop\n        /* \"#utility.yul\":8830:8971   */\n      swap2\n      swap1\n      pop\n      jump\t// out\n        /* \"#utility.yul\":8977:9070   */\n    tag_115:\n        /* \"#utility.yul\":9014:9020   */\n      0x00\n        /* \"#utility.yul\":9061:9063   */\n      0x20\n        /* \"#utility.yul\":9056:9058   */\n      0x1f\n        /* \"#utility.yul\":9049:9054   */\n      dup4\n        /* \"#utility.yul\":9045:9059   */\n      add\n        /* \"#utility.yul\":9041:9064   */\n      div\n        /* \"#utility.yul\":9031:9064   */\n      swap1\n      pop\n        /* \"#utility.yul\":8977:9070   */\n      swap2\n      swap1\n      pop\n      jump\t// out\n        /* \"#utility.yul\":9076:9183   */\n    tag_116:\n        /* \"#utility.yul\":9120:9128   */\n      0x00\n        /* \"#utility.yul\":9170:9175   */\n      dup3\n        /* \"#utility.yul\":9164:9168   */\n      dup3\n        /* \"#utility.yul\":9160:9176   */\n      shl\n        /* \"#utility.yul\":9139:9176   */\n      swap1\n      pop\n        /* \"#utility.yul\":9076:9183   */\n      swap3\n      swap2\n      pop\n      pop\n      jump\t// out\n        /* \"#utility.yul\":9189:9582   */\n    tag_117:\n        /* \"#utility.yul\":9258:9264   */\n      0x00\n        /* \"#utility.yul\":9308:9309   */\n      0x08\n        /* \"#utility.yul\":9296:9306   */\n      dup4\n        /* \"#utility.yul\":9292:9310   */\n      mul\n        /* \"#utility.yul\":9331:9428   */\n      tag_238\n        /* \"#utility.yul\":9361:9427   */\n      0xffffffffffffffffffffffffffffffffffffffffffffffffffffffffffffffff\n        /* \"#utility.yul\":9350:9359   */\n      dup3\n        /* \"#utility.yul\":9331:9428   */\n      tag_116\n      jump\t// in\n    tag_238:\n        /* \"#utility.yul\":9449:9488   */\n      tag_239\n        /* \"#utility.yul\":9479:9487   */\n      dup7\n        /* \"#utility.yul\":9468:9477   */\n      dup4\n        /* \"#utility.yul\":9449:9488   */\n      tag_116\n      jump\t// in\n    tag_239:\n        /* \"#utility.yul\":9437:9488   */\n      swap6\n      pop\n        /* \"#utility.yul\":9521:9525   */\n      dup1\n        /* \"#utility.yul\":9517:9526   */\n      not\n        /* \"#utility.yul\":9510:9515   */\n      dup5\n        /* \"#utility.yul\":9506:9527   */\n      and\n        /* \"#utility.yul\":9497:9527   */\n      swap4\n      pop\n        /* \"#utility.yul\":9570:9574   */\n      dup1\n        /* \"#utility.yul\":9560:9568   */\n      dup7\n        /* \"#utility.yul\":9556:9575   */\n      and\n        /* \"#utility.yul\":9549:9554   */\n      dup5\n        /* \"#utility.yul\":9546:9576   */\n      or\n        /* \"#utility.yul\":9536:9576   */\n      swap3\n      pop\n        /* \"#utility.yul\":9265:9582   */\n      pop\n      pop\n        /* \"#utility.yul\":9189:9582   */\n      swap4\n      swap3\n      pop\n      pop\n      pop\n      jump\t// out\n        /* \"#utility.yul\":9588:9648   */\n    tag_118:\n        /* \"#utility.yul\":9616:9619   */\n      0x00\n        /* \"#utility.yul\":9637:9642   */\n      dup2\n        /* \"#utility.yul\":9630:9642   */\n      swap1\n      pop\n        /* \"#utility.yul\":9588:9648   */\n      swap2\n      swap1\n      pop\n      jump\t// out\n        /* \"#utility.yul\":9654:9796   */\n    tag_119:\n        /* \"#utility.yul\":9704:9713   */\n      0x00\n        /* \"#utility.yul\":9737:9790   */\n      tag_242\n        /* \"#utility.yul\":9755:9789   */\n      tag_243\n        /* \"#utility.yul\":9764:9788   */\n      tag_244\n        /* \"#utility.yul\":9782:9787   */\n      dup5\n        /* \"#utility.yul\":9764:9788   */\n      tag_81\n      jump\t// in\n    tag_244:\n        /* \"#utility.yul\":9755:9789   */\n      tag_118\n      jump\t// in\n    tag_243:\n        /* \"#utility.yul\":9737:9790   */\n      tag_81\n      jump\t// in\n    tag_242:\n        /* \"#utility.yul\":9724:9790   */\n      swap1\n      pop\n        /* \"#utility.yul\":9654:9796   */\n      swap2\n      swap1\n      pop\n      jump\t// out\n        /* \"#utility.yul\":9802:9877   */\n    tag_120:\n        /* \"#utility.yul\":9845:9848   */\n      0x00\n        /* \"#utility.yul\":9866:9871   */\n      dup2\n        /* \"#utility.yul\":9859:9871   */\n      swap1\n      pop\n        /* \"#utility.yul\":9802:9877   */\n      swap2\n      swap1\n      pop\n      jump\t// out\n        /* \"#utility.yul\":9883:10152   */\n    tag_121:\n        /* \"#utility.yul\":9993:10032   */\n      tag_247\n        /* \"#utility.yul\":10024:10031   */\n      dup4\n        /* \"#utility.yul\":9993:10032   */\n      tag_119\n      jump\t// in\n    tag_247:\n        /* \"#utility.yul\":10054:10145   */\n      tag_248\n        /* \"#utility.yul\":10103:10144   */\n      tag_249\n        /* \"#utility.yul\":10127:10143   */\n      dup3\n        /* \"#utility.yul\":10103:10144   */\n      tag_120\n      jump\t// in\n    tag_249:\n        /* \"#utility.yul\":10095:10101   */\n      dup5\n        /* \"#utility.yul\":10088:10092   */\n      dup5\n        /* \"#utility.yul\":10082:10093   */\n      sload\n        /* \"#utility.yul\":10054:10145   */\n      tag_117\n      jump\t// in\n    tag_248:\n        /* \"#utility.yul\":10048:10052   */\n      dup3\n        /* \"#utility.yul\":10041:10146   */\n      sstore\n        /* \"#utility.yul\":9959:10152   */\n      pop\n        /* \"#utility.yul\":9883:10152   */\n      pop\n      pop\n      pop\n      jump\t// out\n        /* \"#utility.yul\":10158:10231   */\n    tag_122:\n        /* \"#utility.yul\":10203:10206   */\n      0x00\n        /* \"#utility.yul\":10158:10231   */\n      swap1\n      jump\t// out\n        /* \"#utility.yul\":10237:10426   */\n    tag_123:\n        /* \"#utility.yul\":10314:10346   */\n      tag_252\n      tag_122\n      jump\t// in\n    tag_252:\n        /* \"#utility.yul\":10355:10420   */\n      tag_253\n        /* \"#utility.yul\":10413:10419   */\n      dup2\n        /* \"#utility.yul\":10405:10411   */\n      dup5\n        /* \"#utility.yul\":10399:10403   */\n      dup5\n        /* \"#utility.yul\":10355:10420   */\n      tag_121\n      jump\t// in\n    tag_253:\n        /* \"#utility.yul\":10290:10426   */\n      pop\n        /* \"#utility.yul\":10237:10426   */\n      pop\n      pop\n      jump\t// out\n        /* \"#utility.yul\":10432:10618   */\n    tag_124:\n        /* \"#utility.yul\":10492:10612   */\n    tag_255:\n        /* \"#utility.yul\":10509:10512   */\n      dup2\n        /* \"#utility.yul\":10502:10507   */\n      dup2\n        /* \"#utility.yul\":10499:10513   */\n      lt\n        /* \"#utility.yul\":10492:10612   */\n      iszero\n      tag_257\n      jumpi\n        /* \"#utility.yul\":10563:10602   */\n      tag_258\n        /* \"#utility.yul\":10600:10601   */\n      0x00\n        /* \"#utility.yul\":10593:10598   */\n      dup3\n        /* \"#utility.yul\":10563:10602   */\n      tag_123\n      jump\t// in\n    tag_258:\n        /* \"#utility.yul\":10536:10537   */\n      0x01\n        /* \"#utility.yul\":10529:10534   */\n      dup2\n        /* \"#utility.yul\":10525:10538   */\n      add\n        /* \"#utility.yul\":10516:10538   */\n      swap1\n      pop\n        /* \"#utility.yul\":10492:10612   */\n      jump(tag_255)\n    tag_257:\n        /* \"#utility.yul\":10432:10618   */\n      pop\n      pop\n      jump\t// out\n        /* \"#utility.yul\":10624:11167   */\n    tag_125:\n        /* \"#utility.yul\":10725:10727   */\n      0x1f\n        /* \"#utility.yul\":10720:10723   */\n      dup3\n        /* \"#utility.yul\":10717:10728   */\n      gt\n        /* \"#utility.yul\":10714:11160   */\n      iszero\n      tag_260\n      jumpi\n        /* \"#utility.yul\":10759:10797   */\n      tag_261\n        /* \"#utility.yul\":10791:10796   */\n      dup2\n        /* \"#utility.yul\":10759:10797   */\n      tag_114\n      jump\t// in\n    tag_261:\n        /* \"#utility.yul\":10843:10872   */\n      tag_262\n        /* \"#utility.yul\":10861:10871   */\n      dup5\n        /* \"#utility.yul\":10843:10872   */\n      tag_115\n      jump\t// in\n    tag_262:\n        /* \"#utility.yul\":10833:10841   */\n      dup2\n        /* \"#utility.yul\":10829:10873   */\n      add\n        /* \"#utility.yul\":11026:11028   */\n      0x20\n        /* \"#utility.yul\":11014:11024   */\n      dup6\n        /* \"#utility.yul\":11011:11029   */\n      lt\n        /* \"#utility.yul\":11008:11057   */\n      iszero\n      tag_263\n      jumpi\n        /* \"#utility.yul\":11047:11055   */\n      dup2\n        /* \"#utility.yul\":11032:11055   */\n      swap1\n      pop\n        /* \"#utility.yul\":11008:11057   */\n    tag_263:\n        /* \"#utility.yul\":11070:11150   */\n      tag_264\n        /* \"#utility.yul\":11126:11148   */\n      tag_265\n        /* \"#utility.yul\":11144:11147   */\n      dup6\n        /* \"#utility.yul\":11126:11148   */\n      tag_115\n      jump\t// in\n    tag_265:\n        /* \"#utility.yul\":11116:11124   */\n      dup4\n        /* \"#utility.yul\":11112:11149   */\n      add\n        /* \"#utility.yul\":11099:11110   */\n      dup3\n        /* \"#utility.yul\":11070:11150   */\n      tag_124\n      jump\t// in\n    tag_264:\n        /* \"#utility.yul\":10729:11160   */\n      pop\n      pop\n        /* \"#utility.yul\":10714:11160   */\n    tag_260:\n        /* \"#utility.yul\":10624:11167   */\n      pop\n      pop\n      pop\n      jump\t// out\n        /* \"#utility.yul\":11173:11290   */\n    tag_126:\n        /* \"#utility.yul\":11227:11235   */\n      0x00\n        /* \"#utility.yul\":11277:11282   */\n      dup3\n        /* \"#utility.yul\":11271:11275   */\n      dup3\n        /* \"#utility.yul\":11267:11283   */\n      shr\n        /* \"#utility.yul\":11246:11283   */\n      swap1\n      pop\n        /* \"#utility.yul\":11173:11290   */\n      swap3\n      swap2\n      pop\n      pop\n      jump\t// out\n        /* \"#utility.yul\":11296:11465   */\n    tag_127:\n        /* \"#utility.yul\":11340:11346   */\n      0x00\n        /* \"#utility.yul\":11373:11424   */\n      tag_268\n        /* \"#utility.yul\":11421:11422   */\n      0x00\n        /* \"#utility.yul\":11417:11423   */\n      not\n        /* \"#utility.yul\":11409:11414   */\n      dup5\n        /* \"#utility.yul\":11406:11407   */\n      0x08\n        /* \"#utility.yul\":11402:11415   */\n      mul\n        /* \"#utility.yul\":11373:11424   */\n      tag_126\n      jump\t// in\n    tag_268:\n        /* \"#utility.yul\":11369:11425   */\n      not\n        /* \"#utility.yul\":11454:11458   */\n      dup1\n        /* \"#utility.yul\":11448:11452   */\n      dup4\n        /* \"#utility.yul\":11444:11459   */\n      and\n        /* \"#utility.yul\":11434:11459   */\n      swap2\n      pop\n        /* \"#utility.yul\":11347:11465   */\n      pop\n        /* \"#utility.yul\":11296:11465   */\n      swap3\n      swap2\n      pop\n      pop\n      jump\t// out\n        /* \"#utility.yul\":11470:11765   */\n    tag_128:\n        /* \"#utility.yul\":11546:11550   */\n      0x00\n        /* \"#utility.yul\":11692:11721   */\n      tag_270\n        /* \"#utility.yul\":11717:11720   */\n      dup4\n        /* \"#utility.yul\":11711:11715   */\n      dup4\n        /* \"#utility.yul\":11692:11721   */\n      tag_127\n      jump\t// in\n    tag_270:\n        /* \"#utility.yul\":11684:11721   */\n      swap2\n      pop\n        /* \"#utility.yul\":11754:11757   */\n      dup3\n        /* \"#utility.yul\":11751:11752   */\n      0x02\n        /* \"#utility.yul\":11747:11758   */\n      mul\n        /* \"#utility.yul\":11741:11745   */\n      dup3\n        /* \"#utility.yul\":11738:11759   */\n      or\n        /* \"#utility.yul\":11730:11759   */\n      swap1\n      pop\n        /* \"#utility.yul\":11470:11765   */\n      swap3\n      swap2\n      pop\n      pop\n      jump\t// out\n        /* \"#utility.yul\":11770:13173   */\n    tag_63:\n        /* \"#utility.yul\":11894:11938   */\n      tag_272\n        /* \"#utility.yul\":11934:11937   */\n      dup4\n        /* \"#utility.yul\":11929:11932   */\n      dup4\n        /* \"#utility.yul\":11894:11938   */\n      tag_113\n      jump\t// in\n    tag_272:\n        /* \"#utility.yul\":12003:12021   */\n      0xffffffffffffffff\n        /* \"#utility.yul\":11995:12001   */\n      dup2\n        /* \"#utility.yul\":11992:12022   */\n      gt\n        /* \"#utility.yul\":11989:12045   */\n      iszero\n      tag_273\n      jumpi\n        /* \"#utility.yul\":12025:12043   */\n      tag_274\n      tag_101\n      jump\t// in\n    tag_274:\n        /* \"#utility.yul\":11989:12045   */\n    tag_273:\n        /* \"#utility.yul\":12069:12107   */\n      tag_275\n        /* \"#utility.yul\":12101:12105   */\n      dup3\n        /* \"#utility.yul\":12095:12106   */\n      sload\n        /* \"#utility.yul\":12069:12107   */\n      tag_60\n      jump\t// in\n    tag_275:\n        /* \"#utility.yul\":12154:12221   */\n      tag_276\n        /* \"#utility.yul\":12214:12220   */\n      dup3\n        /* \"#utility.yul\":12206:12212   */\n      dup3\n        /* \"#utility.yul\":12200:12204   */\n      dup6\n        /* \"#utility.yul\":12154:12221   */\n      tag_125\n      jump\t// in\n    tag_276:\n        /* \"#utility.yul\":12248:12249   */\n      0x00\n        /* \"#utility.yul\":12277:12279   */\n      0x1f\n        /* \"#utility.yul\":12269:12275   */\n      dup4\n        /* \"#utility.yul\":12266:12280   */\n      gt\n        /* \"#utility.yul\":12294:12295   */\n      0x01\n        /* \"#utility.yul\":12289:12921   */\n      dup2\n      eq\n      tag_278\n      jumpi\n        /* \"#utility.yul\":12965:12966   */\n      0x00\n        /* \"#utility.yul\":12982:12988   */\n      dup5\n        /* \"#utility.yul\":12979:13063   */\n      iszero\n      tag_279\n      jumpi\n        /* \"#utility.yul\":13038:13047   */\n      dup3\n        /* \"#utility.yul\":13033:13036   */\n      dup8\n        /* \"#utility.yul\":13029:13048   */\n      add\n        /* \"#utility.yul\":13016:13049   */\n      calldataload\n        /* \"#utility.yul\":13007:13049   */\n      swap1\n      pop\n        /* \"#utility.yul\":12979:13063   */\n    tag_279:\n        /* \"#utility.yul\":13089:13156   */\n      tag_280\n        /* \"#utility.yul\":13149:13155   */\n      dup6\n        /* \"#utility.yul\":13142:13147   */\n      dup3\n        /* \"#utility.yul\":13089:13156   */\n      tag_128\n      jump\t// in\n    tag_280:\n        /* \"#utility.yul\":13083:13087   */\n      dup7\n        /* \"#utility.yul\":13076:13157   */\n      sstore\n        /* \"#utility.yul\":12938:13167   */\n      pop\n        /* \"#utility.yul\":12259:13167   */\n      jump(tag_277)\n        /* \"#utility.yul\":12289:12921   */\n    tag_278:\n        /* \"#utility.yul\":12341:12345   */\n      0x1f\n        /* \"#utility.yul\":12337:12346   */\n      not\n        /* \"#utility.yul\":12329:12335   */\n      dup5\n        /* \"#utility.yul\":12325:12347   */\n      and\n        /* \"#utility.yul\":12375:12412   */\n      tag_281\n        /* \"#utility.yul\":12407:12411   */\n      dup7\n        /* \"#utility.yul\":12375:12412   */\n      tag_114\n      jump\t// in\n    tag_281:\n        /* \"#utility.yul\":12434:12435   */\n      0x00\n        /* \"#utility.yul\":12448:12663   */\n    tag_282:\n        /* \"#utility.yul\":12462:12469   */\n      dup3\n        /* \"#utility.yul\":12459:12460   */\n      dup2\n        /* \"#utility.yul\":12456:12470   */\n      lt\n        /* \"#utility.yul\":12448:12663   */\n      iszero\n      tag_284\n      jumpi\n        /* \"#utility.yul\":12548:12557   */\n      dup5\n        /* \"#utility.yul\":12543:12546   */\n      dup10\n        /* \"#utility.yul\":12539:12558   */\n      add\n        /* \"#utility.yul\":12526:12559   */\n      calldataload\n        /* \"#utility.yul\":12518:12524   */\n      dup3\n        /* \"#utility.yul\":12511:12560   */\n      sstore\n        /* \"#utility.yul\":12599:12600   */\n      0x01\n        /* \"#utility.yul\":12591:12597   */\n      dup3\n        /* \"#utility.yul\":12587:12601   */\n      add\n        /* \"#utility.yul\":12577:12601   */\n      swap2\n      pop\n        /* \"#utility.yul\":12646:12648   */\n      0x20\n        /* \"#utility.yul\":12635:12644   */\n      dup6\n        /* \"#utility.yul\":12631:12649   */\n      add\n        /* \"#utility.yul\":12618:12649   */\n      swap5\n      pop\n        /* \"#utility.yul\":12485:12489   */\n      0x20\n        /* \"#utility.yul\":12482:12483   */\n      dup2\n        /* \"#utility.yul\":12478:12490   */\n      add\n        /* \"#utility.yul\":12473:12490   */\n      swap1\n      pop\n        /* \"#utility.yul\":12448:12663   */\n      jump(tag_282)\n    tag_284:\n        /* \"#utility.yul\":12691:12697   */\n      dup7\n        /* \"#utility.yul\":12682:12689   */\n      dup4\n        /* \"#utility.yul\":12679:12698   */\n      lt\n        /* \"#utility.yul\":12676:12862   */\n      iszero\n      tag_285\n      jumpi\n        /* \"#utility.yul\":12756:12765   */\n      dup5\n        /* \"#utility.yul\":12751:12754   */\n      dup10\n        /* \"#utility.yul\":12747:12766   */\n      add\n        /* \"#utility.yul\":12734:12767   */\n      calldataload\n        /* \"#utility.yul\":12799:12847   */\n      tag_286\n        /* \"#utility.yul\":12841:12845   */\n      0x1f\n        /* \"#utility.yul\":12833:12839   */\n      dup10\n        /* \"#utility.yul\":12829:12846   */\n      and\n        /* \"#utility.yul\":12818:12827   */\n      dup3\n        /* \"#utility.yul\":12799:12847   */\n      tag_127\n      jump\t// in\n    tag_286:\n        /* \"#utility.yul\":12791:12797   */\n      dup4\n        /* \"#utility.yul\":12784:12848   */\n      sstore\n        /* \"#utility.yul\":12699:12862   */\n      pop\n        /* \"#utility.yul\":12676:12862   */\n    tag_285:\n        /* \"#utility.yul\":12908:12909   */\n      0x01\n        /* \"#utility.yul\":12904:12905   */\n      0x02\n        /* \"#utility.yul\":12896:12902   */\n      dup9\n        /* \"#utility.yul\":12892:12906   */\n      mul\n        /* \"#utility.yul\":12888:12910   */\n      add\n        /* \"#utility.yul\":12882:12886   */\n      dup9\n        /* \"#utility.yul\":12875:12911   */\n      sstore\n        /* \"#utility.yul\":12296:12921   */\n      pop\n      pop\n      pop\n        /* \"#utility.yul\":12259:13167   */\n    tag_277:\n      pop\n        /* \"#utility.yul\":11869:13173   */\n      pop\n      pop\n      pop\n        /* \"#utility.yul\":11770:13173   */\n      pop\n      pop\n      pop\n      jump\t// out\n        /* \"#utility.yul\":13179:13327   */\n    tag_129:\n        /* \"#utility.yul\":13281:13292   */\n      0x00\n        /* \"#utility.yul\":13318:13321   */\n      dup2\n        /* \"#utility.yul\":13303:13321   */\n      swap1\n      pop\n        /* \"#utility.yul\":13179:13327   */\n      swap3\n      swap2\n      pop\n      pop\n      jump\t// out\n        /* \"#utility.yul\":13333:13723   */\n    tag_130:\n        /* \"#utility.yul\":13439:13442   */\n      0x00\n        /* \"#utility.yul\":13467:13506   */\n      tag_289\n        /* \"#utility.yul\":13500:13505   */\n      dup3\n        /* \"#utility.yul\":13467:13506   */\n      tag_108\n      jump\t// in\n    tag_289:\n        /* \"#utility.yul\":13522:13611   */\n      tag_290\n        /* \"#utility.yul\":13604:13610   */\n      dup2\n        /* \"#utility.yul\":13599:13602   */\n      dup6\n        /* \"#utility.yul\":13522:13611   */\n      tag_129\n      jump\t// in\n    tag_290:\n        /* \"#utility.yul\":13515:13611   */\n      swap4\n      pop\n        /* \"#utility.yul\":13620:13685   */\n      tag_291\n        /* \"#utility.yul\":13678:13684   */\n      dup2\n        /* \"#utility.yul\":13673:13676   */\n      dup6\n        /* \"#utility.yul\":13666:13670   */\n      0x20\n        /* \"#utility.yul\":13659:13664   */\n      dup7\n        /* \"#utility.yul\":13655:13671   */\n      add\n        /* \"#utility.yul\":13620:13685   */\n      tag_110\n      jump\t// in\n    tag_291:\n        /* \"#utility.yul\":13710:13716   */\n      dup1\n        /* \"#utility.yul\":13705:13708   */\n      dup5\n        /* \"#utility.yul\":13701:13717   */\n      add\n        /* \"#utility.yul\":13694:13717   */\n      swap2\n      pop\n        /* \"#utility.yul\":13443:13723   */\n      pop\n        /* \"#utility.yul\":13333:13723   */\n      swap3\n      swap2\n      pop\n      pop\n      jump\t// out\n        /* \"#utility.yul\":13729:14004   */\n    tag_72:\n        /* \"#utility.yul\":13861:13864   */\n      0x00\n        /* \"#utility.yul\":13883:13978   */\n      tag_293\n        /* \"#utility.yul\":13974:13977   */\n      dup3\n        /* \"#utility.yul\":13965:13971   */\n      dup5\n        /* \"#utility.yul\":13883:13978   */\n      tag_130\n      jump\t// in\n    tag_293:\n        /* \"#utility.yul\":13876:13978   */\n      swap2\n      pop\n        /* \"#utility.yul\":13995:13998   */\n      dup2\n        /* \"#utility.yul\":13988:13998   */\n      swap1\n      pop\n        /* \"#utility.yul\":13729:14004   */\n      swap3\n      swap2\n      pop\n      pop\n      jump\t// out\n        /* \"#utility.yul\":14034:14908   */\n    tag_131:\n        /* \"#utility.yul\":14137:14140   */\n      0x00\n        /* \"#utility.yul\":14174:14179   */\n      dup2\n        /* \"#utility.yul\":14168:14180   */\n      sload\n        /* \"#utility.yul\":14203:14239   */\n      tag_295\n        /* \"#utility.yul\":14229:14238   */\n      dup2\n        /* \"#utility.yul\":14203:14239   */\n      tag_60\n      jump\t// in\n    tag_295:\n        /* \"#utility.yul\":14255:14344   */\n      tag_296\n        /* \"#utility.yul\":14337:14343   */\n      dup2\n        /* \"#utility.yul\":14332:14335   */\n      dup7\n        /* \"#utility.yul\":14255:14344   */\n      tag_129\n      jump\t// in\n    tag_296:\n        /* \"#utility.yul\":14248:14344   */\n      swap5\n      pop\n        /* \"#utility.yul\":14375:14376   */\n      0x01\n        /* \"#utility.yul\":14364:14373   */\n      dup3\n        /* \"#utility.yul\":14360:14377   */\n      and\n        /* \"#utility.yul\":14391:14392   */\n      0x00\n        /* \"#utility.yul\":14386:14552   */\n      dup2\n      eq\n      tag_298\n      jumpi\n        /* \"#utility.yul\":14566:14567   */\n      0x01\n        /* \"#utility.yul\":14561:14902   */\n      dup2\n      eq\n      tag_299\n      jumpi\n        /* \"#utility.yul\":14353:14902   */\n      jump(tag_297)\n        /* \"#utility.yul\":14386:14552   */\n    tag_298:\n        /* \"#utility.yul\":14470:14474   */\n      0xff\n        /* \"#utility.yul\":14466:14475   */\n      not\n        /* \"#utility.yul\":14455:14464   */\n      dup4\n        /* \"#utility.yul\":14451:14476   */\n      and\n        /* \"#utility.yul\":14446:14449   */\n      dup7\n        /* \"#utility.yul\":14439:14477   */\n      mstore\n        /* \"#utility.yul\":14532:14538   */\n      dup2\n        /* \"#utility.yul\":14525:14539   */\n      iszero\n        /* \"#utility.yul\":14518:14540   */\n      iszero\n        /* \"#utility.yul\":14510:14516   */\n      dup3\n        /* \"#utility.yul\":14506:14541   */\n      mul\n        /* \"#utility.yul\":14501:14504   */\n      dup7\n        /* \"#utility.yul\":14497:14542   */\n      add\n        /* \"#utility.yul\":14490:14542   */\n      swap4\n      pop\n        /* \"#utility.yul\":14386:14552   */\n      jump(tag_297)\n        /* \"#utility.yul\":14561:14902   */\n    tag_299:\n        /* \"#utility.yul\":14628:14666   */\n      tag_300\n        /* \"#utility.yul\":14660:14665   */\n      dup6\n        /* \"#utility.yul\":14628:14666   */\n      tag_114\n      jump\t// in\n    tag_300:\n        /* \"#utility.yul\":14688:14689   */\n      0x00\n        /* \"#utility.yul\":14702:14856   */\n    tag_301:\n        /* \"#utility.yul\":14716:14722   */\n      dup4\n        /* \"#utility.yul\":14713:14714   */\n      dup2\n        /* \"#utility.yul\":14710:14723   */\n      lt\n        /* \"#utility.yul\":14702:14856   */\n      iszero\n      tag_303\n      jumpi\n        /* \"#utility.yul\":14790:14797   */\n      dup2\n        /* \"#utility.yul\":14784:14798   */\n      sload\n        /* \"#utility.yul\":14780:14781   */\n      dup2\n        /* \"#utility.yul\":14775:14778   */\n      dup10\n        /* \"#utility.yul\":14771:14782   */\n      add\n        /* \"#utility.yul\":14764:14799   */\n      mstore\n        /* \"#utility.yul\":14840:14841   */\n      0x01\n        /* \"#utility.yul\":14831:14838   */\n      dup3\n        /* \"#utility.yul\":14827:14842   */\n      add\n        /* \"#utility.yul\":14816:14842   */\n      swap2\n      pop\n        /* \"#utility.yul\":14738:14742   */\n      0x20\n        /* \"#utility.yul\":14735:14736   */\n      dup2\n        /* \"#utility.yul\":14731:14743   */\n      add\n        /* \"#utility.yul\":14726:14743   */\n      swap1\n      pop\n        /* \"#utility.yul\":14702:14856   */\n      jump(tag_301)\n    tag_303:\n        /* \"#utility.yul\":14885:14891   */\n      dup4\n        /* \"#utility.yul\":14880:14883   */\n      dup9\n        /* \"#utility.yul\":14876:14892   */\n      add\n        /* \"#utility.yul\":14869:14892   */\n      swap6\n      pop\n        /* \"#utility.yul\":14568:14902   */\n      pop\n      pop\n        /* \"#utility.yul\":14353:14902   */\n    tag_297:\n      pop\n        /* \"#utility.yul\":14141:14908   */\n      pop\n      pop\n        /* \"#utility.yul\":14034:14908   */\n      swap3\n      swap2\n      pop\n      pop\n      jump\t// out\n        /* \"#utility.yul\":14914:15183   */\n    tag_74:\n        /* \"#utility.yul\":15043:15046   */\n      0x00\n        /* \"#utility.yul\":15065:15157   */\n      tag_305\n        /* \"#utility.yul\":15153:15156   */\n      dup3\n        /* \"#utility.yul\":15144:15150   */\n      dup5\n        /* \"#utility.yul\":15065:15157   */\n      tag_131\n      jump\t// in\n    tag_305:\n        /* \"#utility.yul\":15058:15157   */\n      swap2\n      pop\n        /* \"#utility.yul\":15174:15177   */\n      dup2\n        /* \"#utility.yul\":15167:15177   */\n      swap1\n      pop\n        /* \"#utility.yul\":14914:15183   */\n      swap3\n      swap2\n      pop\n      pop\n      jump\t// out\n\n    auxdata: 0xa2646970667358221220f3143a7a2e63a4d32ca1cc661c23b7f1514d34dd7a2c8e9b1bbf6c315dd7605f64736f6c634300081a0033\n}\n",
				"bytecode": {
					"linkReferences": {},
					"object": "60806040526040518060400160405280600c81526020017f48656c6c6f20776f726c642100000000000000000000000000000000000000008152505f90816100479190610377565b506040518060400160405280600f81526020017f48656c6c6f20776f726c6421e1babf00000000000000000000000000000000008152506001908161008c919061049e565b50600160025f6101000a81548160ff02191690831515021790555060016003553360055f6101000a81548173ffffffffffffffffffffffffffffffffffffffff021916908373ffffffffffffffffffffffffffffffffffffffff1602179055503480156100f7575f80fd5b503060045f6101000a81548173ffffffffffffffffffffffffffffffffffffffff021916908373ffffffffffffffffffffffffffffffffffffffff16021790555061056d565b5f81519050919050565b7f4e487b71000000000000000000000000000000000000000000000000000000005f52604160045260245ffd5b7f4e487b71000000000000000000000000000000000000000000000000000000005f52602260045260245ffd5b5f60028204905060018216806101b857607f821691505b6020821081036101cb576101ca610174565b5b50919050565b5f819050815f5260205f209050919050565b5f6020601f8301049050919050565b5f82821b905092915050565b5f6008830261022d7fffffffffffffffffffffffffffffffffffffffffffffffffffffffffffffffff826101f2565b61023786836101f2565b95508019841693508086168417925050509392505050565b5f819050919050565b5f819050919050565b5f61027b6102766102718461024f565b610258565b61024f565b9050919050565b5f819050919050565b61029483610261565b6102a86102a082610282565b8484546101fe565b825550505050565b5f90565b6102bc6102b0565b6102c781848461028b565b505050565b5b818110156102ea576102df5f826102b4565b6001810190506102cd565b5050565b601f82111561032f57610300816101d1565b610309846101e3565b81016020851015610318578190505b61032c610324856101e3565b8301826102cc565b50505b505050565b5f82821c905092915050565b5f61034f5f1984600802610334565b1980831691505092915050565b5f6103678383610340565b9150826002028217905092915050565b6103808261013d565b67ffffffffffffffff81111561039957610398610147565b5b6103a382546101a1565b6103ae8282856102ee565b5f60209050601f8311600181146103df575f84156103cd578287015190505b6103d7858261035c565b86555061043e565b601f1984166103ed866101d1565b5f5b82811015610414578489015182556001820191506020850194506020810190506103ef565b86831015610431578489015161042d601f891682610340565b8355505b6001600288020188555050505b505050505050565b5f819050815f5260205f209050919050565b601f8211156104995761046a81610446565b610473846101e3565b81016020851015610482578190505b61049661048e856101e3565b8301826102cc565b50505b505050565b6104a78261013d565b67ffffffffffffffff8111156104c0576104bf610147565b5b6104ca82546101a1565b6104d5828285610458565b5f60209050601f831160018114610506575f84156104f4578287015190505b6104fe858261035c565b865550610565565b601f19841661051486610446565b5f5b8281101561053b57848901518255600182019150602085019450602081019050610516565b868310156105585784890151610554601f891682610340565b8355505b6001600288020188555050505b505050505050565b610c3e8061057a5f395ff3fe608060405234801561000f575f80fd5b50600436106100a7575f3560e01c80637b86ee251161006f5780637b86ee251461013f5780639a1662991461015d578063a65046571461017b578063a8a7b89514610197578063b4079cb3146101b3578063ce6d41de146101e3576100a7565b806303c1e908146100ab57806308e150a7146100c9578063368b8772146100e75780634fc847911461010357806379f2140514610121575b5f80fd5b6100b3610201565b6040516100c09190610447565b60405180910390f35b6100d1610240565b6040516100de9190610447565b60405180910390f35b61010160048036038101906100fc91906104d2565b610255565b005b61010b610292565b604051610118919061055c565b60405180910390f35b6101296102b7565b6040516101369190610447565b60405180910390f35b6101476102c0565b604051610154919061058f565b60405180910390f35b6101656102c8565b604051610172919061055c565b60405180910390f35b610195600480360381019061019091906105d2565b6102f0565b005b6101b160048036038101906101ac9190610627565b610306565b005b6101cd60048036038101906101c8919061078a565b610349565b6040516101da919061058f565b60405180910390f35b6101eb6103a0565b6040516101f89190610831565b60405180910390f35b5f60045f9054906101000a900473ffffffffffffffffffffffffffffffffffffffff1673ffffffffffffffffffffffffffffffffffffffff1631905090565b5f6001805461024e9061087e565b9050905090565b81815f9182610265929190610a55565b5060025f9054906101000a900460ff161560025f6101000a81548160ff0219169083151502179055505050565b60055f9054906101000a900473ffffffffffffffffffffffffffffffffffffffff1681565b5f600354905090565b5f6001905090565b5f60045f9054906101000a900473ffffffffffffffffffffffffffffffffffffffff16905090565b606481106102fc575f80fd5b8060038190555050565b8060045f6101000a81548173ffffffffffffffffffffffffffffffffffffffff021916908373ffffffffffffffffffffffffffffffffffffffff16021790555050565b5f8160405160200161035b9190610b5c565b604051602081830303815290604052805190602001205f6040516020016103829190610bf2565b60405160208183030381529060405280519060200120149050919050565b60605f80546103ae9061087e565b80601f01602080910402602001604051908101604052809291908181526020018280546103da9061087e565b80156104255780601f106103fc57610100808354040283529160200191610425565b820191905f5260205f20905b81548152906001019060200180831161040857829003601f168201915b5050505050905090565b5f819050919050565b6104418161042f565b82525050565b5f60208201905061045a5f830184610438565b92915050565b5f604051905090565b5f80fd5b5f80fd5b5f80fd5b5f80fd5b5f80fd5b5f8083601f84011261049257610491610471565b5b8235905067ffffffffffffffff8111156104af576104ae610475565b5b6020830191508360018202830111156104cb576104ca610479565b5b9250929050565b5f80602083850312156104e8576104e7610469565b5b5f83013567ffffffffffffffff8111156105055761050461046d565b5b6105118582860161047d565b92509250509250929050565b5f73ffffffffffffffffffffffffffffffffffffffff82169050919050565b5f6105468261051d565b9050919050565b6105568161053c565b82525050565b5f60208201905061056f5f83018461054d565b92915050565b5f8115159050919050565b61058981610575565b82525050565b5f6020820190506105a25f830184610580565b92915050565b6105b18161042f565b81146105bb575f80fd5b50565b5f813590506105cc816105a8565b92915050565b5f602082840312156105e7576105e6610469565b5b5f6105f4848285016105be565b91505092915050565b6106068161053c565b8114610610575f80fd5b50565b5f81359050610621816105fd565b92915050565b5f6020828403121561063c5761063b610469565b5b5f61064984828501610613565b91505092915050565b5f80fd5b5f601f19601f8301169050919050565b7f4e487b71000000000000000000000000000000000000000000000000000000005f52604160045260245ffd5b61069c82610656565b810181811067ffffffffffffffff821117156106bb576106ba610666565b5b80604052505050565b5f6106cd610460565b90506106d98282610693565b919050565b5f67ffffffffffffffff8211156106f8576106f7610666565b5b61070182610656565b9050602081019050919050565b828183375f83830152505050565b5f61072e610729846106de565b6106c4565b90508281526020810184848401111561074a57610749610652565b5b61075584828561070e565b509392505050565b5f82601f83011261077157610770610471565b5b813561078184826020860161071c565b91505092915050565b5f6020828403121561079f5761079e610469565b5b5f82013567ffffffffffffffff8111156107bc576107bb61046d565b5b6107c88482850161075d565b91505092915050565b5f81519050919050565b5f82825260208201905092915050565b8281835e5f83830152505050565b5f610803826107d1565b61080d81856107db565b935061081d8185602086016107eb565b61082681610656565b840191505092915050565b5f6020820190508181035f83015261084981846107f9565b905092915050565b7f4e487b71000000000000000000000000000000000000000000000000000000005f52602260045260245ffd5b5f600282049050600182168061089557607f821691505b6020821081036108a8576108a7610851565b5b50919050565b5f82905092915050565b5f819050815f5260205f209050919050565b5f6020601f8301049050919050565b5f82821b905092915050565b5f600883026109147fffffffffffffffffffffffffffffffffffffffffffffffffffffffffffffffff826108d9565b61091e86836108d9565b95508019841693508086168417925050509392505050565b5f819050919050565b5f61095961095461094f8461042f565b610936565b61042f565b9050919050565b5f819050919050565b6109728361093f565b61098661097e82610960565b8484546108e5565b825550505050565b5f90565b61099a61098e565b6109a5818484610969565b505050565b5b818110156109c8576109bd5f82610992565b6001810190506109ab565b5050565b601f821115610a0d576109de816108b8565b6109e7846108ca565b810160208510156109f6578190505b610a0a610a02856108ca565b8301826109aa565b50505b505050565b5f82821c905092915050565b5f610a2d5f1984600802610a12565b1980831691505092915050565b5f610a458383610a1e565b9150826002028217905092915050565b610a5f83836108ae565b67ffffffffffffffff811115610a7857610a77610666565b5b610a82825461087e565b610a8d8282856109cc565b5f601f831160018114610aba575f8415610aa8578287013590505b610ab28582610a3a565b865550610b19565b601f198416610ac8866108b8565b5f5b82811015610aef57848901358255600182019150602085019450602081019050610aca565b86831015610b0c5784890135610b08601f891682610a1e565b8355505b6001600288020188555050505b50505050505050565b5f81905092915050565b5f610b36826107d1565b610b408185610b22565b9350610b508185602086016107eb565b80840191505092915050565b5f610b678284610b2c565b915081905092915050565b5f8154610b7e8161087e565b610b888186610b22565b9450600182165f8114610ba25760018114610bb757610be9565b60ff1983168652811515820286019350610be9565b610bc0856108b8565b5f5b83811015610be157815481890152600182019150602081019050610bc2565b838801955050505b50505092915050565b5f610bfd8284610b72565b91508190509291505056fea2646970667358221220f3143a7a2e63a4d32ca1cc661c23b7f1514d34dd7a2c8e9b1bbf6c315dd7605f64736f6c634300081a0033",
					"opcodes": "PUSH1 0x80 PUSH1 0x40 MSTORE PUSH1 0x40 MLOAD DUP1 PUSH1 0x40 ADD PUSH1 0x40 MSTORE DUP1 PUSH1 0xC DUP2 MSTORE PUSH1 0x20 ADD PUSH32 0x48656C6C6F20776F726C64210000000000000000000000000000000000000000 DUP2 MSTORE POP PUSH0 SWAP1 DUP2 PUSH2 0x47 SWAP2 SWAP1 PUSH2 0x377 JUMP JUMPDEST POP PUSH1 0x40 MLOAD DUP1 PUSH1 0x40 ADD PUSH1 0x40 MSTORE DUP1 PUSH1 0xF DUP2 MSTORE PUSH1 0x20 ADD PUSH32 0x48656C6C6F20776F726C6421E1BABF0000000000000000000000000000000000 DUP2 MSTORE POP PUSH1 0x1 SWAP1 DUP2 PUSH2 0x8C SWAP2 SWAP1 PUSH2 0x49E JUMP JUMPDEST POP PUSH1 0x1 PUSH1 0x2 PUSH0 PUSH2 0x100 EXP DUP2 SLOAD DUP2 PUSH1 0xFF MUL NOT AND SWAP1 DUP4 ISZERO ISZERO MUL OR SWAP1 SSTORE POP PUSH1 0x1 PUSH1 0x3 SSTORE CALLER PUSH1 0x5 PUSH0 PUSH2 0x100 EXP DUP2 SLOAD DUP2 PUSH20 0xFFFFFFFFFFFFFFFFFFFFFFFFFFFFFFFFFFFFFFFF MUL NOT AND SWAP1 DUP4 PUSH20 0xFFFFFFFFFFFFFFFFFFFFFFFFFFFFFFFFFFFFFFFF AND MUL OR SWAP1 SSTORE POP CALLVALUE DUP1 ISZERO PUSH2 0xF7 JUMPI PUSH0 DUP1 REVERT JUMPDEST POP ADDRESS PUSH1 0x4 PUSH0 PUSH2 0x100 EXP DUP2 SLOAD DUP2 PUSH20 0xFFFFFFFFFFFFFFFFFFFFFFFFFFFFFFFFFFFFFFFF MUL NOT AND SWAP1 DUP4 PUSH20 0xFFFFFFFFFFFFFFFFFFFFFFFFFFFFFFFFFFFFFFFF AND MUL OR SWAP1 SSTORE POP PUSH2 0x56D JUMP JUMPDEST PUSH0 DUP2 MLOAD SWAP1 POP SWAP2 SWAP1 POP JUMP JUMPDEST PUSH32 0x4E487B7100000000000000000000000000000000000000000000000000000000 PUSH0 MSTORE PUSH1 0x41 PUSH1 0x4 MSTORE PUSH1 0x24 PUSH0 REVERT JUMPDEST PUSH32 0x4E487B7100000000000000000000000000000000000000000000000000000000 PUSH0 MSTORE PUSH1 0x22 PUSH1 0x4 MSTORE PUSH1 0x24 PUSH0 REVERT JUMPDEST PUSH0 PUSH1 0x2 DUP3 DIV SWAP1 POP PUSH1 0x1 DUP3 AND DUP1 PUSH2 0x1B8 JUMPI PUSH1 0x7F DUP3 AND SWAP2 POP JUMPDEST PUSH1 0x20 DUP3 LT DUP2 SUB PUSH2 0x1CB JUMPI PUSH2 0x1CA PUSH2 0x174 JUMP JUMPDEST JUMPDEST POP SWAP2 SWAP1 POP JUMP JUMPDEST PUSH0 DUP2 SWAP1 POP DUP2 PUSH0 MSTORE PUSH1 0x20 PUSH0 KECCAK256 SWAP1 POP SWAP2 SWAP1 POP JUMP JUMPDEST PUSH0 PUSH1 0x20 PUSH1 0x1F DUP4 ADD DIV SWAP1 POP SWAP2 SWAP1 POP JUMP JUMPDEST PUSH0 DUP3 DUP3 SHL SWAP1 POP SWAP3 SWAP2 POP POP JUMP JUMPDEST PUSH0 PUSH1 0x8 DUP4 MUL PUSH2 0x22D PUSH32 0xFFFFFFFFFFFFFFFFFFFFFFFFFFFFFFFFFFFFFFFFFFFFFFFFFFFFFFFFFFFFFFFF DUP3 PUSH2 0x1F2 JUMP JUMPDEST PUSH2 0x237 DUP7 DUP4 PUSH2 0x1F2 JUMP JUMPDEST SWAP6 POP DUP1 NOT DUP5 AND SWAP4 POP DUP1 DUP7 AND DUP5 OR SWAP3 POP POP POP SWAP4 SWAP3 POP POP POP JUMP JUMPDEST PUSH0 DUP2 SWAP1 POP SWAP2 SWAP1 POP JUMP JUMPDEST PUSH0 DUP2 SWAP1 POP SWAP2 SWAP1 POP JUMP JUMPDEST PUSH0 PUSH2 0x27B PUSH2 0x276 PUSH2 0x271 DUP5 PUSH2 0x24F JUMP JUMPDEST PUSH2 0x258 JUMP JUMPDEST PUSH2 0x24F JUMP JUMPDEST SWAP1 POP SWAP2 SWAP1 POP JUMP JUMPDEST PUSH0 DUP2 SWAP1 POP SWAP2 SWAP1 POP JUMP JUMPDEST PUSH2 0x294 DUP4 PUSH2 0x261 JUMP JUMPDEST PUSH2 0x2A8 PUSH2 0x2A0 DUP3 PUSH2 0x282 JUMP JUMPDEST DUP5 DUP5 SLOAD PUSH2 0x1FE JUMP JUMPDEST DUP3 SSTORE POP POP POP POP JUMP JUMPDEST PUSH0 SWAP1 JUMP JUMPDEST PUSH2 0x2BC PUSH2 0x2B0 JUMP JUMPDEST PUSH2 0x2C7 DUP2 DUP5 DUP5 PUSH2 0x28B JUMP JUMPDEST POP POP POP JUMP JUMPDEST JUMPDEST DUP2 DUP2 LT ISZERO PUSH2 0x2EA JUMPI PUSH2 0x2DF PUSH0 DUP3 PUSH2 0x2B4 JUMP JUMPDEST PUSH1 0x1 DUP2 ADD SWAP1 POP PUSH2 0x2CD JUMP JUMPDEST POP POP JUMP JUMPDEST PUSH1 0x1F DUP3 GT ISZERO PUSH2 0x32F JUMPI PUSH2 0x300 DUP2 PUSH2 0x1D1 JUMP JUMPDEST PUSH2 0x309 DUP5 PUSH2 0x1E3 JUMP JUMPDEST DUP2 ADD PUSH1 0x20 DUP6 LT ISZERO PUSH2 0x318 JUMPI DUP2 SWAP1 POP JUMPDEST PUSH2 0x32C PUSH2 0x324 DUP6 PUSH2 0x1E3 JUMP JUMPDEST DUP4 ADD DUP3 PUSH2 0x2CC JUMP JUMPDEST POP POP JUMPDEST POP POP POP JUMP JUMPDEST PUSH0 DUP3 DUP3 SHR SWAP1 POP SWAP3 SWAP2 POP POP JUMP JUMPDEST PUSH0 PUSH2 0x34F PUSH0 NOT DUP5 PUSH1 0x8 MUL PUSH2 0x334 JUMP JUMPDEST NOT DUP1 DUP4 AND SWAP2 POP POP SWAP3 SWAP2 POP POP JUMP JUMPDEST PUSH0 PUSH2 0x367 DUP4 DUP4 PUSH2 0x340 JUMP JUMPDEST SWAP2 POP DUP3 PUSH1 0x2 MUL DUP3 OR SWAP1 POP SWAP3 SWAP2 POP POP JUMP JUMPDEST PUSH2 0x380 DUP3 PUSH2 0x13D JUMP JUMPDEST PUSH8 0xFFFFFFFFFFFFFFFF DUP2 GT ISZERO PUSH2 0x399 JUMPI PUSH2 0x398 PUSH2 0x147 JUMP JUMPDEST JUMPDEST PUSH2 0x3A3 DUP3 SLOAD PUSH2 0x1A1 JUMP JUMPDEST PUSH2 0x3AE DUP3 DUP3 DUP6 PUSH2 0x2EE JUMP JUMPDEST PUSH0 PUSH1 0x20 SWAP1 POP PUSH1 0x1F DUP4 GT PUSH1 0x1 DUP2 EQ PUSH2 0x3DF JUMPI PUSH0 DUP5 ISZERO PUSH2 0x3CD JUMPI DUP3 DUP8 ADD MLOAD SWAP1 POP JUMPDEST PUSH2 0x3D7 DUP6 DUP3 PUSH2 0x35C JUMP JUMPDEST DUP7 SSTORE POP PUSH2 0x43E JUMP JUMPDEST PUSH1 0x1F NOT DUP5 AND PUSH2 0x3ED DUP7 PUSH2 0x1D1 JUMP JUMPDEST PUSH0 JUMPDEST DUP3 DUP2 LT ISZERO PUSH2 0x414 JUMPI DUP5 DUP10 ADD MLOAD DUP3 SSTORE PUSH1 0x1 DUP3 ADD SWAP2 POP PUSH1 0x20 DUP6 ADD SWAP5 POP PUSH1 0x20 DUP2 ADD SWAP1 POP PUSH2 0x3EF JUMP JUMPDEST DUP7 DUP4 LT ISZERO PUSH2 0x431 JUMPI DUP5 DUP10 ADD MLOAD PUSH2 0x42D PUSH1 0x1F DUP10 AND DUP3 PUSH2 0x340 JUMP JUMPDEST DUP4 SSTORE POP JUMPDEST PUSH1 0x1 PUSH1 0x2 DUP9 MUL ADD DUP9 SSTORE POP POP POP JUMPDEST POP POP POP POP POP POP JUMP JUMPDEST PUSH0 DUP2 SWAP1 POP DUP2 PUSH0 MSTORE PUSH1 0x20 PUSH0 KECCAK256 SWAP1 POP SWAP2 SWAP1 POP JUMP JUMPDEST PUSH1 0x1F DUP3 GT ISZERO PUSH2 0x499 JUMPI PUSH2 0x46A DUP2 PUSH2 0x446 JUMP JUMPDEST PUSH2 0x473 DUP5 PUSH2 0x1E3 JUMP JUMPDEST DUP2 ADD PUSH1 0x20 DUP6 LT ISZERO PUSH2 0x482 JUMPI DUP2 SWAP1 POP JUMPDEST PUSH2 0x496 PUSH2 0x48E DUP6 PUSH2 0x1E3 JUMP JUMPDEST DUP4 ADD DUP3 PUSH2 0x2CC JUMP JUMPDEST POP POP JUMPDEST POP POP POP JUMP JUMPDEST PUSH2 0x4A7 DUP3 PUSH2 0x13D JUMP JUMPDEST PUSH8 0xFFFFFFFFFFFFFFFF DUP2 GT ISZERO PUSH2 0x4C0 JUMPI PUSH2 0x4BF PUSH2 0x147 JUMP JUMPDEST JUMPDEST PUSH2 0x4CA DUP3 SLOAD PUSH2 0x1A1 JUMP JUMPDEST PUSH2 0x4D5 DUP3 DUP3 DUP6 PUSH2 0x458 JUMP JUMPDEST PUSH0 PUSH1 0x20 SWAP1 POP PUSH1 0x1F DUP4 GT PUSH1 0x1 DUP2 EQ PUSH2 0x506 JUMPI PUSH0 DUP5 ISZERO PUSH2 0x4F4 JUMPI DUP3 DUP8 ADD MLOAD SWAP1 POP JUMPDEST PUSH2 0x4FE DUP6 DUP3 PUSH2 0x35C JUMP JUMPDEST DUP7 SSTORE POP PUSH2 0x565 JUMP JUMPDEST PUSH1 0x1F NOT DUP5 AND PUSH2 0x514 DUP7 PUSH2 0x446 JUMP JUMPDEST PUSH0 JUMPDEST DUP3 DUP2 LT ISZERO PUSH2 0x53B JUMPI DUP5 DUP10 ADD MLOAD DUP3 SSTORE PUSH1 0x1 DUP3 ADD SWAP2 POP PUSH1 0x20 DUP6 ADD SWAP5 POP PUSH1 0x20 DUP2 ADD SWAP1 POP PUSH2 0x516 JUMP JUMPDEST DUP7 DUP4 LT ISZERO PUSH2 0x558 JUMPI DUP5 DUP10 ADD MLOAD PUSH2 0x554 PUSH1 0x1F DUP10 AND DUP3 PUSH2 0x340 JUMP JUMPDEST DUP4 SSTORE POP JUMPDEST PUSH1 0x1 PUSH1 0x2 DUP9 MUL ADD DUP9 SSTORE POP POP POP JUMPDEST POP POP POP POP POP POP JUMP JUMPDEST PUSH2 0xC3E DUP1 PUSH2 0x57A PUSH0 CODECOPY PUSH0 RETURN INVALID PUSH1 0x80 PUSH1 0x40 MSTORE CALLVALUE DUP1 ISZERO PUSH2 0xF JUMPI PUSH0 DUP1 REVERT JUMPDEST POP PUSH1 0x4 CALLDATASIZE LT PUSH2 0xA7 JUMPI PUSH0 CALLDATALOAD PUSH1 0xE0 SHR DUP1 PUSH4 0x7B86EE25 GT PUSH2 0x6F JUMPI DUP1 PUSH4 0x7B86EE25 EQ PUSH2 0x13F JUMPI DUP1 PUSH4 0x9A166299 EQ PUSH2 0x15D JUMPI DUP1 PUSH4 0xA6504657 EQ PUSH2 0x17B JUMPI DUP1 PUSH4 0xA8A7B895 EQ PUSH2 0x197 JUMPI DUP1 PUSH4 0xB4079CB3 EQ PUSH2 0x1B3 JUMPI DUP1 PUSH4 0xCE6D41DE EQ PUSH2 0x1E3 JUMPI PUSH2 0xA7 JUMP JUMPDEST DUP1 PUSH4 0x3C1E908 EQ PUSH2 0xAB JUMPI DUP1 PUSH4 0x8E150A7 EQ PUSH2 0xC9 JUMPI DUP1 PUSH4 0x368B8772 EQ PUSH2 0xE7 JUMPI DUP1 PUSH4 0x4FC84791 EQ PUSH2 0x103 JUMPI DUP1 PUSH4 0x79F21405 EQ PUSH2 0x121 JUMPI JUMPDEST PUSH0 DUP1 REVERT JUMPDEST PUSH2 0xB3 PUSH2 0x201 JUMP JUMPDEST PUSH1 0x40 MLOAD PUSH2 0xC0 SWAP2 SWAP1 PUSH2 0x447 JUMP JUMPDEST PUSH1 0x40 MLOAD DUP1 SWAP2 SUB SWAP1 RETURN JUMPDEST PUSH2 0xD1 PUSH2 0x240 JUMP JUMPDEST PUSH1 0x40 MLOAD PUSH2 0xDE SWAP2 SWAP1 PUSH2 0x447 JUMP JUMPDEST PUSH1 0x40 MLOAD DUP1 SWAP2 SUB SWAP1 RETURN JUMPDEST PUSH2 0x101 PUSH1 0x4 DUP1 CALLDATASIZE SUB DUP2 ADD SWAP1 PUSH2 0xFC SWAP2 SWAP1 PUSH2 0x4D2 JUMP JUMPDEST PUSH2 0x255 JUMP JUMPDEST STOP JUMPDEST PUSH2 0x10B PUSH2 0x292 JUMP JUMPDEST PUSH1 0x40 MLOAD PUSH2 0x118 SWAP2 SWAP1 PUSH2 0x55C JUMP JUMPDEST PUSH1 0x40 MLOAD DUP1 SWAP2 SUB SWAP1 RETURN JUMPDEST PUSH2 0x129 PUSH2 0x2B7 JUMP JUMPDEST PUSH1 0x40 MLOAD PUSH2 0x136 SWAP2 SWAP1 PUSH2 0x447 JUMP JUMPDEST PUSH1 0x40 MLOAD DUP1 SWAP2 SUB SWAP1 RETURN JUMPDEST PUSH2 0x147 PUSH2 0x2C0 JUMP JUMPDEST PUSH1 0x40 MLOAD PUSH2 0x154 SWAP2 SWAP1 PUSH2 0x58F JUMP JUMPDEST PUSH1 0x40 MLOAD DUP1 SWAP2 SUB SWAP1 RETURN JUMPDEST PUSH2 0x165 PUSH2 0x2C8 JUMP JUMPDEST PUSH1 0x40 MLOAD PUSH2 0x172 SWAP2 SWAP1 PUSH2 0x55C JUMP JUMPDEST PUSH1 0x40 MLOAD DUP1 SWAP2 SUB SWAP1 RETURN JUMPDEST PUSH2 0x195 PUSH1 0x4 DUP1 CALLDATASIZE SUB DUP2 ADD SWAP1 PUSH2 0x190 SWAP2 SWAP1 PUSH2 0x5D2 JUMP JUMPDEST PUSH2 0x2F0 JUMP JUMPDEST STOP JUMPDEST PUSH2 0x1B1 PUSH1 0x4 DUP1 CALLDATASIZE SUB DUP2 ADD SWAP1 PUSH2 0x1AC SWAP2 SWAP1 PUSH2 0x627 JUMP JUMPDEST PUSH2 0x306 JUMP JUMPDEST STOP JUMPDEST PUSH2 0x1CD PUSH1 0x4 DUP1 CALLDATASIZE SUB DUP2 ADD SWAP1 PUSH2 0x1C8 SWAP2 SWAP1 PUSH2 0x78A JUMP JUMPDEST PUSH2 0x349 JUMP JUMPDEST PUSH1 0x40 MLOAD PUSH2 0x1DA SWAP2 SWAP1 PUSH2 0x58F JUMP JUMPDEST PUSH1 0x40 MLOAD DUP1 SWAP2 SUB SWAP1 RETURN JUMPDEST PUSH2 0x1EB PUSH2 0x3A0 JUMP JUMPDEST PUSH1 0x40 MLOAD PUSH2 0x1F8 SWAP2 SWAP1 PUSH2 0x831 JUMP JUMPDEST PUSH1 0x40 MLOAD DUP1 SWAP2 SUB SWAP1 RETURN JUMPDEST PUSH0 PUSH1 0x4 PUSH0 SWAP1 SLOAD SWAP1 PUSH2 0x100 EXP SWAP1 DIV PUSH20 0xFFFFFFFFFFFFFFFFFFFFFFFFFFFFFFFFFFFFFFFF AND PUSH20 0xFFFFFFFFFFFFFFFFFFFFFFFFFFFFFFFFFFFFFFFF AND BALANCE SWAP1 POP SWAP1 JUMP JUMPDEST PUSH0 PUSH1 0x1 DUP1 SLOAD PUSH2 0x24E SWAP1 PUSH2 0x87E JUMP JUMPDEST SWAP1 POP SWAP1 POP SWAP1 JUMP JUMPDEST DUP2 DUP2 PUSH0 SWAP2 DUP3 PUSH2 0x265 SWAP3 SWAP2 SWAP1 PUSH2 0xA55 JUMP JUMPDEST POP PUSH1 0x2 PUSH0 SWAP1 SLOAD SWAP1 PUSH2 0x100 EXP SWAP1 DIV PUSH1 0xFF AND ISZERO PUSH1 0x2 PUSH0 PUSH2 0x100 EXP DUP2 SLOAD DUP2 PUSH1 0xFF MUL NOT AND SWAP1 DUP4 ISZERO ISZERO MUL OR SWAP1 SSTORE POP POP POP JUMP JUMPDEST PUSH1 0x5 PUSH0 SWAP1 SLOAD SWAP1 PUSH2 0x100 EXP SWAP1 DIV PUSH20 0xFFFFFFFFFFFFFFFFFFFFFFFFFFFFFFFFFFFFFFFF AND DUP2 JUMP JUMPDEST PUSH0 PUSH1 0x3 SLOAD SWAP1 POP SWAP1 JUMP JUMPDEST PUSH0 PUSH1 0x1 SWAP1 POP SWAP1 JUMP JUMPDEST PUSH0 PUSH1 0x4 PUSH0 SWAP1 SLOAD SWAP1 PUSH2 0x100 EXP SWAP1 DIV PUSH20 0xFFFFFFFFFFFFFFFFFFFFFFFFFFFFFFFFFFFFFFFF AND SWAP1 POP SWAP1 JUMP JUMPDEST PUSH1 0x64 DUP2 LT PUSH2 0x2FC JUMPI PUSH0 DUP1 REVERT JUMPDEST DUP1 PUSH1 0x3 DUP2 SWAP1 SSTORE POP POP JUMP JUMPDEST DUP1 PUSH1 0x4 PUSH0 PUSH2 0x100 EXP DUP2 SLOAD DUP2 PUSH20 0xFFFFFFFFFFFFFFFFFFFFFFFFFFFFFFFFFFFFFFFF MUL NOT AND SWAP1 DUP4 PUSH20 0xFFFFFFFFFFFFFFFFFFFFFFFFFFFFFFFFFFFFFFFF AND MUL OR SWAP1 SSTORE POP POP JUMP JUMPDEST PUSH0 DUP2 PUSH1 0x40 MLOAD PUSH1 0x20 ADD PUSH2 0x35B SWAP2 SWAP1 PUSH2 0xB5C JUMP JUMPDEST PUSH1 0x40 MLOAD PUSH1 0x20 DUP2 DUP4 SUB SUB DUP2 MSTORE SWAP1 PUSH1 0x40 MSTORE DUP1 MLOAD SWAP1 PUSH1 0x20 ADD KECCAK256 PUSH0 PUSH1 0x40 MLOAD PUSH1 0x20 ADD PUSH2 0x382 SWAP2 SWAP1 PUSH2 0xBF2 JUMP JUMPDEST PUSH1 0x40 MLOAD PUSH1 0x20 DUP2 DUP4 SUB SUB DUP2 MSTORE SWAP1 PUSH1 0x40 MSTORE DUP1 MLOAD SWAP1 PUSH1 0x20 ADD KECCAK256 EQ SWAP1 POP SWAP2 SWAP1 POP JUMP JUMPDEST PUSH1 0x60 PUSH0 DUP1 SLOAD PUSH2 0x3AE SWAP1 PUSH2 0x87E JUMP JUMPDEST DUP1 PUSH1 0x1F ADD PUSH1 0x20 DUP1 SWAP2 DIV MUL PUSH1 0x20 ADD PUSH1 0x40 MLOAD SWAP1 DUP2 ADD PUSH1 0x40 MSTORE DUP1 SWAP3 SWAP2 SWAP1 DUP2 DUP2 MSTORE PUSH1 0x20 ADD DUP3 DUP1 SLOAD PUSH2 0x3DA SWAP1 PUSH2 0x87E JUMP JUMPDEST DUP1 ISZERO PUSH2 0x425 JUMPI DUP1 PUSH1 0x1F LT PUSH2 0x3FC JUMPI PUSH2 0x100 DUP1 DUP4 SLOAD DIV MUL DUP4 MSTORE SWAP2 PUSH1 0x20 ADD SWAP2 PUSH2 0x425 JUMP JUMPDEST DUP3 ADD SWAP2 SWAP1 PUSH0 MSTORE PUSH1 0x20 PUSH0 KECCAK256 SWAP1 JUMPDEST DUP2 SLOAD DUP2 MSTORE SWAP1 PUSH1 0x1 ADD SWAP1 PUSH1 0x20 ADD DUP1 DUP4 GT PUSH2 0x408 JUMPI DUP3 SWAP1 SUB PUSH1 0x1F AND DUP3 ADD SWAP2 JUMPDEST POP POP POP POP POP SWAP1 POP SWAP1 JUMP JUMPDEST PUSH0 DUP2 SWAP1 POP SWAP2 SWAP1 POP JUMP JUMPDEST PUSH2 0x441 DUP2 PUSH2 0x42F JUMP JUMPDEST DUP3 MSTORE POP POP JUMP JUMPDEST PUSH0 PUSH1 0x20 DUP3 ADD SWAP1 POP PUSH2 0x45A PUSH0 DUP4 ADD DUP5 PUSH2 0x438 JUMP JUMPDEST SWAP3 SWAP2 POP POP JUMP JUMPDEST PUSH0 PUSH1 0x40 MLOAD SWAP1 POP SWAP1 JUMP JUMPDEST PUSH0 DUP1 REVERT JUMPDEST PUSH0 DUP1 REVERT JUMPDEST PUSH0 DUP1 REVERT JUMPDEST PUSH0 DUP1 REVERT JUMPDEST PUSH0 DUP1 REVERT JUMPDEST PUSH0 DUP1 DUP4 PUSH1 0x1F DUP5 ADD SLT PUSH2 0x492 JUMPI PUSH2 0x491 PUSH2 0x471 JUMP JUMPDEST JUMPDEST DUP3 CALLDATALOAD SWAP1 POP PUSH8 0xFFFFFFFFFFFFFFFF DUP2 GT ISZERO PUSH2 0x4AF JUMPI PUSH2 0x4AE PUSH2 0x475 JUMP JUMPDEST JUMPDEST PUSH1 0x20 DUP4 ADD SWAP2 POP DUP4 PUSH1 0x1 DUP3 MUL DUP4 ADD GT ISZERO PUSH2 0x4CB JUMPI PUSH2 0x4CA PUSH2 0x479 JUMP JUMPDEST JUMPDEST SWAP3 POP SWAP3 SWAP1 POP JUMP JUMPDEST PUSH0 DUP1 PUSH1 0x20 DUP4 DUP6 SUB SLT ISZERO PUSH2 0x4E8 JUMPI PUSH2 0x4E7 PUSH2 0x469 JUMP JUMPDEST JUMPDEST PUSH0 DUP4 ADD CALLDATALOAD PUSH8 0xFFFFFFFFFFFFFFFF DUP2 GT ISZERO PUSH2 0x505 JUMPI PUSH2 0x504 PUSH2 0x46D JUMP JUMPDEST JUMPDEST PUSH2 0x511 DUP6 DUP3 DUP7 ADD PUSH2 0x47D JUMP JUMPDEST SWAP3 POP SWAP3 POP POP SWAP3 POP SWAP3 SWAP1 POP JUMP JUMPDEST PUSH0 PUSH20 0xFFFFFFFFFFFFFFFFFFFFFFFFFFFFFFFFFFFFFFFF DUP3 AND SWAP1 POP SWAP2 SWAP1 POP JUMP JUMPDEST PUSH0 PUSH2 0x546 DUP3 PUSH2 0x51D JUMP JUMPDEST SWAP1 POP SWAP2 SWAP1 POP JUMP JUMPDEST PUSH2 0x556 DUP2 PUSH2 0x53C JUMP JUMPDEST DUP3 MSTORE POP POP JUMP JUMPDEST PUSH0 PUSH1 0x20 DUP3 ADD SWAP1 POP PUSH2 0x56F PUSH0 DUP4 ADD DUP5 PUSH2 0x54D JUMP JUMPDEST SWAP3 SWAP2 POP POP JUMP JUMPDEST PUSH0 DUP2 ISZERO ISZERO SWAP1 POP SWAP2 SWAP1 POP JUMP JUMPDEST PUSH2 0x589 DUP2 PUSH2 0x575 JUMP JUMPDEST DUP3 MSTORE POP POP JUMP JUMPDEST PUSH0 PUSH1 0x20 DUP3 ADD SWAP1 POP PUSH2 0x5A2 PUSH0 DUP4 ADD DUP5 PUSH2 0x580 JUMP JUMPDEST SWAP3 SWAP2 POP POP JUMP JUMPDEST PUSH2 0x5B1 DUP2 PUSH2 0x42F JUMP JUMPDEST DUP2 EQ PUSH2 0x5BB JUMPI PUSH0 DUP1 REVERT JUMPDEST POP JUMP JUMPDEST PUSH0 DUP2 CALLDATALOAD SWAP1 POP PUSH2 0x5CC DUP2 PUSH2 0x5A8 JUMP JUMPDEST SWAP3 SWAP2 POP POP JUMP JUMPDEST PUSH0 PUSH1 0x20 DUP3 DUP5 SUB SLT ISZERO PUSH2 0x5E7 JUMPI PUSH2 0x5E6 PUSH2 0x469 JUMP JUMPDEST JUMPDEST PUSH0 PUSH2 0x5F4 DUP5 DUP3 DUP6 ADD PUSH2 0x5BE JUMP JUMPDEST SWAP2 POP POP SWAP3 SWAP2 POP POP JUMP JUMPDEST PUSH2 0x606 DUP2 PUSH2 0x53C JUMP JUMPDEST DUP2 EQ PUSH2 0x610 JUMPI PUSH0 DUP1 REVERT JUMPDEST POP JUMP JUMPDEST PUSH0 DUP2 CALLDATALOAD SWAP1 POP PUSH2 0x621 DUP2 PUSH2 0x5FD JUMP JUMPDEST SWAP3 SWAP2 POP POP JUMP JUMPDEST PUSH0 PUSH1 0x20 DUP3 DUP5 SUB SLT ISZERO PUSH2 0x63C JUMPI PUSH2 0x63B PUSH2 0x469 JUMP JUMPDEST JUMPDEST PUSH0 PUSH2 0x649 DUP5 DUP3 DUP6 ADD PUSH2 0x613 JUMP JUMPDEST SWAP2 POP POP SWAP3 SWAP2 POP POP JUMP JUMPDEST PUSH0 DUP1 REVERT JUMPDEST PUSH0 PUSH1 0x1F NOT PUSH1 0x1F DUP4 ADD AND SWAP1 POP SWAP2 SWAP1 POP JUMP JUMPDEST PUSH32 0x4E487B7100000000000000000000000000000000000000000000000000000000 PUSH0 MSTORE PUSH1 0x41 PUSH1 0x4 MSTORE PUSH1 0x24 PUSH0 REVERT JUMPDEST PUSH2 0x69C DUP3 PUSH2 0x656 JUMP JUMPDEST DUP2 ADD DUP2 DUP2 LT PUSH8 0xFFFFFFFFFFFFFFFF DUP3 GT OR ISZERO PUSH2 0x6BB JUMPI PUSH2 0x6BA PUSH2 0x666 JUMP JUMPDEST JUMPDEST DUP1 PUSH1 0x40 MSTORE POP POP POP JUMP JUMPDEST PUSH0 PUSH2 0x6CD PUSH2 0x460 JUMP JUMPDEST SWAP1 POP PUSH2 0x6D9 DUP3 DUP3 PUSH2 0x693 JUMP JUMPDEST SWAP2 SWAP1 POP JUMP JUMPDEST PUSH0 PUSH8 0xFFFFFFFFFFFFFFFF DUP3 GT ISZERO PUSH2 0x6F8 JUMPI PUSH2 0x6F7 PUSH2 0x666 JUMP JUMPDEST JUMPDEST PUSH2 0x701 DUP3 PUSH2 0x656 JUMP JUMPDEST SWAP1 POP PUSH1 0x20 DUP2 ADD SWAP1 POP SWAP2 SWAP1 POP JUMP JUMPDEST DUP3 DUP2 DUP4 CALLDATACOPY PUSH0 DUP4 DUP4 ADD MSTORE POP POP POP JUMP JUMPDEST PUSH0 PUSH2 0x72E PUSH2 0x729 DUP5 PUSH2 0x6DE JUMP JUMPDEST PUSH2 0x6C4 JUMP JUMPDEST SWAP1 POP DUP3 DUP2 MSTORE PUSH1 0x20 DUP2 ADD DUP5 DUP5 DUP5 ADD GT ISZERO PUSH2 0x74A JUMPI PUSH2 0x749 PUSH2 0x652 JUMP JUMPDEST JUMPDEST PUSH2 0x755 DUP5 DUP3 DUP6 PUSH2 0x70E JUMP JUMPDEST POP SWAP4 SWAP3 POP POP POP JUMP JUMPDEST PUSH0 DUP3 PUSH1 0x1F DUP4 ADD SLT PUSH2 0x771 JUMPI PUSH2 0x770 PUSH2 0x471 JUMP JUMPDEST JUMPDEST DUP2 CALLDATALOAD PUSH2 0x781 DUP5 DUP3 PUSH1 0x20 DUP7 ADD PUSH2 0x71C JUMP JUMPDEST SWAP2 POP POP SWAP3 SWAP2 POP POP JUMP JUMPDEST PUSH0 PUSH1 0x20 DUP3 DUP5 SUB SLT ISZERO PUSH2 0x79F JUMPI PUSH2 0x79E PUSH2 0x469 JUMP JUMPDEST JUMPDEST PUSH0 DUP3 ADD CALLDATALOAD PUSH8 0xFFFFFFFFFFFFFFFF DUP2 GT ISZERO PUSH2 0x7BC JUMPI PUSH2 0x7BB PUSH2 0x46D JUMP JUMPDEST JUMPDEST PUSH2 0x7C8 DUP5 DUP3 DUP6 ADD PUSH2 0x75D JUMP JUMPDEST SWAP2 POP POP SWAP3 SWAP2 POP POP JUMP JUMPDEST PUSH0 DUP2 MLOAD SWAP1 POP SWAP2 SWAP1 POP JUMP JUMPDEST PUSH0 DUP3 DUP3 MSTORE PUSH1 0x20 DUP3 ADD SWAP1 POP SWAP3 SWAP2 POP POP JUMP JUMPDEST DUP3 DUP2 DUP4 MCOPY PUSH0 DUP4 DUP4 ADD MSTORE POP POP POP JUMP JUMPDEST PUSH0 PUSH2 0x803 DUP3 PUSH2 0x7D1 JUMP JUMPDEST PUSH2 0x80D DUP2 DUP6 PUSH2 0x7DB JUMP JUMPDEST SWAP4 POP PUSH2 0x81D DUP2 DUP6 PUSH1 0x20 DUP7 ADD PUSH2 0x7EB JUMP JUMPDEST PUSH2 0x826 DUP2 PUSH2 0x656 JUMP JUMPDEST DUP5 ADD SWAP2 POP POP SWAP3 SWAP2 POP POP JUMP JUMPDEST PUSH0 PUSH1 0x20 DUP3 ADD SWAP1 POP DUP2 DUP2 SUB PUSH0 DUP4 ADD MSTORE PUSH2 0x849 DUP2 DUP5 PUSH2 0x7F9 JUMP JUMPDEST SWAP1 POP SWAP3 SWAP2 POP POP JUMP JUMPDEST PUSH32 0x4E487B7100000000000000000000000000000000000000000000000000000000 PUSH0 MSTORE PUSH1 0x22 PUSH1 0x4 MSTORE PUSH1 0x24 PUSH0 REVERT JUMPDEST PUSH0 PUSH1 0x2 DUP3 DIV SWAP1 POP PUSH1 0x1 DUP3 AND DUP1 PUSH2 0x895 JUMPI PUSH1 0x7F DUP3 AND SWAP2 POP JUMPDEST PUSH1 0x20 DUP3 LT DUP2 SUB PUSH2 0x8A8 JUMPI PUSH2 0x8A7 PUSH2 0x851 JUMP JUMPDEST JUMPDEST POP SWAP2 SWAP1 POP JUMP JUMPDEST PUSH0 DUP3 SWAP1 POP SWAP3 SWAP2 POP POP JUMP JUMPDEST PUSH0 DUP2 SWAP1 POP DUP2 PUSH0 MSTORE PUSH1 0x20 PUSH0 KECCAK256 SWAP1 POP SWAP2 SWAP1 POP JUMP JUMPDEST PUSH0 PUSH1 0x20 PUSH1 0x1F DUP4 ADD DIV SWAP1 POP SWAP2 SWAP1 POP JUMP JUMPDEST PUSH0 DUP3 DUP3 SHL SWAP1 POP SWAP3 SWAP2 POP POP JUMP JUMPDEST PUSH0 PUSH1 0x8 DUP4 MUL PUSH2 0x914 PUSH32 0xFFFFFFFFFFFFFFFFFFFFFFFFFFFFFFFFFFFFFFFFFFFFFFFFFFFFFFFFFFFFFFFF DUP3 PUSH2 0x8D9 JUMP JUMPDEST PUSH2 0x91E DUP7 DUP4 PUSH2 0x8D9 JUMP JUMPDEST SWAP6 POP DUP1 NOT DUP5 AND SWAP4 POP DUP1 DUP7 AND DUP5 OR SWAP3 POP POP POP SWAP4 SWAP3 POP POP POP JUMP JUMPDEST PUSH0 DUP2 SWAP1 POP SWAP2 SWAP1 POP JUMP JUMPDEST PUSH0 PUSH2 0x959 PUSH2 0x954 PUSH2 0x94F DUP5 PUSH2 0x42F JUMP JUMPDEST PUSH2 0x936 JUMP JUMPDEST PUSH2 0x42F JUMP JUMPDEST SWAP1 POP SWAP2 SWAP1 POP JUMP JUMPDEST PUSH0 DUP2 SWAP1 POP SWAP2 SWAP1 POP JUMP JUMPDEST PUSH2 0x972 DUP4 PUSH2 0x93F JUMP JUMPDEST PUSH2 0x986 PUSH2 0x97E DUP3 PUSH2 0x960 JUMP JUMPDEST DUP5 DUP5 SLOAD PUSH2 0x8E5 JUMP JUMPDEST DUP3 SSTORE POP POP POP POP JUMP JUMPDEST PUSH0 SWAP1 JUMP JUMPDEST PUSH2 0x99A PUSH2 0x98E JUMP JUMPDEST PUSH2 0x9A5 DUP2 DUP5 DUP5 PUSH2 0x969 JUMP JUMPDEST POP POP POP JUMP JUMPDEST JUMPDEST DUP2 DUP2 LT ISZERO PUSH2 0x9C8 JUMPI PUSH2 0x9BD PUSH0 DUP3 PUSH2 0x992 JUMP JUMPDEST PUSH1 0x1 DUP2 ADD SWAP1 POP PUSH2 0x9AB JUMP JUMPDEST POP POP JUMP JUMPDEST PUSH1 0x1F DUP3 GT ISZERO PUSH2 0xA0D JUMPI PUSH2 0x9DE DUP2 PUSH2 0x8B8 JUMP JUMPDEST PUSH2 0x9E7 DUP5 PUSH2 0x8CA JUMP JUMPDEST DUP2 ADD PUSH1 0x20 DUP6 LT ISZERO PUSH2 0x9F6 JUMPI DUP2 SWAP1 POP JUMPDEST PUSH2 0xA0A PUSH2 0xA02 DUP6 PUSH2 0x8CA JUMP JUMPDEST DUP4 ADD DUP3 PUSH2 0x9AA JUMP JUMPDEST POP POP JUMPDEST POP POP POP JUMP JUMPDEST PUSH0 DUP3 DUP3 SHR SWAP1 POP SWAP3 SWAP2 POP POP JUMP JUMPDEST PUSH0 PUSH2 0xA2D PUSH0 NOT DUP5 PUSH1 0x8 MUL PUSH2 0xA12 JUMP JUMPDEST NOT DUP1 DUP4 AND SWAP2 POP POP SWAP3 SWAP2 POP POP JUMP JUMPDEST PUSH0 PUSH2 0xA45 DUP4 DUP4 PUSH2 0xA1E JUMP JUMPDEST SWAP2 POP DUP3 PUSH1 0x2 MUL DUP3 OR SWAP1 POP SWAP3 SWAP2 POP POP JUMP JUMPDEST PUSH2 0xA5F DUP4 DUP4 PUSH2 0x8AE JUMP JUMPDEST PUSH8 0xFFFFFFFFFFFFFFFF DUP2 GT ISZERO PUSH2 0xA78 JUMPI PUSH2 0xA77 PUSH2 0x666 JUMP JUMPDEST JUMPDEST PUSH2 0xA82 DUP3 SLOAD PUSH2 0x87E JUMP JUMPDEST PUSH2 0xA8D DUP3 DUP3 DUP6 PUSH2 0x9CC JUMP JUMPDEST PUSH0 PUSH1 0x1F DUP4 GT PUSH1 0x1 DUP2 EQ PUSH2 0xABA JUMPI PUSH0 DUP5 ISZERO PUSH2 0xAA8 JUMPI DUP3 DUP8 ADD CALLDATALOAD SWAP1 POP JUMPDEST PUSH2 0xAB2 DUP6 DUP3 PUSH2 0xA3A JUMP JUMPDEST DUP7 SSTORE POP PUSH2 0xB19 JUMP JUMPDEST PUSH1 0x1F NOT DUP5 AND PUSH2 0xAC8 DUP7 PUSH2 0x8B8 JUMP JUMPDEST PUSH0 JUMPDEST DUP3 DUP2 LT ISZERO PUSH2 0xAEF JUMPI DUP5 DUP10 ADD CALLDATALOAD DUP3 SSTORE PUSH1 0x1 DUP3 ADD SWAP2 POP PUSH1 0x20 DUP6 ADD SWAP5 POP PUSH1 0x20 DUP2 ADD SWAP1 POP PUSH2 0xACA JUMP JUMPDEST DUP7 DUP4 LT ISZERO PUSH2 0xB0C JUMPI DUP5 DUP10 ADD CALLDATALOAD PUSH2 0xB08 PUSH1 0x1F DUP10 AND DUP3 PUSH2 0xA1E JUMP JUMPDEST DUP4 SSTORE POP JUMPDEST PUSH1 0x1 PUSH1 0x2 DUP9 MUL ADD DUP9 SSTORE POP POP POP JUMPDEST POP POP POP POP POP POP POP JUMP JUMPDEST PUSH0 DUP2 SWAP1 POP SWAP3 SWAP2 POP POP JUMP JUMPDEST PUSH0 PUSH2 0xB36 DUP3 PUSH2 0x7D1 JUMP JUMPDEST PUSH2 0xB40 DUP2 DUP6 PUSH2 0xB22 JUMP JUMPDEST SWAP4 POP PUSH2 0xB50 DUP2 DUP6 PUSH1 0x20 DUP7 ADD PUSH2 0x7EB JUMP JUMPDEST DUP1 DUP5 ADD SWAP2 POP POP SWAP3 SWAP2 POP POP JUMP JUMPDEST PUSH0 PUSH2 0xB67 DUP3 DUP5 PUSH2 0xB2C JUMP JUMPDEST SWAP2 POP DUP2 SWAP1 POP SWAP3 SWAP2 POP POP JUMP JUMPDEST PUSH0 DUP2 SLOAD PUSH2 0xB7E DUP2 PUSH2 0x87E JUMP JUMPDEST PUSH2 0xB88 DUP2 DUP7 PUSH2 0xB22 JUMP JUMPDEST SWAP5 POP PUSH1 0x1 DUP3 AND PUSH0 DUP2 EQ PUSH2 0xBA2 JUMPI PUSH1 0x1 DUP2 EQ PUSH2 0xBB7 JUMPI PUSH2 0xBE9 JUMP JUMPDEST PUSH1 0xFF NOT DUP4 AND DUP7 MSTORE DUP2 ISZERO ISZERO DUP3 MUL DUP7 ADD SWAP4 POP PUSH2 0xBE9 JUMP JUMPDEST PUSH2 0xBC0 DUP6 PUSH2 0x8B8 JUMP JUMPDEST PUSH0 JUMPDEST DUP4 DUP2 LT ISZERO PUSH2 0xBE1 JUMPI DUP2 SLOAD DUP2 DUP10 ADD MSTORE PUSH1 0x1 DUP3 ADD SWAP2 POP PUSH1 0x20 DUP2 ADD SWAP1 POP PUSH2 0xBC2 JUMP JUMPDEST DUP4 DUP9 ADD SWAP6 POP POP POP JUMPDEST POP POP POP SWAP3 SWAP2 POP POP JUMP JUMPDEST PUSH0 PUSH2 0xBFD DUP3 DUP5 PUSH2 0xB72 JUMP JUMPDEST SWAP2 POP DUP2 SWAP1 POP SWAP3 SWAP2 POP POP JUMP INVALID LOG2 PUSH5 0x6970667358 0x22 SLT KECCAK256 RETURN EQ GASPRICE PUSH27 0x2E63A4D32CA1CC661C23B7F1514D34DD7A2C8E9B1BBF6C315DD760 PUSH0 PUSH5 0x736F6C6343 STOP ADDMOD BYTE STOP CALLER "
				},
				"gasEstimates": {
					"creation": {
						"codeDepositCost": "626800",
						"executionCost": "infinite",
						"totalCost": "infinite"
					},
					"external": {
						"equalsString(string)": "infinite",
						"getGro()": "338",
						"getMessage()": "infinite",
						"getMessageByteLength()": "2587",
						"getMyAddress()": "2537",
						"getMyAddressBalance()": "5074",
						"getMyInt()": "2521",
						"senderAddress()": "2575",
						"setMessage(string)": "infinite",
						"setMyAddress(address)": "24781",
						"setMyInt(uint256)": "22582"
					}
				},
				"methodIdentifiers": {
					"equalsString(string)": "b4079cb3",
					"getGro()": "7b86ee25",
					"getMessage()": "ce6d41de",
					"getMessageByteLength()": "08e150a7",
					"getMyAddress()": "9a166299",
					"getMyAddressBalance()": "03c1e908",
					"getMyInt()": "79f21405",
					"senderAddress()": "4fc84791",
					"setMessage(string)": "368b8772",
					"setMyAddress(address)": "a8a7b895",
					"setMyInt(uint256)": "a6504657"
				}
			},
			"storageLayout": {
				"storage": [
					{
						"astId": 4,
						"contract": "contracts/Message.sol:Message",
						"label": "message",
						"offset": 0,
						"slot": "0",
						"type": "t_string_storage"
					},
					{
						"astId": 7,
						"contract": "contracts/Message.sol:Message",
						"label": "messageByte",
						"offset": 0,
						"slot": "1",
						"type": "t_bytes_storage"
					},
					{
						"astId": 10,
						"contract": "contracts/Message.sol:Message",
						"label": "gro",
						"offset": 0,
						"slot": "2",
						"type": "t_bool"
					},
					{
						"astId": 13,
						"contract": "contracts/Message.sol:Message",
						"label": "myInt",
						"offset": 0,
						"slot": "3",
						"type": "t_uint256"
					},
					{
						"astId": 15,
						"contract": "contracts/Message.sol:Message",
						"label": "myAddress",
						"offset": 0,
						"slot": "4",
						"type": "t_address"
					},
					{
						"astId": 19,
						"contract": "contracts/Message.sol:Message",
						"label": "senderAddress",
						"offset": 0,
						"slot": "5",
						"type": "t_address"
					}
				],
				"types": {
					"t_address": {
						"encoding": "inplace",
						"label": "address",
						"numberOfBytes": "20"
					},
					"t_bool": {
						"encoding": "inplace",
						"label": "bool",
						"numberOfBytes": "1"
					},
					"t_bytes_storage": {
						"encoding": "bytes",
						"label": "bytes",
						"numberOfBytes": "32"
					},
					"t_string_storage": {
						"encoding": "bytes",
						"label": "string",
						"numberOfBytes": "32"
					},
					"t_uint256": {
						"encoding": "inplace",
						"label": "uint256",
						"numberOfBytes": "32"
					}
				}
			},
			"userdoc": {
				"kind": "user",
				"methods": {},
				"version": 1
			}
		}
	}
}