{
	"contracts/SimpleBank.sol": {
		"SimpleBank": {
			"abi": [
				{
					"inputs": [],
					"name": "MAX_DEPOSIT",
					"outputs": [
						{
							"internalType": "uint256",
							"name": "",
							"type": "uint256"
						}
					],
					"stateMutability": "view",
					"type": "function"
				},
				{
					"inputs": [],
					"name": "MAX_WITHDRAW",
					"outputs": [
						{
							"internalType": "uint256",
							"name": "",
							"type": "uint256"
						}
					],
					"stateMutability": "view",
					"type": "function"
				},
				{
					"inputs": [],
					"name": "MIN_DEPOSIT",
					"outputs": [
						{
							"internalType": "uint256",
							"name": "",
							"type": "uint256"
						}
					],
					"stateMutability": "view",
					"type": "function"
				},
				{
					"inputs": [
						{
							"internalType": "address",
							"name": "",
							"type": "address"
						}
					],
					"name": "balances",
					"outputs": [
						{
							"internalType": "uint256",
							"name": "",
							"type": "uint256"
						}
					],
					"stateMutability": "view",
					"type": "function"
				},
				{
					"inputs": [
						{
							"internalType": "uint256",
							"name": "amount",
							"type": "uint256"
						}
					],
					"name": "deposit",
					"outputs": [],
					"stateMutability": "nonpayable",
					"type": "function"
				},
				{
					"inputs": [],
					"name": "getBalance",
					"outputs": [
						{
							"internalType": "uint256",
							"name": "",
							"type": "uint256"
						}
					],
					"stateMutability": "view",
					"type": "function"
				},
				{
					"inputs": [
						{
							"internalType": "uint256",
							"name": "amount",
							"type": "uint256"
						}
					],
					"name": "withdraw",
					"outputs": [],
					"stateMutability": "nonpayable",
					"type": "function"
				}
			],
			"devdoc": {
				"kind": "dev",
				"methods": {},
				"version": 1
			},
			"evm": {
				"assembly": "    /* \"contracts/SimpleBank.sol\":57:889  contract SimpleBank {... */\n  mstore(0x40, 0x80)\n  callvalue\n  dup1\n  iszero\n  tag_1\n  jumpi\n  0x00\n  dup1\n  revert\ntag_1:\n  pop\n  dataSize(sub_0)\n  dup1\n  dataOffset(sub_0)\n  0x00\n  codecopy\n  0x00\n  return\nstop\n\nsub_0: assembly {\n        /* \"contracts/SimpleBank.sol\":57:889  contract SimpleBank {... */\n      mstore(0x40, 0x80)\n      callvalue\n      dup1\n      iszero\n      tag_1\n      jumpi\n      0x00\n      dup1\n      revert\n    tag_1:\n      pop\n      jumpi(tag_2, lt(calldatasize, 0x04))\n      shr(0xe0, calldataload(0x00))\n      dup1\n      0x852aa16b\n      gt\n      tag_10\n      jumpi\n      dup1\n      0x852aa16b\n      eq\n      tag_6\n      jumpi\n      dup1\n      0xb6b55f25\n      eq\n      tag_7\n      jumpi\n      dup1\n      0xdd5967c3\n      eq\n      tag_8\n      jumpi\n      dup1\n      0xe1e158a5\n      eq\n      tag_9\n      jumpi\n      jump(tag_2)\n    tag_10:\n      dup1\n      0x12065fe0\n      eq\n      tag_3\n      jumpi\n      dup1\n      0x27e235e3\n      eq\n      tag_4\n      jumpi\n      dup1\n      0x2e1a7d4d\n      eq\n      tag_5\n      jumpi\n    tag_2:\n      0x00\n      dup1\n      revert\n        /* \"contracts/SimpleBank.sol\":791:887  function getBalance() public view returns (uint256) {... */\n    tag_3:\n      tag_11\n      tag_12\n      jump\t// in\n    tag_11:\n      mload(0x40)\n      tag_13\n      swap2\n      swap1\n      tag_14\n      jump\t// in\n    tag_13:\n      mload(0x40)\n      dup1\n      swap2\n      sub\n      swap1\n      return\n        /* \"contracts/SimpleBank.sol\":83:126  mapping(address => uint256) public balances */\n    tag_4:\n      tag_15\n      0x04\n      dup1\n      calldatasize\n      sub\n      dup2\n      add\n      swap1\n      tag_16\n      swap2\n      swap1\n      tag_17\n      jump\t// in\n    tag_16:\n      tag_18\n      jump\t// in\n    tag_15:\n      mload(0x40)\n      tag_19\n      swap2\n      swap1\n      tag_14\n      jump\t// in\n    tag_19:\n      mload(0x40)\n      dup1\n      swap2\n      sub\n      swap1\n      return\n        /* \"contracts/SimpleBank.sol\":555:785  function withdraw(uint256 amount) public {... */\n    tag_5:\n      tag_20\n      0x04\n      dup1\n      calldatasize\n      sub\n      dup2\n      add\n      swap1\n      tag_21\n      swap2\n      swap1\n      tag_22\n      jump\t// in\n    tag_21:\n      tag_23\n      jump\t// in\n    tag_20:\n      stop\n        /* \"contracts/SimpleBank.sol\":278:320  uint256 public constant MAX_WITHDRAW = 100 */\n    tag_6:\n      tag_24\n      tag_25\n      jump\t// in\n    tag_24:\n      mload(0x40)\n      tag_26\n      swap2\n      swap1\n      tag_14\n      jump\t// in\n    tag_26:\n      mload(0x40)\n      dup1\n      swap2\n      sub\n      swap1\n      return\n        /* \"contracts/SimpleBank.sol\":327:549  function deposit(uint256 amount) public {... */\n    tag_7:\n      tag_27\n      0x04\n      dup1\n      calldatasize\n      sub\n      dup2\n      add\n      swap1\n      tag_28\n      swap2\n      swap1\n      tag_22\n      jump\t// in\n    tag_28:\n      tag_29\n      jump\t// in\n    tag_27:\n      stop\n        /* \"contracts/SimpleBank.sol\":207:248  uint256 public constant MAX_DEPOSIT = 100 */\n    tag_8:\n      tag_30\n      tag_31\n      jump\t// in\n    tag_30:\n      mload(0x40)\n      tag_32\n      swap2\n      swap1\n      tag_14\n      jump\t// in\n    tag_32:\n      mload(0x40)\n      dup1\n      swap2\n      sub\n      swap1\n      return\n        /* \"contracts/SimpleBank.sol\":133:173  uint256 public constant MIN_DEPOSIT = 10 */\n    tag_9:\n      tag_33\n      tag_34\n      jump\t// in\n    tag_33:\n      mload(0x40)\n      tag_35\n      swap2\n      swap1\n      tag_14\n      jump\t// in\n    tag_35:\n      mload(0x40)\n      dup1\n      swap2\n      sub\n      swap1\n      return\n        /* \"contracts/SimpleBank.sol\":791:887  function getBalance() public view returns (uint256) {... */\n    tag_12:\n        /* \"contracts/SimpleBank.sol\":834:841  uint256 */\n      0x00\n        /* \"contracts/SimpleBank.sol\":860:868  balances */\n      dup1\n        /* \"contracts/SimpleBank.sol\":860:880  balances[msg.sender] */\n      0x00\n        /* \"contracts/SimpleBank.sol\":869:879  msg.sender */\n      caller\n        /* \"contracts/SimpleBank.sol\":860:880  balances[msg.sender] */\n      0xffffffffffffffffffffffffffffffffffffffff\n      and\n      0xffffffffffffffffffffffffffffffffffffffff\n      and\n      dup2\n      mstore\n      0x20\n      add\n      swap1\n      dup2\n      mstore\n      0x20\n      add\n      0x00\n      keccak256\n      sload\n        /* \"contracts/SimpleBank.sol\":853:880  return balances[msg.sender] */\n      swap1\n      pop\n        /* \"contracts/SimpleBank.sol\":791:887  function getBalance() public view returns (uint256) {... */\n      swap1\n      jump\t// out\n        /* \"contracts/SimpleBank.sol\":83:126  mapping(address => uint256) public balances */\n    tag_18:\n      mstore(0x20, 0x00)\n      dup1\n      0x00\n      mstore\n      keccak256(0x00, 0x40)\n      0x00\n      swap2\n      pop\n      swap1\n      pop\n      sload\n      dup2\n      jump\t// out\n        /* \"contracts/SimpleBank.sol\":555:785  function withdraw(uint256 amount) public {... */\n    tag_23:\n        /* \"contracts/SimpleBank.sol\":317:320  100 */\n      0x64\n        /* \"contracts/SimpleBank.sol\":614:620  amount */\n      dup2\n        /* \"contracts/SimpleBank.sol\":614:636  amount <= MAX_WITHDRAW */\n      gt\n      iszero\n        /* \"contracts/SimpleBank.sol\":606:666  require(amount <= MAX_WITHDRAW, \"Withdrawal exceeds limit.\") */\n      tag_38\n      jumpi\n      mload(0x40)\n      0x08c379a000000000000000000000000000000000000000000000000000000000\n      dup2\n      mstore\n      0x04\n      add\n      tag_39\n      swap1\n      tag_40\n      jump\t// in\n    tag_39:\n      mload(0x40)\n      dup1\n      swap2\n      sub\n      swap1\n      revert\n    tag_38:\n        /* \"contracts/SimpleBank.sol\":708:714  amount */\n      dup1\n        /* \"contracts/SimpleBank.sol\":684:692  balances */\n      0x00\n        /* \"contracts/SimpleBank.sol\":684:704  balances[msg.sender] */\n      dup1\n        /* \"contracts/SimpleBank.sol\":693:703  msg.sender */\n      caller\n        /* \"contracts/SimpleBank.sol\":684:704  balances[msg.sender] */\n      0xffffffffffffffffffffffffffffffffffffffff\n      and\n      0xffffffffffffffffffffffffffffffffffffffff\n      and\n      dup2\n      mstore\n      0x20\n      add\n      swap1\n      dup2\n      mstore\n      0x20\n      add\n      0x00\n      keccak256\n      sload\n        /* \"contracts/SimpleBank.sol\":684:714  balances[msg.sender] >= amount */\n      lt\n      iszero\n        /* \"contracts/SimpleBank.sol\":676:738  require(balances[msg.sender] >= amount, \"Insufficient funds.\") */\n      tag_41\n      jumpi\n      mload(0x40)\n      0x08c379a000000000000000000000000000000000000000000000000000000000\n      dup2\n      mstore\n      0x04\n      add\n      tag_42\n      swap1\n      tag_43\n      jump\t// in\n    tag_42:\n      mload(0x40)\n      dup1\n      swap2\n      sub\n      swap1\n      revert\n    tag_41:\n        /* \"contracts/SimpleBank.sol\":772:778  amount */\n      dup1\n        /* \"contracts/SimpleBank.sol\":748:756  balances */\n      0x00\n        /* \"contracts/SimpleBank.sol\":748:768  balances[msg.sender] */\n      dup1\n        /* \"contracts/SimpleBank.sol\":757:767  msg.sender */\n      caller\n        /* \"contracts/SimpleBank.sol\":748:768  balances[msg.sender] */\n      0xffffffffffffffffffffffffffffffffffffffff\n      and\n      0xffffffffffffffffffffffffffffffffffffffff\n      and\n      dup2\n      mstore\n      0x20\n      add\n      swap1\n      dup2\n      mstore\n      0x20\n      add\n      0x00\n      keccak256\n      0x00\n        /* \"contracts/SimpleBank.sol\":748:778  balances[msg.sender] -= amount */\n      dup3\n      dup3\n      sload\n      tag_44\n      swap2\n      swap1\n      tag_45\n      jump\t// in\n    tag_44:\n      swap3\n      pop\n      pop\n      dup2\n      swap1\n      sstore\n      pop\n        /* \"contracts/SimpleBank.sol\":555:785  function withdraw(uint256 amount) public {... */\n      pop\n      jump\t// out\n        /* \"contracts/SimpleBank.sol\":278:320  uint256 public constant MAX_WITHDRAW = 100 */\n    tag_25:\n        /* \"contracts/SimpleBank.sol\":317:320  100 */\n      0x64\n        /* \"contracts/SimpleBank.sol\":278:320  uint256 public constant MAX_WITHDRAW = 100 */\n      dup2\n      jump\t// out\n        /* \"contracts/SimpleBank.sol\":327:549  function deposit(uint256 amount) public {... */\n    tag_29:\n        /* \"contracts/SimpleBank.sol\":171:173  10 */\n      0x0a\n        /* \"contracts/SimpleBank.sol\":385:391  amount */\n      dup2\n        /* \"contracts/SimpleBank.sol\":385:406  amount >= MIN_DEPOSIT */\n      lt\n      iszero\n        /* \"contracts/SimpleBank.sol\":377:432  require(amount >= MIN_DEPOSIT, \"Deposit is too small.\") */\n      tag_47\n      jumpi\n      mload(0x40)\n      0x08c379a000000000000000000000000000000000000000000000000000000000\n      dup2\n      mstore\n      0x04\n      add\n      tag_48\n      swap1\n      tag_49\n      jump\t// in\n    tag_48:\n      mload(0x40)\n      dup1\n      swap2\n      sub\n      swap1\n      revert\n    tag_47:\n        /* \"contracts/SimpleBank.sol\":245:248  100 */\n      0x64\n        /* \"contracts/SimpleBank.sol\":450:456  amount */\n      dup2\n        /* \"contracts/SimpleBank.sol\":450:471  amount <= MAX_DEPOSIT */\n      gt\n      iszero\n        /* \"contracts/SimpleBank.sol\":442:502  require(amount <= MAX_DEPOSIT, \"Deposit exceeds max limit.\") */\n      tag_50\n      jumpi\n      mload(0x40)\n      0x08c379a000000000000000000000000000000000000000000000000000000000\n      dup2\n      mstore\n      0x04\n      add\n      tag_51\n      swap1\n      tag_52\n      jump\t// in\n    tag_51:\n      mload(0x40)\n      dup1\n      swap2\n      sub\n      swap1\n      revert\n    tag_50:\n        /* \"contracts/SimpleBank.sol\":536:542  amount */\n      dup1\n        /* \"contracts/SimpleBank.sol\":512:520  balances */\n      0x00\n        /* \"contracts/SimpleBank.sol\":512:532  balances[msg.sender] */\n      dup1\n        /* \"contracts/SimpleBank.sol\":521:531  msg.sender */\n      caller\n        /* \"contracts/SimpleBank.sol\":512:532  balances[msg.sender] */\n      0xffffffffffffffffffffffffffffffffffffffff\n      and\n      0xffffffffffffffffffffffffffffffffffffffff\n      and\n      dup2\n      mstore\n      0x20\n      add\n      swap1\n      dup2\n      mstore\n      0x20\n      add\n      0x00\n      keccak256\n      0x00\n        /* \"contracts/SimpleBank.sol\":512:542  balances[msg.sender] += amount */\n      dup3\n      dup3\n      sload\n      tag_53\n      swap2\n      swap1\n      tag_54\n      jump\t// in\n    tag_53:\n      swap3\n      pop\n      pop\n      dup2\n      swap1\n      sstore\n      pop\n        /* \"contracts/SimpleBank.sol\":327:549  function deposit(uint256 amount) public {... */\n      pop\n      jump\t// out\n        /* \"contracts/SimpleBank.sol\":207:248  uint256 public constant MAX_DEPOSIT = 100 */\n    tag_31:\n        /* \"contracts/SimpleBank.sol\":245:248  100 */\n      0x64\n        /* \"contracts/SimpleBank.sol\":207:248  uint256 public constant MAX_DEPOSIT = 100 */\n      dup2\n      jump\t// out\n        /* \"contracts/SimpleBank.sol\":133:173  uint256 public constant MIN_DEPOSIT = 10 */\n    tag_34:\n        /* \"contracts/SimpleBank.sol\":171:173  10 */\n      0x0a\n        /* \"contracts/SimpleBank.sol\":133:173  uint256 public constant MIN_DEPOSIT = 10 */\n      dup2\n      jump\t// out\n        /* \"#utility.yul\":7:84   */\n    tag_55:\n        /* \"#utility.yul\":44:51   */\n      0x00\n        /* \"#utility.yul\":73:78   */\n      dup2\n        /* \"#utility.yul\":62:78   */\n      swap1\n      pop\n        /* \"#utility.yul\":7:84   */\n      swap2\n      swap1\n      pop\n      jump\t// out\n        /* \"#utility.yul\":90:208   */\n    tag_56:\n        /* \"#utility.yul\":177:201   */\n      tag_79\n        /* \"#utility.yul\":195:200   */\n      dup2\n        /* \"#utility.yul\":177:201   */\n      tag_55\n      jump\t// in\n    tag_79:\n        /* \"#utility.yul\":172:175   */\n      dup3\n        /* \"#utility.yul\":165:202   */\n      mstore\n        /* \"#utility.yul\":90:208   */\n      pop\n      pop\n      jump\t// out\n        /* \"#utility.yul\":214:436   */\n    tag_14:\n        /* \"#utility.yul\":307:311   */\n      0x00\n        /* \"#utility.yul\":345:347   */\n      0x20\n        /* \"#utility.yul\":334:343   */\n      dup3\n        /* \"#utility.yul\":330:348   */\n      add\n        /* \"#utility.yul\":322:348   */\n      swap1\n      pop\n        /* \"#utility.yul\":358:429   */\n      tag_81\n        /* \"#utility.yul\":426:427   */\n      0x00\n        /* \"#utility.yul\":415:424   */\n      dup4\n        /* \"#utility.yul\":411:428   */\n      add\n        /* \"#utility.yul\":402:408   */\n      dup5\n        /* \"#utility.yul\":358:429   */\n      tag_56\n      jump\t// in\n    tag_81:\n        /* \"#utility.yul\":214:436   */\n      swap3\n      swap2\n      pop\n      pop\n      jump\t// out\n        /* \"#utility.yul\":523:640   */\n    tag_58:\n        /* \"#utility.yul\":632:633   */\n      0x00\n        /* \"#utility.yul\":629:630   */\n      dup1\n        /* \"#utility.yul\":622:634   */\n      revert\n        /* \"#utility.yul\":769:895   */\n    tag_60:\n        /* \"#utility.yul\":806:813   */\n      0x00\n        /* \"#utility.yul\":846:888   */\n      0xffffffffffffffffffffffffffffffffffffffff\n        /* \"#utility.yul\":839:844   */\n      dup3\n        /* \"#utility.yul\":835:889   */\n      and\n        /* \"#utility.yul\":824:889   */\n      swap1\n      pop\n        /* \"#utility.yul\":769:895   */\n      swap2\n      swap1\n      pop\n      jump\t// out\n        /* \"#utility.yul\":901:997   */\n    tag_61:\n        /* \"#utility.yul\":938:945   */\n      0x00\n        /* \"#utility.yul\":967:991   */\n      tag_87\n        /* \"#utility.yul\":985:990   */\n      dup3\n        /* \"#utility.yul\":967:991   */\n      tag_60\n      jump\t// in\n    tag_87:\n        /* \"#utility.yul\":956:991   */\n      swap1\n      pop\n        /* \"#utility.yul\":901:997   */\n      swap2\n      swap1\n      pop\n      jump\t// out\n        /* \"#utility.yul\":1003:1125   */\n    tag_62:\n        /* \"#utility.yul\":1076:1100   */\n      tag_89\n        /* \"#utility.yul\":1094:1099   */\n      dup2\n        /* \"#utility.yul\":1076:1100   */\n      tag_61\n      jump\t// in\n    tag_89:\n        /* \"#utility.yul\":1069:1074   */\n      dup2\n        /* \"#utility.yul\":1066:1101   */\n      eq\n        /* \"#utility.yul\":1056:1119   */\n      tag_90\n      jumpi\n        /* \"#utility.yul\":1115:1116   */\n      0x00\n        /* \"#utility.yul\":1112:1113   */\n      dup1\n        /* \"#utility.yul\":1105:1117   */\n      revert\n        /* \"#utility.yul\":1056:1119   */\n    tag_90:\n        /* \"#utility.yul\":1003:1125   */\n      pop\n      jump\t// out\n        /* \"#utility.yul\":1131:1270   */\n    tag_63:\n        /* \"#utility.yul\":1177:1182   */\n      0x00\n        /* \"#utility.yul\":1215:1221   */\n      dup2\n        /* \"#utility.yul\":1202:1222   */\n      calldataload\n        /* \"#utility.yul\":1193:1222   */\n      swap1\n      pop\n        /* \"#utility.yul\":1231:1264   */\n      tag_92\n        /* \"#utility.yul\":1258:1263   */\n      dup2\n        /* \"#utility.yul\":1231:1264   */\n      tag_62\n      jump\t// in\n    tag_92:\n        /* \"#utility.yul\":1131:1270   */\n      swap3\n      swap2\n      pop\n      pop\n      jump\t// out\n        /* \"#utility.yul\":1276:1605   */\n    tag_17:\n        /* \"#utility.yul\":1335:1341   */\n      0x00\n        /* \"#utility.yul\":1384:1386   */\n      0x20\n        /* \"#utility.yul\":1372:1381   */\n      dup3\n        /* \"#utility.yul\":1363:1370   */\n      dup5\n        /* \"#utility.yul\":1359:1382   */\n      sub\n        /* \"#utility.yul\":1355:1387   */\n      slt\n        /* \"#utility.yul\":1352:1471   */\n      iszero\n      tag_94\n      jumpi\n        /* \"#utility.yul\":1390:1469   */\n      tag_95\n      tag_58\n      jump\t// in\n    tag_95:\n        /* \"#utility.yul\":1352:1471   */\n    tag_94:\n        /* \"#utility.yul\":1510:1511   */\n      0x00\n        /* \"#utility.yul\":1535:1588   */\n      tag_96\n        /* \"#utility.yul\":1580:1587   */\n      dup5\n        /* \"#utility.yul\":1571:1577   */\n      dup3\n        /* \"#utility.yul\":1560:1569   */\n      dup6\n        /* \"#utility.yul\":1556:1578   */\n      add\n        /* \"#utility.yul\":1535:1588   */\n      tag_63\n      jump\t// in\n    tag_96:\n        /* \"#utility.yul\":1525:1588   */\n      swap2\n      pop\n        /* \"#utility.yul\":1481:1598   */\n      pop\n        /* \"#utility.yul\":1276:1605   */\n      swap3\n      swap2\n      pop\n      pop\n      jump\t// out\n        /* \"#utility.yul\":1611:1733   */\n    tag_64:\n        /* \"#utility.yul\":1684:1708   */\n      tag_98\n        /* \"#utility.yul\":1702:1707   */\n      dup2\n        /* \"#utility.yul\":1684:1708   */\n      tag_55\n      jump\t// in\n    tag_98:\n        /* \"#utility.yul\":1677:1682   */\n      dup2\n        /* \"#utility.yul\":1674:1709   */\n      eq\n        /* \"#utility.yul\":1664:1727   */\n      tag_99\n      jumpi\n        /* \"#utility.yul\":1723:1724   */\n      0x00\n        /* \"#utility.yul\":1720:1721   */\n      dup1\n        /* \"#utility.yul\":1713:1725   */\n      revert\n        /* \"#utility.yul\":1664:1727   */\n    tag_99:\n        /* \"#utility.yul\":1611:1733   */\n      pop\n      jump\t// out\n        /* \"#utility.yul\":1739:1878   */\n    tag_65:\n        /* \"#utility.yul\":1785:1790   */\n      0x00\n        /* \"#utility.yul\":1823:1829   */\n      dup2\n        /* \"#utility.yul\":1810:1830   */\n      calldataload\n        /* \"#utility.yul\":1801:1830   */\n      swap1\n      pop\n        /* \"#utility.yul\":1839:1872   */\n      tag_101\n        /* \"#utility.yul\":1866:1871   */\n      dup2\n        /* \"#utility.yul\":1839:1872   */\n      tag_64\n      jump\t// in\n    tag_101:\n        /* \"#utility.yul\":1739:1878   */\n      swap3\n      swap2\n      pop\n      pop\n      jump\t// out\n        /* \"#utility.yul\":1884:2213   */\n    tag_22:\n        /* \"#utility.yul\":1943:1949   */\n      0x00\n        /* \"#utility.yul\":1992:1994   */\n      0x20\n        /* \"#utility.yul\":1980:1989   */\n      dup3\n        /* \"#utility.yul\":1971:1978   */\n      dup5\n        /* \"#utility.yul\":1967:1990   */\n      sub\n        /* \"#utility.yul\":1963:1995   */\n      slt\n        /* \"#utility.yul\":1960:2079   */\n      iszero\n      tag_103\n      jumpi\n        /* \"#utility.yul\":1998:2077   */\n      tag_104\n      tag_58\n      jump\t// in\n    tag_104:\n        /* \"#utility.yul\":1960:2079   */\n    tag_103:\n        /* \"#utility.yul\":2118:2119   */\n      0x00\n        /* \"#utility.yul\":2143:2196   */\n      tag_105\n        /* \"#utility.yul\":2188:2195   */\n      dup5\n        /* \"#utility.yul\":2179:2185   */\n      dup3\n        /* \"#utility.yul\":2168:2177   */\n      dup6\n        /* \"#utility.yul\":2164:2186   */\n      add\n        /* \"#utility.yul\":2143:2196   */\n      tag_65\n      jump\t// in\n    tag_105:\n        /* \"#utility.yul\":2133:2196   */\n      swap2\n      pop\n        /* \"#utility.yul\":2089:2206   */\n      pop\n        /* \"#utility.yul\":1884:2213   */\n      swap3\n      swap2\n      pop\n      pop\n      jump\t// out\n        /* \"#utility.yul\":2219:2388   */\n    tag_66:\n        /* \"#utility.yul\":2303:2314   */\n      0x00\n        /* \"#utility.yul\":2337:2343   */\n      dup3\n        /* \"#utility.yul\":2332:2335   */\n      dup3\n        /* \"#utility.yul\":2325:2344   */\n      mstore\n        /* \"#utility.yul\":2377:2381   */\n      0x20\n        /* \"#utility.yul\":2372:2375   */\n      dup3\n        /* \"#utility.yul\":2368:2382   */\n      add\n        /* \"#utility.yul\":2353:2382   */\n      swap1\n      pop\n        /* \"#utility.yul\":2219:2388   */\n      swap3\n      swap2\n      pop\n      pop\n      jump\t// out\n        /* \"#utility.yul\":2394:2569   */\n    tag_67:\n        /* \"#utility.yul\":2534:2561   */\n      0x5769746864726177616c2065786365656473206c696d69742e00000000000000\n        /* \"#utility.yul\":2530:2531   */\n      0x00\n        /* \"#utility.yul\":2522:2528   */\n      dup3\n        /* \"#utility.yul\":2518:2532   */\n      add\n        /* \"#utility.yul\":2511:2562   */\n      mstore\n        /* \"#utility.yul\":2394:2569   */\n      pop\n      jump\t// out\n        /* \"#utility.yul\":2575:2941   */\n    tag_68:\n        /* \"#utility.yul\":2717:2720   */\n      0x00\n        /* \"#utility.yul\":2738:2805   */\n      tag_109\n        /* \"#utility.yul\":2802:2804   */\n      0x19\n        /* \"#utility.yul\":2797:2800   */\n      dup4\n        /* \"#utility.yul\":2738:2805   */\n      tag_66\n      jump\t// in\n    tag_109:\n        /* \"#utility.yul\":2731:2805   */\n      swap2\n      pop\n        /* \"#utility.yul\":2814:2907   */\n      tag_110\n        /* \"#utility.yul\":2903:2906   */\n      dup3\n        /* \"#utility.yul\":2814:2907   */\n      tag_67\n      jump\t// in\n    tag_110:\n        /* \"#utility.yul\":2932:2934   */\n      0x20\n        /* \"#utility.yul\":2927:2930   */\n      dup3\n        /* \"#utility.yul\":2923:2935   */\n      add\n        /* \"#utility.yul\":2916:2935   */\n      swap1\n      pop\n        /* \"#utility.yul\":2575:2941   */\n      swap2\n      swap1\n      pop\n      jump\t// out\n        /* \"#utility.yul\":2947:3366   */\n    tag_40:\n        /* \"#utility.yul\":3113:3117   */\n      0x00\n        /* \"#utility.yul\":3151:3153   */\n      0x20\n        /* \"#utility.yul\":3140:3149   */\n      dup3\n        /* \"#utility.yul\":3136:3154   */\n      add\n        /* \"#utility.yul\":3128:3154   */\n      swap1\n      pop\n        /* \"#utility.yul\":3200:3209   */\n      dup2\n        /* \"#utility.yul\":3194:3198   */\n      dup2\n        /* \"#utility.yul\":3190:3210   */\n      sub\n        /* \"#utility.yul\":3186:3187   */\n      0x00\n        /* \"#utility.yul\":3175:3184   */\n      dup4\n        /* \"#utility.yul\":3171:3188   */\n      add\n        /* \"#utility.yul\":3164:3211   */\n      mstore\n        /* \"#utility.yul\":3228:3359   */\n      tag_112\n        /* \"#utility.yul\":3354:3358   */\n      dup2\n        /* \"#utility.yul\":3228:3359   */\n      tag_68\n      jump\t// in\n    tag_112:\n        /* \"#utility.yul\":3220:3359   */\n      swap1\n      pop\n        /* \"#utility.yul\":2947:3366   */\n      swap2\n      swap1\n      pop\n      jump\t// out\n        /* \"#utility.yul\":3372:3541   */\n    tag_69:\n        /* \"#utility.yul\":3512:3533   */\n      0x496e73756666696369656e742066756e64732e00000000000000000000000000\n        /* \"#utility.yul\":3508:3509   */\n      0x00\n        /* \"#utility.yul\":3500:3506   */\n      dup3\n        /* \"#utility.yul\":3496:3510   */\n      add\n        /* \"#utility.yul\":3489:3534   */\n      mstore\n        /* \"#utility.yul\":3372:3541   */\n      pop\n      jump\t// out\n        /* \"#utility.yul\":3547:3913   */\n    tag_70:\n        /* \"#utility.yul\":3689:3692   */\n      0x00\n        /* \"#utility.yul\":3710:3777   */\n      tag_115\n        /* \"#utility.yul\":3774:3776   */\n      0x13\n        /* \"#utility.yul\":3769:3772   */\n      dup4\n        /* \"#utility.yul\":3710:3777   */\n      tag_66\n      jump\t// in\n    tag_115:\n        /* \"#utility.yul\":3703:3777   */\n      swap2\n      pop\n        /* \"#utility.yul\":3786:3879   */\n      tag_116\n        /* \"#utility.yul\":3875:3878   */\n      dup3\n        /* \"#utility.yul\":3786:3879   */\n      tag_69\n      jump\t// in\n    tag_116:\n        /* \"#utility.yul\":3904:3906   */\n      0x20\n        /* \"#utility.yul\":3899:3902   */\n      dup3\n        /* \"#utility.yul\":3895:3907   */\n      add\n        /* \"#utility.yul\":3888:3907   */\n      swap1\n      pop\n        /* \"#utility.yul\":3547:3913   */\n      swap2\n      swap1\n      pop\n      jump\t// out\n        /* \"#utility.yul\":3919:4338   */\n    tag_43:\n        /* \"#utility.yul\":4085:4089   */\n      0x00\n        /* \"#utility.yul\":4123:4125   */\n      0x20\n        /* \"#utility.yul\":4112:4121   */\n      dup3\n        /* \"#utility.yul\":4108:4126   */\n      add\n        /* \"#utility.yul\":4100:4126   */\n      swap1\n      pop\n        /* \"#utility.yul\":4172:4181   */\n      dup2\n        /* \"#utility.yul\":4166:4170   */\n      dup2\n        /* \"#utility.yul\":4162:4182   */\n      sub\n        /* \"#utility.yul\":4158:4159   */\n      0x00\n        /* \"#utility.yul\":4147:4156   */\n      dup4\n        /* \"#utility.yul\":4143:4160   */\n      add\n        /* \"#utility.yul\":4136:4183   */\n      mstore\n        /* \"#utility.yul\":4200:4331   */\n      tag_118\n        /* \"#utility.yul\":4326:4330   */\n      dup2\n        /* \"#utility.yul\":4200:4331   */\n      tag_70\n      jump\t// in\n    tag_118:\n        /* \"#utility.yul\":4192:4331   */\n      swap1\n      pop\n        /* \"#utility.yul\":3919:4338   */\n      swap2\n      swap1\n      pop\n      jump\t// out\n        /* \"#utility.yul\":4344:4524   */\n    tag_71:\n        /* \"#utility.yul\":4392:4469   */\n      0x4e487b7100000000000000000000000000000000000000000000000000000000\n        /* \"#utility.yul\":4389:4390   */\n      0x00\n        /* \"#utility.yul\":4382:4470   */\n      mstore\n        /* \"#utility.yul\":4489:4493   */\n      0x11\n        /* \"#utility.yul\":4486:4487   */\n      0x04\n        /* \"#utility.yul\":4479:4494   */\n      mstore\n        /* \"#utility.yul\":4513:4517   */\n      0x24\n        /* \"#utility.yul\":4510:4511   */\n      0x00\n        /* \"#utility.yul\":4503:4518   */\n      revert\n        /* \"#utility.yul\":4530:4724   */\n    tag_45:\n        /* \"#utility.yul\":4570:4574   */\n      0x00\n        /* \"#utility.yul\":4590:4610   */\n      tag_121\n        /* \"#utility.yul\":4608:4609   */\n      dup3\n        /* \"#utility.yul\":4590:4610   */\n      tag_55\n      jump\t// in\n    tag_121:\n        /* \"#utility.yul\":4585:4610   */\n      swap2\n      pop\n        /* \"#utility.yul\":4624:4644   */\n      tag_122\n        /* \"#utility.yul\":4642:4643   */\n      dup4\n        /* \"#utility.yul\":4624:4644   */\n      tag_55\n      jump\t// in\n    tag_122:\n        /* \"#utility.yul\":4619:4644   */\n      swap3\n      pop\n        /* \"#utility.yul\":4668:4669   */\n      dup3\n        /* \"#utility.yul\":4665:4666   */\n      dup3\n        /* \"#utility.yul\":4661:4670   */\n      sub\n        /* \"#utility.yul\":4653:4670   */\n      swap1\n      pop\n        /* \"#utility.yul\":4692:4693   */\n      dup2\n        /* \"#utility.yul\":4686:4690   */\n      dup2\n        /* \"#utility.yul\":4683:4694   */\n      gt\n        /* \"#utility.yul\":4680:4717   */\n      iszero\n      tag_123\n      jumpi\n        /* \"#utility.yul\":4697:4715   */\n      tag_124\n      tag_71\n      jump\t// in\n    tag_124:\n        /* \"#utility.yul\":4680:4717   */\n    tag_123:\n        /* \"#utility.yul\":4530:4724   */\n      swap3\n      swap2\n      pop\n      pop\n      jump\t// out\n        /* \"#utility.yul\":4730:4901   */\n    tag_72:\n        /* \"#utility.yul\":4870:4893   */\n      0x4465706f73697420697320746f6f20736d616c6c2e0000000000000000000000\n        /* \"#utility.yul\":4866:4867   */\n      0x00\n        /* \"#utility.yul\":4858:4864   */\n      dup3\n        /* \"#utility.yul\":4854:4868   */\n      add\n        /* \"#utility.yul\":4847:4894   */\n      mstore\n        /* \"#utility.yul\":4730:4901   */\n      pop\n      jump\t// out\n        /* \"#utility.yul\":4907:5273   */\n    tag_73:\n        /* \"#utility.yul\":5049:5052   */\n      0x00\n        /* \"#utility.yul\":5070:5137   */\n      tag_127\n        /* \"#utility.yul\":5134:5136   */\n      0x15\n        /* \"#utility.yul\":5129:5132   */\n      dup4\n        /* \"#utility.yul\":5070:5137   */\n      tag_66\n      jump\t// in\n    tag_127:\n        /* \"#utility.yul\":5063:5137   */\n      swap2\n      pop\n        /* \"#utility.yul\":5146:5239   */\n      tag_128\n        /* \"#utility.yul\":5235:5238   */\n      dup3\n        /* \"#utility.yul\":5146:5239   */\n      tag_72\n      jump\t// in\n    tag_128:\n        /* \"#utility.yul\":5264:5266   */\n      0x20\n        /* \"#utility.yul\":5259:5262   */\n      dup3\n        /* \"#utility.yul\":5255:5267   */\n      add\n        /* \"#utility.yul\":5248:5267   */\n      swap1\n      pop\n        /* \"#utility.yul\":4907:5273   */\n      swap2\n      swap1\n      pop\n      jump\t// out\n        /* \"#utility.yul\":5279:5698   */\n    tag_49:\n        /* \"#utility.yul\":5445:5449   */\n      0x00\n        /* \"#utility.yul\":5483:5485   */\n      0x20\n        /* \"#utility.yul\":5472:5481   */\n      dup3\n        /* \"#utility.yul\":5468:5486   */\n      add\n        /* \"#utility.yul\":5460:5486   */\n      swap1\n      pop\n        /* \"#utility.yul\":5532:5541   */\n      dup2\n        /* \"#utility.yul\":5526:5530   */\n      dup2\n        /* \"#utility.yul\":5522:5542   */\n      sub\n        /* \"#utility.yul\":5518:5519   */\n      0x00\n        /* \"#utility.yul\":5507:5516   */\n      dup4\n        /* \"#utility.yul\":5503:5520   */\n      add\n        /* \"#utility.yul\":5496:5543   */\n      mstore\n        /* \"#utility.yul\":5560:5691   */\n      tag_130\n        /* \"#utility.yul\":5686:5690   */\n      dup2\n        /* \"#utility.yul\":5560:5691   */\n      tag_73\n      jump\t// in\n    tag_130:\n        /* \"#utility.yul\":5552:5691   */\n      swap1\n      pop\n        /* \"#utility.yul\":5279:5698   */\n      swap2\n      swap1\n      pop\n      jump\t// out\n        /* \"#utility.yul\":5704:5880   */\n    tag_74:\n        /* \"#utility.yul\":5844:5872   */\n      0x4465706f7369742065786365656473206d6178206c696d69742e000000000000\n        /* \"#utility.yul\":5840:5841   */\n      0x00\n        /* \"#utility.yul\":5832:5838   */\n      dup3\n        /* \"#utility.yul\":5828:5842   */\n      add\n        /* \"#utility.yul\":5821:5873   */\n      mstore\n        /* \"#utility.yul\":5704:5880   */\n      pop\n      jump\t// out\n        /* \"#utility.yul\":5886:6252   */\n    tag_75:\n        /* \"#utility.yul\":6028:6031   */\n      0x00\n        /* \"#utility.yul\":6049:6116   */\n      tag_133\n        /* \"#utility.yul\":6113:6115   */\n      0x1a\n        /* \"#utility.yul\":6108:6111   */\n      dup4\n        /* \"#utility.yul\":6049:6116   */\n      tag_66\n      jump\t// in\n    tag_133:\n        /* \"#utility.yul\":6042:6116   */\n      swap2\n      pop\n        /* \"#utility.yul\":6125:6218   */\n      tag_134\n        /* \"#utility.yul\":6214:6217   */\n      dup3\n        /* \"#utility.yul\":6125:6218   */\n      tag_74\n      jump\t// in\n    tag_134:\n        /* \"#utility.yul\":6243:6245   */\n      0x20\n        /* \"#utility.yul\":6238:6241   */\n      dup3\n        /* \"#utility.yul\":6234:6246   */\n      add\n        /* \"#utility.yul\":6227:6246   */\n      swap1\n      pop\n        /* \"#utility.yul\":5886:6252   */\n      swap2\n      swap1\n      pop\n      jump\t// out\n        /* \"#utility.yul\":6258:6677   */\n    tag_52:\n        /* \"#utility.yul\":6424:6428   */\n      0x00\n        /* \"#utility.yul\":6462:6464   */\n      0x20\n        /* \"#utility.yul\":6451:6460   */\n      dup3\n        /* \"#utility.yul\":6447:6465   */\n      add\n        /* \"#utility.yul\":6439:6465   */\n      swap1\n      pop\n        /* \"#utility.yul\":6511:6520   */\n      dup2\n        /* \"#utility.yul\":6505:6509   */\n      dup2\n        /* \"#utility.yul\":6501:6521   */\n      sub\n        /* \"#utility.yul\":6497:6498   */\n      0x00\n        /* \"#utility.yul\":6486:6495   */\n      dup4\n        /* \"#utility.yul\":6482:6499   */\n      add\n        /* \"#utility.yul\":6475:6522   */\n      mstore\n        /* \"#utility.yul\":6539:6670   */\n      tag_136\n        /* \"#utility.yul\":6665:6669   */\n      dup2\n        /* \"#utility.yul\":6539:6670   */\n      tag_75\n      jump\t// in\n    tag_136:\n        /* \"#utility.yul\":6531:6670   */\n      swap1\n      pop\n        /* \"#utility.yul\":6258:6677   */\n      swap2\n      swap1\n      pop\n      jump\t// out\n        /* \"#utility.yul\":6683:6874   */\n    tag_54:\n        /* \"#utility.yul\":6723:6726   */\n      0x00\n        /* \"#utility.yul\":6742:6762   */\n      tag_138\n        /* \"#utility.yul\":6760:6761   */\n      dup3\n        /* \"#utility.yul\":6742:6762   */\n      tag_55\n      jump\t// in\n    tag_138:\n        /* \"#utility.yul\":6737:6762   */\n      swap2\n      pop\n        /* \"#utility.yul\":6776:6796   */\n      tag_139\n        /* \"#utility.yul\":6794:6795   */\n      dup4\n        /* \"#utility.yul\":6776:6796   */\n      tag_55\n      jump\t// in\n    tag_139:\n        /* \"#utility.yul\":6771:6796   */\n      swap3\n      pop\n        /* \"#utility.yul\":6819:6820   */\n      dup3\n        /* \"#utility.yul\":6816:6817   */\n      dup3\n        /* \"#utility.yul\":6812:6821   */\n      add\n        /* \"#utility.yul\":6805:6821   */\n      swap1\n      pop\n        /* \"#utility.yul\":6840:6843   */\n      dup1\n        /* \"#utility.yul\":6837:6838   */\n      dup3\n        /* \"#utility.yul\":6834:6844   */\n      gt\n        /* \"#utility.yul\":6831:6867   */\n      iszero\n      tag_140\n      jumpi\n        /* \"#utility.yul\":6847:6865   */\n      tag_141\n      tag_71\n      jump\t// in\n    tag_141:\n        /* \"#utility.yul\":6831:6867   */\n    tag_140:\n        /* \"#utility.yul\":6683:6874   */\n      swap3\n      swap2\n      pop\n      pop\n      jump\t// out\n\n    auxdata: 0xa2646970667358221220c293f4af6f78c97599c31bdecb8dee5cc4bf7aa1a0eaef0b5bd8ad38127f244364736f6c634300081a0033\n}\n",
				"bytecode": {
					"linkReferences": {},
					"object": "6080604052348015600e575f80fd5b506107428061001c5f395ff3fe608060405234801561000f575f80fd5b506004361061007b575f3560e01c8063852aa16b11610059578063852aa16b146100e9578063b6b55f2514610107578063dd5967c314610123578063e1e158a5146101415761007b565b806312065fe01461007f57806327e235e31461009d5780632e1a7d4d146100cd575b5f80fd5b61008761015f565b60405161009491906103d2565b60405180910390f35b6100b760048036038101906100b29190610449565b6101a2565b6040516100c491906103d2565b60405180910390f35b6100e760048036038101906100e2919061049e565b6101b6565b005b6100f16102ce565b6040516100fe91906103d2565b60405180910390f35b610121600480360381019061011c919061049e565b6102d3565b005b61012b6103b0565b60405161013891906103d2565b60405180910390f35b6101496103b5565b60405161015691906103d2565b60405180910390f35b5f805f3373ffffffffffffffffffffffffffffffffffffffff1673ffffffffffffffffffffffffffffffffffffffff1681526020019081526020015f2054905090565b5f602052805f5260405f205f915090505481565b60648111156101fa576040517f08c379a00000000000000000000000000000000000000000000000000000000081526004016101f190610523565b60405180910390fd5b805f803373ffffffffffffffffffffffffffffffffffffffff1673ffffffffffffffffffffffffffffffffffffffff1681526020019081526020015f20541015610279576040517f08c379a00000000000000000000000000000000000000000000000000000000081526004016102709061058b565b60405180910390fd5b805f803373ffffffffffffffffffffffffffffffffffffffff1673ffffffffffffffffffffffffffffffffffffffff1681526020019081526020015f205f8282546102c491906105d6565b9250508190555050565b606481565b600a811015610317576040517f08c379a000000000000000000000000000000000000000000000000000000000815260040161030e90610653565b60405180910390fd5b606481111561035b576040517f08c379a0000000000000000000000000000000000000000000000000000000008152600401610352906106bb565b60405180910390fd5b805f803373ffffffffffffffffffffffffffffffffffffffff1673ffffffffffffffffffffffffffffffffffffffff1681526020019081526020015f205f8282546103a691906106d9565b9250508190555050565b606481565b600a81565b5f819050919050565b6103cc816103ba565b82525050565b5f6020820190506103e55f8301846103c3565b92915050565b5f80fd5b5f73ffffffffffffffffffffffffffffffffffffffff82169050919050565b5f610418826103ef565b9050919050565b6104288161040e565b8114610432575f80fd5b50565b5f813590506104438161041f565b92915050565b5f6020828403121561045e5761045d6103eb565b5b5f61046b84828501610435565b91505092915050565b61047d816103ba565b8114610487575f80fd5b50565b5f8135905061049881610474565b92915050565b5f602082840312156104b3576104b26103eb565b5b5f6104c08482850161048a565b91505092915050565b5f82825260208201905092915050565b7f5769746864726177616c2065786365656473206c696d69742e000000000000005f82015250565b5f61050d6019836104c9565b9150610518826104d9565b602082019050919050565b5f6020820190508181035f83015261053a81610501565b9050919050565b7f496e73756666696369656e742066756e64732e000000000000000000000000005f82015250565b5f6105756013836104c9565b915061058082610541565b602082019050919050565b5f6020820190508181035f8301526105a281610569565b9050919050565b7f4e487b71000000000000000000000000000000000000000000000000000000005f52601160045260245ffd5b5f6105e0826103ba565b91506105eb836103ba565b9250828203905081811115610603576106026105a9565b5b92915050565b7f4465706f73697420697320746f6f20736d616c6c2e00000000000000000000005f82015250565b5f61063d6015836104c9565b915061064882610609565b602082019050919050565b5f6020820190508181035f83015261066a81610631565b9050919050565b7f4465706f7369742065786365656473206d6178206c696d69742e0000000000005f82015250565b5f6106a5601a836104c9565b91506106b082610671565b602082019050919050565b5f6020820190508181035f8301526106d281610699565b9050919050565b5f6106e3826103ba565b91506106ee836103ba565b9250828201905080821115610706576107056105a9565b5b9291505056fea2646970667358221220c293f4af6f78c97599c31bdecb8dee5cc4bf7aa1a0eaef0b5bd8ad38127f244364736f6c634300081a0033",
					"opcodes": "PUSH1 0x80 PUSH1 0x40 MSTORE CALLVALUE DUP1 ISZERO PUSH1 0xE JUMPI PUSH0 DUP1 REVERT JUMPDEST POP PUSH2 0x742 DUP1 PUSH2 0x1C PUSH0 CODECOPY PUSH0 RETURN INVALID PUSH1 0x80 PUSH1 0x40 MSTORE CALLVALUE DUP1 ISZERO PUSH2 0xF JUMPI PUSH0 DUP1 REVERT JUMPDEST POP PUSH1 0x4 CALLDATASIZE LT PUSH2 0x7B JUMPI PUSH0 CALLDATALOAD PUSH1 0xE0 SHR DUP1 PUSH4 0x852AA16B GT PUSH2 0x59 JUMPI DUP1 PUSH4 0x852AA16B EQ PUSH2 0xE9 JUMPI DUP1 PUSH4 0xB6B55F25 EQ PUSH2 0x107 JUMPI DUP1 PUSH4 0xDD5967C3 EQ PUSH2 0x123 JUMPI DUP1 PUSH4 0xE1E158A5 EQ PUSH2 0x141 JUMPI PUSH2 0x7B JUMP JUMPDEST DUP1 PUSH4 0x12065FE0 EQ PUSH2 0x7F JUMPI DUP1 PUSH4 0x27E235E3 EQ PUSH2 0x9D JUMPI DUP1 PUSH4 0x2E1A7D4D EQ PUSH2 0xCD JUMPI JUMPDEST PUSH0 DUP1 REVERT JUMPDEST PUSH2 0x87 PUSH2 0x15F JUMP JUMPDEST PUSH1 0x40 MLOAD PUSH2 0x94 SWAP2 SWAP1 PUSH2 0x3D2 JUMP JUMPDEST PUSH1 0x40 MLOAD DUP1 SWAP2 SUB SWAP1 RETURN JUMPDEST PUSH2 0xB7 PUSH1 0x4 DUP1 CALLDATASIZE SUB DUP2 ADD SWAP1 PUSH2 0xB2 SWAP2 SWAP1 PUSH2 0x449 JUMP JUMPDEST PUSH2 0x1A2 JUMP JUMPDEST PUSH1 0x40 MLOAD PUSH2 0xC4 SWAP2 SWAP1 PUSH2 0x3D2 JUMP JUMPDEST PUSH1 0x40 MLOAD DUP1 SWAP2 SUB SWAP1 RETURN JUMPDEST PUSH2 0xE7 PUSH1 0x4 DUP1 CALLDATASIZE SUB DUP2 ADD SWAP1 PUSH2 0xE2 SWAP2 SWAP1 PUSH2 0x49E JUMP JUMPDEST PUSH2 0x1B6 JUMP JUMPDEST STOP JUMPDEST PUSH2 0xF1 PUSH2 0x2CE JUMP JUMPDEST PUSH1 0x40 MLOAD PUSH2 0xFE SWAP2 SWAP1 PUSH2 0x3D2 JUMP JUMPDEST PUSH1 0x40 MLOAD DUP1 SWAP2 SUB SWAP1 RETURN JUMPDEST PUSH2 0x121 PUSH1 0x4 DUP1 CALLDATASIZE SUB DUP2 ADD SWAP1 PUSH2 0x11C SWAP2 SWAP1 PUSH2 0x49E JUMP JUMPDEST PUSH2 0x2D3 JUMP JUMPDEST STOP JUMPDEST PUSH2 0x12B PUSH2 0x3B0 JUMP JUMPDEST PUSH1 0x40 MLOAD PUSH2 0x138 SWAP2 SWAP1 PUSH2 0x3D2 JUMP JUMPDEST PUSH1 0x40 MLOAD DUP1 SWAP2 SUB SWAP1 RETURN JUMPDEST PUSH2 0x149 PUSH2 0x3B5 JUMP JUMPDEST PUSH1 0x40 MLOAD PUSH2 0x156 SWAP2 SWAP1 PUSH2 0x3D2 JUMP JUMPDEST PUSH1 0x40 MLOAD DUP1 SWAP2 SUB SWAP1 RETURN JUMPDEST PUSH0 DUP1 PUSH0 CALLER PUSH20 0xFFFFFFFFFFFFFFFFFFFFFFFFFFFFFFFFFFFFFFFF AND PUSH20 0xFFFFFFFFFFFFFFFFFFFFFFFFFFFFFFFFFFFFFFFF AND DUP2 MSTORE PUSH1 0x20 ADD SWAP1 DUP2 MSTORE PUSH1 0x20 ADD PUSH0 KECCAK256 SLOAD SWAP1 POP SWAP1 JUMP JUMPDEST PUSH0 PUSH1 0x20 MSTORE DUP1 PUSH0 MSTORE PUSH1 0x40 PUSH0 KECCAK256 PUSH0 SWAP2 POP SWAP1 POP SLOAD DUP2 JUMP JUMPDEST PUSH1 0x64 DUP2 GT ISZERO PUSH2 0x1FA JUMPI PUSH1 0x40 MLOAD PUSH32 0x8C379A000000000000000000000000000000000000000000000000000000000 DUP2 MSTORE PUSH1 0x4 ADD PUSH2 0x1F1 SWAP1 PUSH2 0x523 JUMP JUMPDEST PUSH1 0x40 MLOAD DUP1 SWAP2 SUB SWAP1 REVERT JUMPDEST DUP1 PUSH0 DUP1 CALLER PUSH20 0xFFFFFFFFFFFFFFFFFFFFFFFFFFFFFFFFFFFFFFFF AND PUSH20 0xFFFFFFFFFFFFFFFFFFFFFFFFFFFFFFFFFFFFFFFF AND DUP2 MSTORE PUSH1 0x20 ADD SWAP1 DUP2 MSTORE PUSH1 0x20 ADD PUSH0 KECCAK256 SLOAD LT ISZERO PUSH2 0x279 JUMPI PUSH1 0x40 MLOAD PUSH32 0x8C379A000000000000000000000000000000000000000000000000000000000 DUP2 MSTORE PUSH1 0x4 ADD PUSH2 0x270 SWAP1 PUSH2 0x58B JUMP JUMPDEST PUSH1 0x40 MLOAD DUP1 SWAP2 SUB SWAP1 REVERT JUMPDEST DUP1 PUSH0 DUP1 CALLER PUSH20 0xFFFFFFFFFFFFFFFFFFFFFFFFFFFFFFFFFFFFFFFF AND PUSH20 0xFFFFFFFFFFFFFFFFFFFFFFFFFFFFFFFFFFFFFFFF AND DUP2 MSTORE PUSH1 0x20 ADD SWAP1 DUP2 MSTORE PUSH1 0x20 ADD PUSH0 KECCAK256 PUSH0 DUP3 DUP3 SLOAD PUSH2 0x2C4 SWAP2 SWAP1 PUSH2 0x5D6 JUMP JUMPDEST SWAP3 POP POP DUP2 SWAP1 SSTORE POP POP JUMP JUMPDEST PUSH1 0x64 DUP2 JUMP JUMPDEST PUSH1 0xA DUP2 LT ISZERO PUSH2 0x317 JUMPI PUSH1 0x40 MLOAD PUSH32 0x8C379A000000000000000000000000000000000000000000000000000000000 DUP2 MSTORE PUSH1 0x4 ADD PUSH2 0x30E SWAP1 PUSH2 0x653 JUMP JUMPDEST PUSH1 0x40 MLOAD DUP1 SWAP2 SUB SWAP1 REVERT JUMPDEST PUSH1 0x64 DUP2 GT ISZERO PUSH2 0x35B JUMPI PUSH1 0x40 MLOAD PUSH32 0x8C379A000000000000000000000000000000000000000000000000000000000 DUP2 MSTORE PUSH1 0x4 ADD PUSH2 0x352 SWAP1 PUSH2 0x6BB JUMP JUMPDEST PUSH1 0x40 MLOAD DUP1 SWAP2 SUB SWAP1 REVERT JUMPDEST DUP1 PUSH0 DUP1 CALLER PUSH20 0xFFFFFFFFFFFFFFFFFFFFFFFFFFFFFFFFFFFFFFFF AND PUSH20 0xFFFFFFFFFFFFFFFFFFFFFFFFFFFFFFFFFFFFFFFF AND DUP2 MSTORE PUSH1 0x20 ADD SWAP1 DUP2 MSTORE PUSH1 0x20 ADD PUSH0 KECCAK256 PUSH0 DUP3 DUP3 SLOAD PUSH2 0x3A6 SWAP2 SWAP1 PUSH2 0x6D9 JUMP JUMPDEST SWAP3 POP POP DUP2 SWAP1 SSTORE POP POP JUMP JUMPDEST PUSH1 0x64 DUP2 JUMP JUMPDEST PUSH1 0xA DUP2 JUMP JUMPDEST PUSH0 DUP2 SWAP1 POP SWAP2 SWAP1 POP JUMP JUMPDEST PUSH2 0x3CC DUP2 PUSH2 0x3BA JUMP JUMPDEST DUP3 MSTORE POP POP JUMP JUMPDEST PUSH0 PUSH1 0x20 DUP3 ADD SWAP1 POP PUSH2 0x3E5 PUSH0 DUP4 ADD DUP5 PUSH2 0x3C3 JUMP JUMPDEST SWAP3 SWAP2 POP POP JUMP JUMPDEST PUSH0 DUP1 REVERT JUMPDEST PUSH0 PUSH20 0xFFFFFFFFFFFFFFFFFFFFFFFFFFFFFFFFFFFFFFFF DUP3 AND SWAP1 POP SWAP2 SWAP1 POP JUMP JUMPDEST PUSH0 PUSH2 0x418 DUP3 PUSH2 0x3EF JUMP JUMPDEST SWAP1 POP SWAP2 SWAP1 POP JUMP JUMPDEST PUSH2 0x428 DUP2 PUSH2 0x40E JUMP JUMPDEST DUP2 EQ PUSH2 0x432 JUMPI PUSH0 DUP1 REVERT JUMPDEST POP JUMP JUMPDEST PUSH0 DUP2 CALLDATALOAD SWAP1 POP PUSH2 0x443 DUP2 PUSH2 0x41F JUMP JUMPDEST SWAP3 SWAP2 POP POP JUMP JUMPDEST PUSH0 PUSH1 0x20 DUP3 DUP5 SUB SLT ISZERO PUSH2 0x45E JUMPI PUSH2 0x45D PUSH2 0x3EB JUMP JUMPDEST JUMPDEST PUSH0 PUSH2 0x46B DUP5 DUP3 DUP6 ADD PUSH2 0x435 JUMP JUMPDEST SWAP2 POP POP SWAP3 SWAP2 POP POP JUMP JUMPDEST PUSH2 0x47D DUP2 PUSH2 0x3BA JUMP JUMPDEST DUP2 EQ PUSH2 0x487 JUMPI PUSH0 DUP1 REVERT JUMPDEST POP JUMP JUMPDEST PUSH0 DUP2 CALLDATALOAD SWAP1 POP PUSH2 0x498 DUP2 PUSH2 0x474 JUMP JUMPDEST SWAP3 SWAP2 POP POP JUMP JUMPDEST PUSH0 PUSH1 0x20 DUP3 DUP5 SUB SLT ISZERO PUSH2 0x4B3 JUMPI PUSH2 0x4B2 PUSH2 0x3EB JUMP JUMPDEST JUMPDEST PUSH0 PUSH2 0x4C0 DUP5 DUP3 DUP6 ADD PUSH2 0x48A JUMP JUMPDEST SWAP2 POP POP SWAP3 SWAP2 POP POP JUMP JUMPDEST PUSH0 DUP3 DUP3 MSTORE PUSH1 0x20 DUP3 ADD SWAP1 POP SWAP3 SWAP2 POP POP JUMP JUMPDEST PUSH32 0x5769746864726177616C2065786365656473206C696D69742E00000000000000 PUSH0 DUP3 ADD MSTORE POP JUMP JUMPDEST PUSH0 PUSH2 0x50D PUSH1 0x19 DUP4 PUSH2 0x4C9 JUMP JUMPDEST SWAP2 POP PUSH2 0x518 DUP3 PUSH2 0x4D9 JUMP JUMPDEST PUSH1 0x20 DUP3 ADD SWAP1 POP SWAP2 SWAP1 POP JUMP JUMPDEST PUSH0 PUSH1 0x20 DUP3 ADD SWAP1 POP DUP2 DUP2 SUB PUSH0 DUP4 ADD MSTORE PUSH2 0x53A DUP2 PUSH2 0x501 JUMP JUMPDEST SWAP1 POP SWAP2 SWAP1 POP JUMP JUMPDEST PUSH32 0x496E73756666696369656E742066756E64732E00000000000000000000000000 PUSH0 DUP3 ADD MSTORE POP JUMP JUMPDEST PUSH0 PUSH2 0x575 PUSH1 0x13 DUP4 PUSH2 0x4C9 JUMP JUMPDEST SWAP2 POP PUSH2 0x580 DUP3 PUSH2 0x541 JUMP JUMPDEST PUSH1 0x20 DUP3 ADD SWAP1 POP SWAP2 SWAP1 POP JUMP JUMPDEST PUSH0 PUSH1 0x20 DUP3 ADD SWAP1 POP DUP2 DUP2 SUB PUSH0 DUP4 ADD MSTORE PUSH2 0x5A2 DUP2 PUSH2 0x569 JUMP JUMPDEST SWAP1 POP SWAP2 SWAP1 POP JUMP JUMPDEST PUSH32 0x4E487B7100000000000000000000000000000000000000000000000000000000 PUSH0 MSTORE PUSH1 0x11 PUSH1 0x4 MSTORE PUSH1 0x24 PUSH0 REVERT JUMPDEST PUSH0 PUSH2 0x5E0 DUP3 PUSH2 0x3BA JUMP JUMPDEST SWAP2 POP PUSH2 0x5EB DUP4 PUSH2 0x3BA JUMP JUMPDEST SWAP3 POP DUP3 DUP3 SUB SWAP1 POP DUP2 DUP2 GT ISZERO PUSH2 0x603 JUMPI PUSH2 0x602 PUSH2 0x5A9 JUMP JUMPDEST JUMPDEST SWAP3 SWAP2 POP POP JUMP JUMPDEST PUSH32 0x4465706F73697420697320746F6F20736D616C6C2E0000000000000000000000 PUSH0 DUP3 ADD MSTORE POP JUMP JUMPDEST PUSH0 PUSH2 0x63D PUSH1 0x15 DUP4 PUSH2 0x4C9 JUMP JUMPDEST SWAP2 POP PUSH2 0x648 DUP3 PUSH2 0x609 JUMP JUMPDEST PUSH1 0x20 DUP3 ADD SWAP1 POP SWAP2 SWAP1 POP JUMP JUMPDEST PUSH0 PUSH1 0x20 DUP3 ADD SWAP1 POP DUP2 DUP2 SUB PUSH0 DUP4 ADD MSTORE PUSH2 0x66A DUP2 PUSH2 0x631 JUMP JUMPDEST SWAP1 POP SWAP2 SWAP1 POP JUMP JUMPDEST PUSH32 0x4465706F7369742065786365656473206D6178206C696D69742E000000000000 PUSH0 DUP3 ADD MSTORE POP JUMP JUMPDEST PUSH0 PUSH2 0x6A5 PUSH1 0x1A DUP4 PUSH2 0x4C9 JUMP JUMPDEST SWAP2 POP PUSH2 0x6B0 DUP3 PUSH2 0x671 JUMP JUMPDEST PUSH1 0x20 DUP3 ADD SWAP1 POP SWAP2 SWAP1 POP JUMP JUMPDEST PUSH0 PUSH1 0x20 DUP3 ADD SWAP1 POP DUP2 DUP2 SUB PUSH0 DUP4 ADD MSTORE PUSH2 0x6D2 DUP2 PUSH2 0x699 JUMP JUMPDEST SWAP1 POP SWAP2 SWAP1 POP JUMP JUMPDEST PUSH0 PUSH2 0x6E3 DUP3 PUSH2 0x3BA JUMP JUMPDEST SWAP2 POP PUSH2 0x6EE DUP4 PUSH2 0x3BA JUMP JUMPDEST SWAP3 POP DUP3 DUP3 ADD SWAP1 POP DUP1 DUP3 GT ISZERO PUSH2 0x706 JUMPI PUSH2 0x705 PUSH2 0x5A9 JUMP JUMPDEST JUMPDEST SWAP3 SWAP2 POP POP JUMP INVALID LOG2 PUSH5 0x6970667358 0x22 SLT KECCAK256 0xC2 SWAP4 DELEGATECALL 0xAF PUSH16 0x78C97599C31BDECB8DEE5CC4BF7AA1A0 0xEA 0xEF SIGNEXTEND JUMPDEST 0xD8 0xAD CODESIZE SLT PUSH32 0x244364736F6C634300081A003300000000000000000000000000000000000000 "
				},
				"gasEstimates": {
					"creation": {
						"codeDepositCost": "371600",
						"executionCost": "409",
						"totalCost": "372009"
					},
					"external": {
						"MAX_DEPOSIT()": "369",
						"MAX_WITHDRAW()": "325",
						"MIN_DEPOSIT()": "391",
						"balances(address)": "2824",
						"deposit(uint256)": "infinite",
						"getBalance()": "2520",
						"withdraw(uint256)": "infinite"
					}
				},
				"methodIdentifiers": {
					"MAX_DEPOSIT()": "dd5967c3",
					"MAX_WITHDRAW()": "852aa16b",
					"MIN_DEPOSIT()": "e1e158a5",
					"balances(address)": "27e235e3",
					"deposit(uint256)": "b6b55f25",
					"getBalance()": "12065fe0",
					"withdraw(uint256)": "2e1a7d4d"
				}
			},
			"storageLayout": {
				"storage": [
					{
						"astId": 5,
						"contract": "contracts/SimpleBank.sol:SimpleBank",
						"label": "balances",
						"offset": 0,
						"slot": "0",
						"type": "t_mapping(t_address,t_uint256)"
					}
				],
				"types": {
					"t_address": {
						"encoding": "inplace",
						"label": "address",
						"numberOfBytes": "20"
					},
					"t_mapping(t_address,t_uint256)": {
						"encoding": "mapping",
						"key": "t_address",
						"label": "mapping(address => uint256)",
						"numberOfBytes": "32",
						"value": "t_uint256"
					},
					"t_uint256": {
						"encoding": "inplace",
						"label": "uint256",
						"numberOfBytes": "32"
					}
				}
			},
			"userdoc": {
				"kind": "user",
				"methods": {},
				"version": 1
			}
		}
	}
}